:020000040800F2
:1000000000000220D10600086F0600087B060008E9
:1000100081060008870600088D0600080000000021
:10002000000000000000000000000000930600082F
:100030009F06000800000000AB060008B706000895
:1000400021070008210700082107000821070008F0
:1000500021070008210700082107000821070008E0
:1000600021070008210700082107000821070008D0
:1000700021070008210700082107000821070008C0
:1000800021070008210700082107000821070008B0
:1000900021070008210700082107000821070008A0
:1000A0002107000821070008210700082107000890
:1000B0002107000821070008210700082107000880
:1000C0002107000821070008210700082107000870
:1000D0002107000821070008210700082107000860
:1000E0002107000821070008210700082107000850
:1000F0002107000821070008210700082107000840
:10010000210700082107000821070008210700082F
:10011000210700082107000821070008210700081F
:10012000210700082107000821070008210700080F
:1001300021070008210700082107000821070008FF
:1001400021070008210700082107000821070008EF
:1001500021070008210700082107000821070008DF
:1001600021070008210700082107000821070008CF
:1001700021070008210700082107000800000000EF
:08018000210700082107000817
:1001880010B5054C237833B9044B13B10448AFF3C9
:1001980000800123237010BD4C00002000000000E7
:1001A8009C18000808B5034B1BB103490348AFF37B
:1001B800008008BD00000000500000209C180008C6
:1001C80053B94AB9002908BF00281CBF4FF0FF31B6
:1001D8004FF0FF3000F074B9ADF1080C6DE904CEB2
:1001E80000F006F8DDF804E0DDE9022304B070470A
:1001F8002DE9F047089E0D4604468846002B4DD150
:100208008A42944668D9B2FA82F252B101FA02F3EC
:10021800C2F1200120FA01F10CFA02FC41EA0308BC
:1002280094404FEA1C45210CB8FBF5FE1FFA8CF7E9
:1002380005FB1E8341EA03430EFB07F199420BD9E4
:100248001CEB03030EF1FF3080F01E81994240F24F
:100258001B81AEF1020E63445B1AA4B2B3FBF5F046
:1002680005FB103344EA034400FB07F7A7420AD909
:100278001CEB040400F1FF3380F00881A74240F230
:10028800058164440238E41B40EA0E4000211EB197
:10029800D4400023C6E90043BDE8F0878B4208D963
:1002A800002E00F0EE800021C6E900050846BDE8F2
:1002B800F087B3FA83F100294AD1AB4202D38242D4
:1002C80000F2F980841A65EB030301209846002E9A
:1002D800E2D0C6E90048DFE702B9FFDEB2FA82F2EF
:1002E800002A40F09180A1EB0C054FEA1C471FFA49
:1002F8008CFE0121B5FBF7F307FB1350250C45EAEB
:1003080000450EFB03F0A84208D91CEB050503F1D4
:10031800FF3802D2A84200F2CB8043462D1AA4B27D
:10032800B5FBF7F007FB105544EA05440EFB00FE49
:10033800A64508D91CEB040400F1FF3502D2A645F6
:1003480000F2BB802846A4EB0E0440EA03409EE777
:10035800C1F120078B4022FA07FC4CEA030C20FA73
:1003680007F405FA01F31C43FD404FEA1C4900FA63
:1003780001F3B5FBF9F8200C1FFA8CFE09FB1855A0
:1003880040EA054508FB0EF0A84202FA01F20BD933
:100398001CEB050508F1FF3A80F08880A84240F27E
:1003A8008580A8F1020865442D1AA4B2B5FBF9F0BE
:1003B80009FB105544EA054500FB0EFEAE4508D979
:1003C8001CEB050500F1FF346CD2AE456AD9023842
:1003D800654440EA0840A0FB0294A5EB0E05A5423F
:1003E800C846A64656D353D05EB1B3EB080265EBB8
:1003F8000E0505FA07F722FA01F3CD401F43C6E9B7
:1004080000750021BDE8F087C2F1200320FA03F14E
:100418000CFA02FC25FA03F395400D434FEA1C47FA
:100428001FFA8CFEB3FBF7F107FB11302B0C43EAE4
:10043800004301FB0EF0984204FA02F408D91CEBC1
:10044800030301F1FF382FD298422DD902396344B2
:100458001B1AADB2B3FBF7F007FB103345EA0345AF
:1004680000FB0EF3AB4208D91CEB050500F1FF3881
:1004780016D2AB4214D902386544ED1A40EA01415C
:1004880038E73146304607E78646E5E61846FAE695
:100498004B45A9D2B9EB020864EB0C0E0138A3E76F
:1004A8004046EAE7204694E74146D1E7D0467BE755
:1004B800023B654432E7084609E76444023842E7EC
:1004C800704700BF80B400AF00BFBD4680BC704716
:1004D80080B582B000AF00233B6000F04FF8786031
:1004E80000F04CF802467B68D31AB3F5FA7F05D3BF
:1004F80000F044F87860002000F008FA002000F0CE
:1005080045F90346002B10D0012000F0BFF93B68E5
:10051800B3F5FA7F05D900233B60042000F0F6F913
:1005280009E03B6801333B6005E0012000F0CEF9AB
:10053800042000F0CBF9012000F028F90346002B35
:1005480003D0022000F0A2F902E0022000F0BEF978
:10055800022000F01BF90346002B03D0032000F013
:1005680095F9BDE7032000F0B1F9B9E780B500AF10
:1005780000F0F2F900F00AF800BF80BD80B500AFC6
:1005880000F054FA0346184680BD000080B594B0C8
:1005980000AF0023BB602F4B1B6C2E4A43F08053E7
:1005A80013642C4B1B6C03F08053BB60BB680023A7
:1005B8007B60294B1B68284A43F480431360264B11
:1005C8001B6803F480437B607B680123FB604FF466
:1005D80080333B6102237B624FF48003BB621923A3
:1005E800FB624FF4A8733B6302237B630723BB635F
:1005F80007F10C03184600F0F5FC0346002B01D068
:1006080000F02EF80F23FB6302233B6400237B6476
:100618004FF4A053BB644FF48053FB6407F13C03D1
:100628000521184600F056FF0346002B01D000F0C4
:1006380017F800F005FA034641F20102934205D18A
:10064800064B1B68054A43F48073136000BF50379C
:10065800BD4680BD0038024000700040003C0240AA
:1006680080B400AFFEE780B400AF00BFBD4680BCD9
:10067800704780B400AFFEE780B400AFFEE780B4F7
:1006880000AFFEE780B400AFFEE780B400AF00BF64
:10069800BD4680BC704780B400AF00BFBD4680BC7B
:1006A800704780B400AF00BFBD4680BC704780B5BE
:1006B80000AF00F0A9F900BF80BD80B400AF00BF53
:1006C800BD4680BC70470000DFF834D00D480E49A5
:1006D8000E4A002302E0D458C4500433C4188C4294
:1006E800F9D30B4A0B4C002301E013600432A242F9
:1006F800FBD3FFF7E2FF01F0A9F801F097F8704784
:1007080000000220000000204C000020D41800083F
:100718004C00002094000020FEE7000080B582B065
:1007280000AF0023FB7100233B60154B1B6B144A81
:1007380043F004031363124B1B6B03F004033B6089
:100748003B68104B00225A600023FB7110E0FB79D4
:100758000D4ADB0013449B881A460A4B1A600A4B61
:100768009B690849184600F05BFAFB790133FB7175
:10077800FB79022BEBD900BF00BF0837BD4680BD0F
:1007880000380240680000200400002080B584B0D2
:1007980000AF0346FB710023FB73FB79032B01D9E0
:1007A80000231BE0FB790F4A52F83320FB790D49EF
:1007B800DB000B449B881946104600F0CBFB034630
:1007C8001946FB79074ADB0013449B79994202D109
:1007D8000123FB7301E00023FB73FB7B18461037F2
:1007E800BD4680BD0400002080B584B000AF002362
:1007F800FB730023BB60224B1B6B214A43F00203AF
:1008080013631F4B1B6B03F00203BB60BB68002321
:100818007B601B4B1B6B1A4A43F010031363184B86
:100828001B6B03F010037B607B68164B01225A6038
:10083800144B00229A60134B0222DA600023FB73E8
:1008480016E0FB7B104ADB0013449B881A460D4BCD
:100858001A60FB7B0C4A52F833300A49184600F0FC
:10086800DFF9FB7B184600F031F8FB7B0133FB73A3
:10087800FB7B042BE5D900BF00BF1037BD4680BD08
:10088800003802407C0000201C00002080B582B0A7
:1008980000AF0346FB71FB79052B11D8FB790A4A97
:1008A80052F83300FB79084ADB0013449988FB7936
:1008B800054ADB0013449B791A4600F062FB00E00E
:1008C80000BF0837BD4680BD1C00002080B582B03F
:1008D80000AF0346FB71FB79052B11D8FB790A4A57
:1008E80052F83300FB79084ADB0013449988FB79F6
:1008F800054ADB001344DB791A4600F042FB00E0AE
:1009080000BF0837BD4680BD1C00002080B582B0FE
:1009180000AF0346FB71FB79052B0DD8FB79084A1C
:1009280052F83320FB790649DB000B449B881946B3
:10093800104600F03EFB00E000BF0837BD4680BD12
:100948001C00002080B500AFFFF710FEFFF74CFF3A
:10095800FFF7E4FE00BF80BD80B500AF0E4B1B68FB
:100968000D4A43F4007313600B4B1B680A4A43F4A7
:1009780080631360084B1B68074A43F48073136055
:10098800032000F019F90F2000F00EF800F006F827
:100998000023184680BD00BF003C024080B400AF71
:1009A80000BFBD4680BC704780B582B000AF78609C
:1009B800124B1A68124B1B7819464FF47A73B3FB23
:1009C800F1F3B2FBF3F3184600F01DF90346002BD0
:1009D80001D001230EE07B680F2B0AD8002279682A
:1009E8004FF0FF3000F0F3F8064A7B6813600023ED
:1009F80000E0012318460837BD4680BD00000020EE
:100A0800480000204400002080B400AF054B1B784C
:100A18001A46054B1B681344034A136000BFBD46C2
:100A280080BC7047480000209000002080B400AFD0
:100A3800024B1B681846BD4680BC704790000020DA
:100A480080B400AF034B1B681B0C1846BD4680BC26
:100A5800704700BF002004E080B485B000AF786024
:100A68007B6803F00703FB600C4BDB68BB60BA686C
:100A78004FF6FF031340BB60FB681A02BB681343C1
:100A880043F0BF6343F40033BB60044ABB68D360E0
:100A980000BF1437BD4680BC704700BF00ED00E0C2
:100AA80080B400AF044BDB681B0A03F00703184649
:100AB800BD4680BC704700BF00ED00E080B483B045
:100AC80000AF03463960FB7197F90730002B0ADB4A
:100AD8003B68DAB20C4997F907301201D2B20B44DD
:100AE80083F800230AE03B68DAB20849FB7903F08F
:100AF8000F03043B1201D2B20B441A7600BF0C3725
:100B0800BD4680BC704700BF00E100E000ED00E09A
:100B180080B489B000AFF860B9607A60FB6803F010
:100B28000703FB61FB69C3F10703042B28BF0423F8
:100B3800BB61FB690433062B02D9FB69033B00E068
:100B480000237B614FF0FF32BB6902FA03F3DA43FB
:100B5800BB681A407B699A404FF0FF317B6901FA04
:100B680003F3D9437B680B40134318462437BD462B
:100B780080BC704780B582B000AF78607B68013B6D
:100B8800B3F1807F01D301230FE00A4A7B68013B60
:100B980053600F214FF0FF30FFF790FF054B002205
:100BA8009A60044B07221A60002318460837BD468E
:100BB80080BD00BF10E000E080B582B000AF786073
:100BC8007868FFF749FF00BF0837BD4680BD80B58C
:100BD80086B000AF0346B9607A60FB7300237B617F
:100BE800FFF75EFF78617A68B9687869FFF790FF68
:100BF800024697F90F3011461846FFF75FFF00BF0E
:100C08001837BD4680BD80B582B000AF786078687F
:100C1800FFF7B0FF034618460837BD4680BD000001
:100C280080B489B000AF7860396000237B6100230D
:100C38003B610023BB610023FB616BE10122FB697F
:100C480002FA03F37B613B681B687A6913403B61D6
:100C58003A697B699A4240F05A813B685B6803F0C5
:100C68000303012B05D03B685B6803F00303022BE9
:100C780030D17B689B68BB61FB695B00032202FA89
:100C880003F3DB43BA691340BB613B68DA68FB696D
:100C98005B0002FA03F3BA691343BB617B68BA6964
:100CA8009A607B685B68BB610122FB6902FA03F307
:100CB800DB43BA691340BB613B685B681B0903F0FF
:100CC8000102FB6902FA03F3BA691343BB617B684B
:100CD800BA695A603B685B6803F00303032B17D0BB
:100CE8007B68DB68BB61FB695B00032202FA03F3E4
:100CF800DB43BA691340BB613B689A68FB695B00D8
:100D080002FA03F3BA691343BB617B68BA69DA6014
:100D18003B685B6803F00303022B23D1FB69DA0805
:100D28007B68083253F82230BB61FB6903F0070384
:100D38009B000F2202FA03F3DB43BA691340BB613D
:100D48003B681A69FB6903F007039B0002FA03F387
:100D5800BA691343BB61FB69DA087B680832B96971
:100D680043F822107B681B68BB61FB695B000322A8
:100D780002FA03F3DB43BA691340BB613B685B6863
:100D880003F00302FB695B0002FA03F3BA69134339
:100D9800BB617B68BA691A603B685B6803F44033DF
:100DA800002B00F0B4800023FB605F4B5B6C5E4A55
:100DB80043F4804353645C4B5B6C03F48043FB60F7
:100DC800FB685A4AFB699B08023352F82330BB611F
:100DD800FB6903F003039B000F2202FA03F3DB43D2
:100DE800BA691340BB617B68514A93422BD07B6838
:100DF800504A934225D07B684F4A93421FD07B6864
:100E08004E4A934219D07B684D4A934213D07B686F
:100E18004C4A93420DD07B684B4A934207D07B687B
:100E28004A4A934201D107230EE008230CE0062327
:100E38000AE0052308E0042306E0032304E0022374
:100E480002E0012300E00023FA6902F003029200A5
:100E58009340BA691343BB613449FB699B08023369
:100E6800BA6941F823203A4B9B68BB613B69DB4375
:100E7800BA691340BB613B685B6803F48013002BBD
:100E880003D0BA693B691343BB61314ABB699360BC
:100E98002F4BDB68BB613B69DB43BA691340BB611D
:100EA8003B685B6803F40013002B03D0BA693B6905
:100EB8001343BB61264ABB69D360254B5B68BB61A2
:100EC8003B69DB43BA691340BB613B685B6803F469
:100ED8000033002B03D0BA693B691343BB611C4A3A
:100EE800BB6953601A4B1B68BB613B69DB43BA693A
:100EF8001340BB613B685B6803F48033002B03D06D
:100F0800BA693B691343BB61114ABB691360FB694A
:100F18000133FB61FB690F2B7FF690AE00BF00BF6A
:100F28002437BD4680BC7047003802400038014075
:100F3800000002400004024000080240000C024089
:100F4800001002400014024000180240001C024039
:100F5800003C014080B485B000AF78600B467B80D0
:100F68007B681A697B881340002B02D00123FB732E
:100F780001E00023FB73FB7B18461437BD4680BC99
:100F8800704780B483B000AF78600B467B8013460F
:100F98007B707B78002B03D07A887B689A6103E0AA
:100FA8007B881A047B689A6100BF0C37BD4680BCF9
:100FB800704780B485B000AF78600B467B807B6853
:100FC8005B69FB607A88FB6813401A04FB68D943A5
:100FD8007B880B401A437B689A6100BF1437BD4673
:100FE80080BC704780B586B000AF78607B68002B06
:100FF80001D1012367E27B681B6803F00103002B22
:1010080075D0884B9B6803F00C03042B0CD0854BE0
:101018009B6803F00C03082B12D1824B5B6803F426
:101028008003B3F5800F0BD17E4B1B6803F40033AC
:10103800002B5BD07B685B68002B57D1012342E211
:101048007B685B68B3F5803F06D1764B1B68754AB1
:1010580043F4803313601DE07B685B68B3F5A02F11
:101068000CD1704B1B686F4A43F4802313606D4B9F
:101078001B686C4A43F4803313600BE0694B1B68B0
:10108800684A23F480331360664B1B68654A23F46F
:10109800802313607B685B68002B13D0FFF7C6FCC6
:1010A800386108E0FFF7C2FC02463B69D31A642B9B
:1010B80001D9032307E25B4B1B6803F40033002BC1
:1010C800F0D014E0FFF7B2FC386108E0FFF7AEFC9F
:1010D80002463B69D31A642B01D90323F3E1514B30
:1010E8001B6803F40033002BF0D100E000BF7B68DD
:1010F8001B6803F00203002B63D04A4B9B6803F084
:101108000C03002B0BD0474B9B6803F00C03082BF8
:101118001CD1444B5B6803F48003002B16D1414B70
:101128001B6803F00203002B05D07B68DB68012BEA
:1011380001D00123C7E13B4B1B6823F0F8027B6811
:101148001B69DB00374913430B603AE07B68DB68B7
:10115800002B20D0344B01221A60FFF767FC38615E
:1011680008E0FFF763FC02463B69D31A022B01D95A
:101178000323A8E12B4B1B6803F00203002BF0D0DC
:10118800284B1B6823F0F8027B681B69DB002549A4
:1011980013430B6015E0244B00221A60FFF746FC4E
:1011A800386108E0FFF742FC02463B69D31A022B7C
:1011B80001D9032387E11B4B1B6803F00203002BB3
:1011C800F0D17B681B6803F00803002B36D07B68DE
:1011D8005B69002B16D0154B01221A60FFF726FC1D
:1011E800386108E0FFF722FC02463B69D31A022B5C
:1011F80001D9032367E10B4B5B6F03F00203002B5C
:10120800F0D01BE0094B00221A60FFF70FFC386191
:101218000EE0FFF70BFC02463B69D31A022B07D9F5
:10122800032350E10038024000004742800E474245
:10123800884B5B6F03F00203002BEAD17B681B68C5
:1012480003F00403002B00F097800023FB75814B0B
:101258001B6C03F08053002B0FD10023BB607D4B28
:101268001B6C7C4A43F0805313647A4B1B6C03F06D
:101278008053BB60BB680123FB75774B1B6803F485
:101288008073002B18D1744B1B68734A43F4807326
:101298001360FFF7CBFB386108E0FFF7C7FB024696
:1012A8003B69D31A022B01D903230CE16A4B1B6853
:1012B80003F48073002BF0D07B689B68012B06D168
:1012C800644B1B6F634A43F0010313671CE07B68A0
:1012D8009B68052B0CD15F4B1B6F5E4A43F00403E0
:1012E80013675C4B1B6F5B4A43F0010313670BE00A
:1012F800584B1B6F574A23F001031367554B1B6F5D
:10130800544A23F0040313677B689B68002B15D0AD
:10131800FFF78CFB38610AE0FFF788FB02463B6960
:10132800D31A41F28832934201D90323CBE0494BC7
:101338001B6F03F00203002BEED014E0FFF776FBDF
:1013480038610AE0FFF772FB02463B69D31A41F2A3
:101358008832934201D90323B5E03E4B1B6F03F05B
:101368000203002BEED1FB7D012B05D1394B1B6C01
:10137800384A23F0805313647B689B69002B00F084
:10138800A180344B9B6803F00C03082B5CD07B686E
:101398009B69022B41D1314B00221A60FFF746FBB3
:1013A800386108E0FFF742FB02463B69D31A022B7B
:1013B80001D9032387E0274B1B6803F00073002B38
:1013C800F0D17B68DA697B681B6A1A437B685B6AC1
:1013D8009B011A437B689B6A5B08013B1B041A4309
:1013E8007B68DB6A1B061B4913434B601B4B0122BE
:1013F8001A60FFF71BFB386108E0FFF717FB02468E
:101408003B69D31A022B01D903235CE0114B1B68FB
:1014180003F00073002BF0D054E0104B00221A6048
:10142800FFF704FB386108E0FFF700FB02463B6961
:10143800D31A022B01D9032345E0064B1B6803F09E
:101448000073002BF0D13DE07B689B69012B07D12D
:10145800012338E000380240007000406000474235
:101468001B4B5B68FB607B689B69012B28D0FB6882
:1014780003F480027B68DB699A4221D1FB6803F0A0
:101488003F027B681B6A9A421AD1FA6847F6C07312
:1014980013407A68526A9201934211D1FB6803F4AF
:1014A80040327B689B6A5B08013B1B049A4207D168
:1014B800FB6803F070627B68DB6A1B069A4201D006
:1014C800012300E0002318461837BD4680BD00BF41
:1014D8000038024080B584B000AF786039607B681E
:1014E800002B01D10123CCE0684B1B6803F00703F4
:1014F8003A689A420CD9654B3A68D2B21A70634B73
:101508001B6803F007033A689A4201D00123B8E048
:101518007B681B6803F00203002B20D07B681B68E4
:1015280003F00403002B05D0594B9B68584A43F439
:10153800E05393607B681B6803F00803002B05D019
:10154800534B9B68524A43F460439360504B9B68EB
:1015580023F0F0027B689B684D4913438B607B68DE
:101568001B6803F00103002B44D07B685B68012BE8
:1015780007D1474B1B6803F40033002B19D1012313
:101588007FE07B685B68022B03D07B685B68032B7A
:1015980007D13F4B1B6803F00073002B09D10123CF
:1015A8006FE03B4B1B6803F00203002B01D10123C2
:1015B80067E0374B9B6823F003027B685B6834491C
:1015C80013438B60FFF732FAF8600AE0FFF72EFA50
:1015D8000246FB68D31A41F28832934201D90323A9
:1015E8004FE02B4B9B6803F00C027B685B689B0009
:1015F8009A42EBD1254B1B6803F007033A689A42DD
:101608000CD2224B3A68D2B21A70204B1B6803F0F6
:1016180007033A689A4201D0012332E07B681B68CD
:1016280003F00403002B08D0194B9B6823F4E05205
:101638007B68DB68164913438B607B681B6803F083
:101648000803002B09D0124B9B6823F460427B6887
:101658001B69DB000E4913438B6000F021F802463A
:101668000B4B9B681B0903F00F030A49CB5C22FA5A
:1016780003F3094A1360094B1B681846FFF794F9EE
:10168800002318461037BD4680BD00BF003C02400D
:1016980000380240B4180008000000204400002070
:1016A8002DE9B04F90B000AF00237B630023FB63AC
:1016B80000233B630023BB63594B9B6803F00C0377
:1016C800082B0DD0082B00F2A280002B02D0042B8F
:1016D80003D09CE0534BBB639CE0534BBB6399E046
:1016E8004F4B5B6803F03F037B634D4B5B6803F430
:1016F8008003002B27D04A4B5B689B0900223B6282
:101708007A623B6AC3F308000021474B03FB01F2EE
:10171800002300FB03F31344434AA0FB0221F962B0
:10172800BA62FA6A1344FB627B6B0022BB61FA61FE
:10173800D7E90623D7E90A01FEF742FD02460B4620
:101748001346FB6355E0364B5B689B0900223B61FF
:101758007A613B69C3F3080A4FF0000B52465B46B7
:101768004FF000004FF00001590141EAD2615001E9
:1017780002460B46B2EB0A0863EB0B094FF0000276
:101788004FF000034FEA891343EA98634FEA88123F
:10179800B2EB080463EB09054FF000024FF00003B9
:1017A800EB0043EA5473E20014461D4614EB0A03A7
:1017B8003B6045EB0B037B604FF000024FF00003EA
:1017C800D7E9004529468B0220462946044643EAC4
:1017D800945301468A02104619467B6B0022BB606F
:1017E800FA60D7E90223FEF7EBFC02460B461346E4
:1017F800FB630B4B5B681B0C03F0030301335B00BB
:101808003B63FA6B3B6BB2FBF3F3BB6302E0054B44
:10181800BB6300BFBB6B18464037BD46BDE8B08F01
:10182800003802400024F40040787D0180B582B081
:1018380000AF00237B60FFF785F8FEF743FEFEF755
:1018480047FE7B6818460837BD4680BD70B50D4D0C
:101858000D4C641BA4100026A64209D10B4D0C4C5C
:1018680000F018F8641BA4100026A64205D170BD2C
:1018780055F8043B98470136EEE755F8043B98477E
:101888000136F2E7CC180008CC180008CC1800087C
:10189800D0180008F8B500BFF8BC08BC9E467047D1
:0C18A800F8B500BFF8BC08BC9E467047B5
:1018B40000000000000000000102030406070809FC
:0818C40034E9FF7F0100000080
:0418CC00AD01000862
:0418D0008901000882
:1018D4000024F40000080240002000010008024037
:1018E4000100000100080240020000010010024053
:1018F4000400000100100240080000010010024032
:101904001000000100100240200000010004024009
:0C191400000201001000000001000000B3
:04000005080006D118
:00000001FF
