:020000040800F2
:100000000000022049020008E7010008F30100088F
:10001000F9010008FF0100080502000800000000C7
:100020000000000000000000000000000B020008BB
:100030001702000800000000230200082F02000839
:100040009902000899020008990200089902000824
:100050009902000899020008990200089902000814
:100060009902000899020008990200089902000804
:1000700099020008990200089902000899020008F4
:1000800099020008990200089902000899020008E4
:1000900099020008990200089902000899020008D4
:1000A00099020008990200089902000899020008C4
:1000B00099020008990200089902000899020008B4
:1000C00099020008990200089902000899020008A4
:1000D0009902000899020008990200089902000894
:1000E0009902000899020008990200089902000884
:1000F0009902000899020008990200089902000874
:100100009902000899020008990200089902000863
:100110009902000899020008990200089902000853
:100120009902000899020008990200089902000843
:100130009902000899020008990200089902000833
:100140009902000899020008990200089902000823
:100150009902000899020008990200089902000813
:100160009902000899020008990200089902000803
:100170009902000899020008990200080000000096
:08018000990200089902000831
:1001880010B5054C237833B9044B13B10448AFF3C9
:1001980000800123237010BD04000020000000002F
:1001A8003403000808B5034B1BB103490348AFF3F8
:1001B800008008BD0000000008000020340300088B
:1001C80080B400AF00BFBD4680BC704780B400AFAC
:1001D800FEE780B400AF00BFBD4680BC704780B466
:1001E80000AF00BFBD4680BC704780B400AFFEE7DB
:1001F80080B400AFFEE780B400AFFEE780B400AF84
:10020800FEE780B400AF00BFBD4680BC704780B435
:1002180000AF00BFBD4680BC704780B400AF00BFD0
:10022800BD4680BC704780B500AF00F039F800BF0C
:1002380080BD80B400AF00BFBD4680BC70470000E1
:10024800DFF834D00D480E490E4A002302E0D45896
:10025800C4500433C4188C42F9D30B4A0B4C002306
:1002680001E013600432A242FBD3FFF7E2FF00F083
:1002780039F800F027F8704700000220000000203D
:10028800040000205403000804000020240000207B
:10029800FEE780B500AFFFF79CFF00BF80BD000000
:1002A80080B400AF054B1B781A46054B1B681344F6
:1002B800034A136000BFBD4680BC704700000020A1
:1002C8002000002080B582B000AF00237B60FFF7DC
:1002D800E0FFFFF775FFFFF779FF7B6818460837DF
:1002E800BD4680BD70B50D4D0D4C641BA410002695
:1002F800A64209D10B4D0C4C00F018F8641BA41051
:100308000026A64205D170BD55F8043B9847013632
:10031800EEE755F8043B98470136F2E74C0300082E
:100328004C0300084C03000850030008F8B500BF50
:10033800F8BC08BC9E467047F8B500BFF8BC08BCBE
:040348009E46704716
:04034C00AD010008F7
:040350008901000817
:0403540001000000A4
:0400000508000249A4
:00000001FF
