:020000040800F2
:100000000000022065090008610800086708000870
:100010006D08000873080008790800080000000057
:100020000000000000000000000000007F08000841
:100030008B0800080000000097080008A3080008CB
:10004000B5090008B5090008B5090008B509000898
:10005000B5090008B5090008B5090008B509000888
:10006000B5090008B5090008B5090008B509000878
:10007000B5090008B5090008B5090008B509000868
:10008000B5090008B5090008B5090008B509000858
:10009000B5090008B5090008B5090008B509000848
:1000A000B5090008B5090008B5090008B509000838
:1000B000B5090008BD100008B5090008B509000819
:1000C000B5090008B5090008B5090008B509000818
:1000D000B5090008B1080008B5090008B50900080D
:1000E000B5090008B5090008B5090008B5090008F8
:1000F000B5090008B5090008B5090008B5090008E8
:10010000B5090008B5090008B5090008B5090008D7
:10011000B5090008B5090008B5090008B5090008C7
:10012000B5090008B5090008C5080008B5090008A8
:10013000B5090008B5090008B5090008B5090008A7
:10014000B5090008B5090008B5090008D908000874
:10015000B5090008B5090008B5090008B509000887
:10016000B5090008B5090008B5090008B509000877
:10017000B5090008B5090008B5090008000000002D
:08018000B5090008B5090008EB
:1001900010B5054C237833B9044B13B10448AFF3C1
:1001A00000800123237010BDC0010020000000006A
:1001B0003CB1000808B5034B1BB103490348AFF33A
:1001C000008008BD00000000C40100203CB1000810
:1001D00001F0FF01102A2BDB10F0070F08D010F8F8
:1001E000013B013A8B422DD010F0070F42B3F6D1FC
:1001F000F0B441EA012141EA014122F007047FF015
:1002000000070023F0E80256083C85EA010586EA6B
:10021000010685FA47F5A3FA87F586FA47F6A5FAA7
:1002200087F68EB9EED1F0BC01F0FF0102F00702B3
:1002300032B110F8013B013A83EA010313B1F8D15E
:100240000020704701387047002D06BF354603383F
:10025000073815F0010F07D1013015F4807F02BF78
:10026000013015F4C03F0130F0BC0138704700BFC9
:1002700053B94AB9002908BF00281CBF4FF0FF310D
:100280004FF0FF3000F074B9ADF1080C6DE904CE09
:1002900000F006F8DDF804E0DDE9022304B0704761
:1002A0002DE9F047089E0D4604468846002B4DD1A7
:1002B0008A42944668D9B2FA82F252B101FA02F344
:1002C000C2F1200120FA01F10CFA02FC41EA030814
:1002D00094404FEA1C45210CB8FBF5FE1FFA8CF741
:1002E00005FB1E8341EA03430EFB07F199420BD93C
:1002F0001CEB03030EF1FF3080F01E81994240F2A7
:100300001B81AEF1020E63445B1AA4B2B3FBF5F09D
:1003100005FB103344EA034400FB07F7A7420AD960
:100320001CEB040400F1FF3380F00881A74240F287
:10033000058164440238E41B40EA0E4000211EB1EE
:10034000D4400023C6E90043BDE8F0878B4208D9BA
:10035000002E00F0EE800021C6E900050846BDE849
:10036000F087B3FA83F100294AD1AB4202D382422B
:1003700000F2F980841A65EB030301209846002EF1
:10038000E2D0C6E90048DFE702B9FFDEB2FA82F246
:10039000002A40F09180A1EB0C054FEA1C471FFAA0
:1003A0008CFE0121B5FBF7F307FB1350250C45EA42
:1003B00000450EFB03F0A84208D91CEB050503F12C
:1003C000FF3802D2A84200F2CB8043462D1AA4B2D5
:1003D000B5FBF7F007FB105544EA05440EFB00FEA1
:1003E000A64508D91CEB040400F1FF3502D2A6454E
:1003F00000F2BB802846A4EB0E0440EA03409EE7CF
:10040000C1F120078B4022FA07FC4CEA030C20FACA
:1004100007F405FA01F31C43FD404FEA1C4900FABA
:1004200001F3B5FBF9F8200C1FFA8CFE09FB1855F7
:1004300040EA054508FB0EF0A84202FA01F20BD98A
:100440001CEB050508F1FF3A80F08880A84240F2D5
:100450008580A8F1020865442D1AA4B2B5FBF9F015
:1004600009FB105544EA054500FB0EFEAE4508D9D0
:100470001CEB050500F1FF346CD2AE456AD9023899
:10048000654440EA0840A0FB0294A5EB0E05A54296
:10049000C846A64656D353D05EB1B3EB080265EB0F
:1004A0000E0505FA07F722FA01F3CD401F43C6E90E
:1004B00000750021BDE8F087C2F1200320FA03F1A6
:1004C0000CFA02FC25FA03F395400D434FEA1C4752
:1004D0001FFA8CFEB3FBF7F107FB11302B0C43EA3C
:1004E000004301FB0EF0984204FA02F408D91CEB19
:1004F000030301F1FF382FD298422DD9023963440A
:100500001B1AADB2B3FBF7F007FB103345EA034506
:1005100000FB0EF3AB4208D91CEB050500F1FF38D8
:1005200016D2AB4214D902386544ED1A40EA0141B3
:1005300038E73146304607E78646E5E61846FAE6EC
:100540004B45A9D2B9EB020864EB0C0E0138A3E7C6
:100550004046EAE7204694E74146D1E7D0467BE7AC
:10056000023B654432E7084609E76444023842E743
:10057000704700BF80B582B000AF7860022000F005
:1005800029FB00BF0837BD4680BD000080B584B0A0
:1005900002AF4FF47A71002000F0C2FC002000F09E
:1005A000F5FC00F069FC0346FB80FB88D8B2002311
:1005B00000930C4B02224FF4FA7100F0F1FBFB8820
:1005C000DBB2184600F02EFC4FF4E131002000F0C1
:1005D000EDFD0549002000F0F5FE00BF0837BD46DF
:1005E00080BD00BF7505000854B1000880B582B019
:1005F00000AF00F09AF8786000F097F802467B6848
:10060000D31AB3F5FA7FF7D300F08FF878600020A3
:1006100000F0E0FA0B21024809F072FCECE700BFA1
:1006200064B1000880B58AB000AF00F0E9FF00F0C7
:1006300083F807F1140300221A605A609A60DA60A6
:100640001A6100233B61314B1B6B304A43F01003AE
:1006500013632E4B1B6B03F010033B613B690023BC
:10066000FB602A4B1B6B294A43F080031363274B23
:100670001B6B03F08003FB60FB680023BB60234B14
:100680001B6B224A43F001031363204B1B6B03F0E7
:100690000103BB60BB6800237B601C4B1B6B1B4AC8
:1006A00043F002031363194B1B6B03F002037B60DF
:1006B0007B684FF480537B611123BB610023FB6196
:1006C00002233B6207F114031946114801F0C6FDED
:1006D00000224FF480510E4802F054F8642000F0DC
:1006E00019F801224FF48051094802F04BF8002319
:1006F000BB6107F114031946054801F0AFFD09F08D
:1007000041FB00BF2837BD4680BD00BF0038024016
:100710000000024080B582B000AF7860786800F0D9
:10072000DDFF00BF0837BD4680BD80B500AF00F0DB
:10073000CBFF0346184680BD80B594B000AF07F1EB
:1007400020033022002118460AF06AF807F10C0352
:1007500000221A605A609A60DA601A610023BB6056
:10076000284B1B6C274A43F080531364254B1B6CAA
:1007700003F08053BB60BB6800237B60224B1B6887
:10078000214A43F4804313601F4B1B6803F48043EA
:100790007B607B6801233B624FF480337B620223E2
:1007A000BB634FF48003FB6319233B644FF4A873CE
:1007B0007B640223BB640723FB6407F12003184614
:1007C00003F08CFA0346002B01D000F01FF80F2332
:1007D000FB6002233B6100237B614FF4A053BB61AC
:1007E0004FF48053FB6107F10C030521184603F019
:1007F000EDFC0346002B01D000F008F800BF503795
:10080000BD4680BD003802400070004080B400AF9B
:10081000FEE7000080B483B000AF00237B600F4B85
:100820005B6C0E4A43F4804353640C4B5B6C03F4E3
:1008300080437B607B6800233B60084B1B6C074A4E
:1008400043F080531364054B1B6C03F080533B60F3
:100850003B6800BF0C37BD4680BC70470038024083
:1008600080B400AFFEE780B400AFFEE780B400AF15
:10087000FEE780B400AFFEE780B400AFFEE780B4CF
:1008800000AF00BFBD4680BC704780B400AF00BF62
:10089000BD4680BC704780B400AF00BFBD4680BC81
:1008A000704780B500AF00F0FDFE00BF80BD0000C6
:1008B00080B500AF024804F043FD00BF80BD00BF1B
:1008C0008003002080B500AF024801F061FA00BF4C
:1008D00080BD00BFC403002080B500AF024802F015
:1008E000D2F800BF80BD00BFE81A002080B586B0F6
:1008F00000AF7860144A154BD31A7B617B693B616A
:10090000134B1B68002B02D1114B124A1A60104B7B
:100910001A687B6813443A699A4207D209F056FF75
:1009200003460C221A604FF0FF3309E0084B1B68A6
:10093000FB60074B1A687B681344054A1360FB6829
:1009400018461837BD4680BD000002200004000094
:10095000DC0100202822002080B400AF00BFBD468B
:1009600080BC7047DFF834D00D480E490E4A002392
:1009700002E0D458C4500433C4188C42F9D30B4A53
:100980000B4C002301E013600432A242FBD3FFF7BB
:10099000E3FF09F021FF09F009FF70470000022082
:1009A00000000020C00100201CB20008C00100208F
:1009B00024220020FEE780B487B000AFF860B96061
:1009C0007A600123FB75FB6800221A60FB68002235
:1009D0005A60FB68BA68DA60FB687A689A60FB68FC
:1009E000DB68002B04D1FB6800229A600023FB75B2
:1009F000FB7D18461C37BD4680BC704780B489B06B
:100A000000AFF860B9607A600123FB77FB68DB68B0
:100A1000002B01D100232DE00023BB6125E0FB6802
:100A20001B683B61FB681B6801337B61FB689B684B
:100A30007A699A4201D100237B61FB685B687A691D
:100A40009A420CD0BA68BB691A44FB68D9683B6902
:100A50000B4412781A70FB687A691A6002E000236E
:100A6000FB7706E0BB690133BB61BA697B689A42D8
:100A7000D5D3FB7F18462437BD4680BC70470000A5
:100A800080B582B000AF0023FB7100233B60154BA3
:100A90001B6B144A43F004031363124B1B6B03F0EC
:100AA00004033B603B68104B00225A600023FB713B
:100AB00010E0FB790D4ADB0013449B881A460A4B71
:100AC0001A600A4B9B690849184601F0C7FBFB797D
:100AD0000133FB71FB79022BEBD900BF00BF083754
:100AE000BD4680BD00380240E00100200400002027
:100AF00080B584B000AF0023FB730023BB60224BA2
:100B00001B6B214A43F0020313631F4B1B6B03F063
:100B10000203BB60BB6800237B601B4B1B6B1A4A44
:100B200043F010031363184B1B6B03F010037B603F
:100B30007B68164B01225A60144B00229A60134BBB
:100B40000222DA600023FB7316E0FB7B104ADB0015
:100B500013449B881A460D4B1A60FB7B0C4A52F8D3
:100B600033300A49184601F079FBFB7B184600F048
:100B700011F8FB7B0133FB73FB7B042BE5D900BF32
:100B800000BF1037BD4680BD00380240F401002090
:100B90001C00002080B582B000AF0346FB71FB79DA
:100BA000052B11D8FB790A4A52F83300FB79084A21
:100BB000DB0013449988FB79054ADB001344DB7999
:100BC0001A4601F0DFFD00E000BF0837BD4680BDDA
:100BD0001C00002080B582B000AF0346FB71FB799A
:100BE000052B0DD8FB79084A52F83320FB790649CA
:100BF000DB000B449B881946104601F0DBFD00E04A
:100C000000BF0837BD4680BD1C00002080B483B003
:100C100000AF1F4B1B78012B01D1002333E00023D1
:100C2000FB7129E0FA791B4913469B0013449B0092
:100C30000B44043300221A60FA79164913469B00CC
:100C400013449B000B4400221A70FA791149134691
:100C50009B0013449B000B44083300221A60FA796E
:100C60000C4913469B0013449B000B440C33002299
:100C70001A60FB790133FB71FB79072BD2D9044B46
:100C800001221A70012318460C37BD4680BC7047FC
:100C9000B00200201002002080B582B000AF3D4BB2
:100CA0001B6801333B4A13600023FB7163E0FA7950
:100CB000394913469B0013449B000B441B78012BBE
:100CC00056D1FA79344913469B0013449B000B44D8
:100CD00004331B68591E304813469B0013449B0085
:100CE000034404331960FA792B4913469B001344DB
:100CF0009B000B4404331B68002B39D1FA79264939
:100D000013469B0013449B000B4401331B78012BBB
:100D100008D1FA79204913469B0013449B000B44E9
:100D200000221A70F979FA791B480B469B000B4494
:100D30009B00034408331968174813469B0013446B
:100D40009B00034404331960FA79134913469B004E
:100D500013449B000B440C331968FA790E48134670
:100D60009B0013449B00034410331B6818468847BC
:100D7000FB790133FB71FB79072B06D8FB799AB21B
:100D8000064B1B889BB29A4291D300BF0837BD46E1
:100D900080BD00BF08020020100200200C020020CD
:100DA00080B485B000AFB9607B600346FB73134627
:100DB000BB73FA7B1A4913469B0013449B000B44F8
:100DC0000133BA7B1A70FA7B154913469B00134412
:100DD0009B000B440C337A681A60FA7B1049134667
:100DE0009B0013449B000B441033BA691A60FA7BD2
:100DF0000B4913469B0013449B000B440433BA6811
:100E00001A60FA7B064913469B0013449B000B446F
:100E10000833BA681A6000BF1437BD4680BC7047FB
:100E20001002002080B483B000AF0346FB71FB7951
:100E3000072B1AD8F979FA790E480B469B000B4418
:100E40009B000344083319680A4813469B00134467
:100E50009B00034404331960FA79064913469B004A
:100E600013449B000B4401221A7000BF0C37BD468F
:100E700080BC70471002002080B483B000AF094BE3
:100E80001B889BB2FB80074B1B889BB201339AB235
:100E9000044B1A80B7F9063018460C37BD4680BCA3
:100EA000704700BF0C02002080B400AF184B194AF5
:100EB000C3F8B820164B184A1A60184B1B685A081A
:100EC000134BD3F8B830B2FBF3F3013B104A536035
:100ED0000F4B00221A610E4B00229A600C4B00222D
:100EE0009A610B4B00225A61094B0022C3F8BC20C7
:100EF000074B0022C3F8C020054B0022C3F8C420D2
:100F0000034B0022C3F8C82000BFBD4680BC704719
:100F1000B402002040420F00000400400000002006
:100F200080B487B000AF03463960FB71FB79042BB6
:100F300020D8FB79124A12F833301A46CC2302FB30
:100F400003F3104A13443B613B69D3F8B8300E4AAF
:100F5000B2FBF3F3FB603A68FB68B2FBF3F37B612F
:100F60007B69002B01D101237B617B695A1E3B69A0
:100F7000DA6000E000BF1C37BD4680BC704700BF90
:100F800044000020B402002040420F0080B584B02D
:100F900000AF0346FB710023FB60FB79042B45D8AF
:100FA000FB79244A12F833301A46CC2302FB03F3B0
:100FB000214A1344BB60FB791E4ADB0013445B7873
:100FC000032B17D801A252F823F000BFDD0F000851
:100FD000E30F0008E90F0008EF0F00080023FB6093
:100FE00008E00423FB6005E00823FB6002E00C231B
:100FF000FB6000BFBB68184603F0C6FAB868FB790F
:101000000C4ADB0013445B781A461346DB009B1A3C
:101010009B004833BA681344FA68194603F022FD6E
:10102000BB68F968184603F0FFFA00E000BF10370C
:10103000BD4680BD44000020B402002080B586B0CB
:1010400000AF78600023FB752CE0FB7D194A12F895
:1010500033301A46CC2302FB03F3174A13443B6197
:10106000FB7D144ADB0013445B78FB607B681B7FCD
:101070001946FB7D0F4ADB0013445B6899420ED191
:101080003A69FB682E339B0013445B68002B06D043
:101090003A69FB682E339B0013445B689847FB7DDD
:1010A0000133FB75FB7D032BCFD900BF00BF183781
:1010B000BD4680BD44000020B402002080B500AFD2
:1010C000024803F0C7FB00BF80BD00BFB402002090
:1010D00080B582B000AF78607868FFF7AFFFFFF7A8
:1010E000DBFD00BF0837BD4680BD000080B584B081
:1010F00000AF78607B681A680E4B1B689A4215D166
:101100000023FB600C4B1B6C0B4A43F0020313647F
:10111000094B1B6C03F00203FB60FB6801220F21EB
:101120001D2000F0FAFB1D2000F013FC00BF10375B
:10113000BD4680BDB40200200038024080B483B0B8
:1011400000AF0023FB7125E0FB79174AD02101FB9A
:1011500003F3134400221A70FB79134AD02101FBD8
:1011600003F31344083300221A70FB790E4AD0218E
:1011700001FB03F313440A3302221A70FB790A4A73
:10118000D02101FB03F31344093302221A70FB79C7
:101190000133FB71FB79002BD6D000BF00BF0C37A9
:1011A000BD4680BC704700BF3404002080B586B0C7
:1011B00000AF03463960FB710123FB75FB79012BFE
:1011C00001D9002360E0FB79002B5CD1FB79D022B0
:1011D00002FB03F32E4A13443B613B693A685A60B1
:1011E0003B6901221A703B6900221A72294B2A4A74
:1011F0001A60284A3B685360264B00229A60254BB0
:101200000022DA60234B00221A61224B0C225A6121
:10121000204B00229A611F4B0022DA611D4803F027
:101220006EFFFB791B011D4A13444FF480721C4969
:101230001846FFF7C0FB3B699B7A022B15D10023B0
:10124000FB60184B1B6B174A43F480031363154B69
:101250001B6B03F48003FB60FB68002200213A2033
:1012600000F05BFB3A2000F074FB0A4803F0FAFE42
:101270000346002B02D00023FB7503E0FB791846E0
:1012800000F012F800BFFB7D18461837BD4680BD40
:1012900034040020800300200010014024040020BA
:1012A000040500200038024080B584B000AF03463A
:1012B000FB71FB79D02202FB03F31E4A1344FB604F
:1012C000FB79002B32D1FB689B7A012B04D10122E0
:1012D00019491A4803F0D4FFFB689B7A022B22D1EC
:1012E0004FF480721449154803F0FAFF0346002BAF
:1012F0001BD1FB79124A1B01134408331968114BA7
:101300001B685A68FB798A1A0D491B010B441A6045
:10131000FA79FB790A4912010A44126808491B014B
:101320000B4404331A6000BF00E000BF1037BD4615
:1013300080BD00BF3404002004050020800300208D
:1013400024040020C403002080B586B000AF03460B
:10135000B9607A60FB7300237B61FB7BD02202FBC8
:1013600003F3164A13443B61FB7B002B20D13B69FE
:101370009B7A022B0BD17B689AB26423B968104820
:1013800003F0ECFE0346002B01D17B687B613B69D7
:101390009B7A012B0BD17B689AB26423B968084809
:1013A00003F0DCFE0346002B01D17B687B6100BFAC
:1013B0007B6918461837BD4680BD00BF3404002045
:1013C000800300200EB480B5C7B000AF024607F519
:1013D0008C73A3F211131A700023C7F8143107F5A8
:1013E000947207F58C73A3F586731A6007F58C73F6
:1013F000A3F5867307F110001B68D7F824214FF47A
:10140000807109F041FAC7F81001D7F8102107F1EF
:10141000100107F58C73A3F211131B781846FFF720
:1014200093FFC7F81401D7F81431184607F58E77E3
:10143000BD46BDE8804003B07047000080B582B073
:1014400000AF78600A4B9B7A012B0CD1094BDB680B
:10145000012219460748FFF7D1FA01220649074839
:1014600003F00EFF00E000BF0837BD4680BD00BF9F
:101470003404002024040020040500208003002000
:1014800080B58AB000AF786007F1140300221A60BB
:101490005A609A60DA601A617B681B68354A934229
:1014A00063D100233B61344B5B6C334A43F0100340
:1014B0005364314B5B6C03F010033B613B690023C9
:1014C000FB602D4B1B6B2C4A43F0010313632A4B2B
:1014D0001B6B03F00103FB60FB684FF4C0637B618F
:1014E0000223BB610023FB6103233B6207237B6272
:1014F00007F114031946214800F0B0FE204B214AA1
:101500001A601F4B4FF000625A601D4B00229A6018
:101510001B4B0022DA601A4B4FF480621A61184BA1
:1015200000225A61164B00229A61154B4FF48072CB
:10153000DA61134B00221A62114B00225A621048E2
:1015400000F030FA0346002B01D000F043F87B682E
:101550000B4A9A630A4A7B68936300220021252084
:1015600000F0DBF9252000F0F4F900BF2837BD4674
:1015700080BD00BF00100140003802400000024062
:10158000C40300204064024080B582B000AF7860A0
:101590007B681B680C4A934212D10C4B5B6C0B4A64
:1015A00023F0100353644FF4C061094800F0F0FFCA
:1015B0007B689B6B184600F0A3FA252000F0D7F952
:1015C00000BF0837BD4680BD001001400038024012
:1015D0000000024080B400AF72B600BFFEE780B5E5
:1015E00000AFFFF71FF8FFF783FAFFF749FAFFF79D
:1015F0005BFCFFF70BFBFFF7A1FD00BF80BD000008
:1016000080B500AF0E4B1B680D4A43F400731360A6
:101610000B4B1B680A4A43F480631360084B1B683A
:10162000074A43F480731360032000F06BF90F2026
:1016300000F008F8FFF7EEF80023184680BD00BF61
:10164000003C024080B582B000AF7860124B1A684F
:10165000124B1B7819464FF47A73B3FBF1F3B2FBCC
:10166000F3F3184600F091F90346002B01D0012353
:101670000EE07B680F2B0AD8002279684FF0FF300C
:1016800000F04BF9064A7B681360002300E0012359
:1016900018460837BD4680BD0000002068000020C5
:1016A0006400002080B400AF054B1B781A46054B40
:1016B0001B681344034A136000BFBD4680BC7047DB
:1016C000680000200406002080B400AF024B1B68B5
:1016D0001846BD4680BC70470406002080B584B023
:1016E00000AF7860FFF7F0FFB8607B68FB60FB68D5
:1016F000B3F1FF3F05D00A4B1B781A46FB68134431
:10170000FB6000BFFFF7E0FF0246BB68D31AFA6830
:101710009A42F7D800BF00BF1037BD4680BD00BF5A
:101720006800002080B485B000AF78607B6803F06B
:101730000703FB600C4BDB68BB60BA684FF6FF0326
:101740001340BB60FB681A02BB68134343F0BF63DE
:1017500043F40033BB60044ABB68D36000BF143756
:10176000BD4680BC704700BF00ED00E080B400AF14
:10177000044BDB681B0A03F007031846BD4680BC18
:10178000704700BF00ED00E080B483B000AF0346B7
:10179000FB7197F90730002B0BDBFB7903F01F027D
:1017A000064997F907305B09012000FA02F241F877
:1017B000232000BF0C37BD4680BC704700E100E02D
:1017C00080B483B000AF0346FB7197F90730002B5C
:1017D00012DBFB7903F01F020A4997F907305B0916
:1017E000012000FA02F2203341F82320BFF34F8F8B
:1017F00000BFBFF36F8F00BF00BF0C37BD4680BC7A
:10180000704700BF00E100E080B483B000AF034642
:101810003960FB7197F90730002B0ADB3B68DAB2BD
:101820000C4997F907301201D2B20B4483F8002318
:101830000AE03B68DAB20849FB7903F00F03043B86
:101840001201D2B20B441A7600BF0C37BD4680BCE1
:10185000704700BF00E100E000ED00E080B489B017
:1018600000AFF860B9607A60FB6803F00703FB61C2
:10187000FB69C3F10703042B28BF0423BB61FB6989
:101880000433062B02D9FB69033B00E000237B6194
:101890004FF0FF32BB6902FA03F3DA43BB681A4028
:1018A0007B699A404FF0FF317B6901FA03F3D9431A
:1018B0007B680B40134318462437BD4680BC7047F5
:1018C00080B582B000AF78607B68013BB3F1807F68
:1018D00001D301230FE00A4A7B68013B53600F21CB
:1018E0004FF0FF30FFF790FF054B00229A60044B4A
:1018F00007221A60002318460837BD4680BD00BF86
:1019000010E000E080B582B000AF78607868FFF743
:1019100009FF00BF0837BD4680BD80B586B000AF67
:101920000346B9607A60FB7300237B61FFF71EFFFB
:1019300078617A68B9687869FFF790FF024697F98D
:101940000F3011461846FFF75FFF00BF1837BD463E
:1019500080BD80B582B000AF0346FB7197F90730B8
:101960001846FFF711FF00BF0837BD4680BD80B5A0
:1019700082B000AF0346FB7197F907301846FFF7B6
:101980001FFF00BF0837BD4680BD80B582B000AFE5
:1019900078607868FFF794FF034618460837BD461D
:1019A00080BD000080B586B000AF786000237B6109
:1019B000FFF78AFE38617B68002B01D1012399E093
:1019C0007B68022283F835207B68002283F834206C
:1019D0007B681B681A687B681B6822F001021A602A
:1019E0000FE0FFF771FE02463B69D31A052B08D9B9
:1019F0007B6820225A657B68032283F83520032305
:101A000078E07B681B681B6803F00103002BE8D1BA
:101A10007B681B681B687B617A69384B13407B616C
:101A20007B685A687B689B681A437B68DB681A434B
:101A30007B681B691A437B685B691A437B689B69F7
:101A40001A437B68DB691A437B681B6A13437A6914
:101A500013437B617B685B6A042B07D17B68DA6A7E
:101A60007B681B6B13437A6913437B617B681B683C
:101A70007A691A607B681B685B697B617B6923F00C
:101A800007037B617B685B6A7A6913437B617B68D0
:101A90005B6A042B17D17B689B6A7A6913437B616D
:101AA0007B68DB6A002B0ED0786800F05DFB034694
:101AB000002B08D07B6840225A657B68012283F89E
:101AC0003520012316E07B681B687A695A617868C3
:101AD00000F016FB0346FB607B68DB6D3F229A40FB
:101AE000FB689A607B6800225A657B68012283F854
:101AF0003520002318461837BD4680BD3F8010F0C2
:101B000080B584B000AF78607B68002B01D10123E1
:101B100050E07B6893F83530DBB2022B01D1022311
:101B200048E07B681B681A687B681B6822F001022A
:101B30001A607B681B6800221A607B681B680022A1
:101B40005A607B681B6800229A607B681B680022D1
:101B5000DA607B681B6800221A617B681B6821229F
:101B60005A61786800F0CCFA0346FB607B6800227B
:101B7000DA637B6800221A647B6800225A647B68FF
:101B800000229A647B680022DA647B6800221A656E
:101B90007B68DB6D3F229A40FB689A607B6800227D
:101BA0005A657B68002283F835207B68002283F821
:101BB0003420002318461037BD4680BD80B586B05E
:101BC00000AFF860B9607A603B600023FB75FB688A
:101BD0009B6D3B61FB6893F83430012B01D10223EC
:101BE00040E0FB68012283F83420FB6893F835302D
:101BF000DBB2012B2FD1FB68022283F83520FB6872
:101C000000225A653B687A68B968F86800F04AFAB9
:101C1000FB68DB6D3F229A403B699A60FB681B685A
:101C20001A68FB681B6842F016021A60FB681B6C9E
:101C3000002B07D0FB681B681A68FB681B6842F022
:101C400008021A60FB681B681A68FB681B6842F090
:101C500001021A6005E0FB68002283F834200223A9
:101C6000FB75FB7D18461837BD4680BD80B584B036
:101C700000AF78607B689B6DFB60FFF725FDB86067
:101C80007B6893F83530DBB2022B08D07B6880226A
:101C90005A657B68002283F83420012352E07B6878
:101CA0001B681A687B681B6822F016021A607B6842
:101CB0001B685A697B681B6822F080025A617B6846
:101CC0001B6C002B03D17B689B6C002B07D07B68BF
:101CD0001B681A687B681B6822F008021A607B6820
:101CE0001B681A687B681B6822F001021A6013E007
:101CF000FFF7EAFC0246BB68D31A052B0CD97B68B8
:101D000020225A657B68032283F835207B680022F5
:101D100083F83420032315E07B681B681B6803F0FD
:101D20000103002BE4D17B68DB6D3F229A40FB6806
:101D30009A607B68012283F835207B68002283F853
:101D40003420002318461037BD4680BD80B483B0D0
:101D500000AF78607B6893F83530DBB2022B04D09B
:101D60007B6880225A6501230CE07B68052283F89A
:101D700035207B681B681A687B681B6822F00102AB
:101D80001A60002318460C37BD4680BC704700001F
:101D900080B586B000AF78600023BB608E4B1B68B7
:101DA0008E4AA2FB03239B0A7B617B689B6D3B6190
:101DB0003B691B68FB607B68DB6D08229A40FB680F
:101DC0001340002B1AD07B681B681B6803F00403C8
:101DD000002B13D07B681B681A687B681B6822F095
:101DE00004021A607B68DB6D08229A403B699A60A6
:101DF0007B685B6D43F001027B685A657B68DB6D35
:101E000001229A40FB681340002B12D07B681B68AC
:101E10005B6903F08003002B0BD07B68DB6D012234
:101E20009A403B699A607B685B6D43F002027B6875
:101E30005A657B68DB6D04229A40FB681340002BD7
:101E400012D07B681B681B6803F00203002B0BD0C9
:101E50007B68DB6D04229A403B699A607B685B6D0E
:101E600043F004027B685A657B68DB6D10229A4060
:101E7000FB681340002B43D07B681B681B6803F092
:101E80000803002B3CD07B68DB6D10229A403B6935
:101E90009A607B681B681B6803F48023002B18D0B2
:101EA0007B681B681B6803F40023002B08D17B6848
:101EB0001B6C002B24D07B681B6C786898471FE054
:101EC0007B689B6C002B1BD07B689B6C7868984769
:101ED00016E07B681B681B6803F48073002B07D136
:101EE0007B681B681A687B681B6822F008021A600E
:101EF0007B681B6C002B03D07B681B6C7868984751
:101F00007B68DB6D20229A40FB681340002B00F0B9
:101F10008F807B681B681B6803F01003002B00F0A8
:101F200087807B68DB6D20229A403B699A607B68E2
:101F300093F83530DBB2052B36D17B681B681A6805
:101F40007B681B6822F016021A607B681B685A695E
:101F50007B681B6822F080025A617B681B6C002B37
:101F600003D17B689B6C002B07D07B681B681A68C9
:101F70007B681B6822F008021A607B68DB6D3F22D9
:101F80009A403B699A607B68012283F835207B6820
:101F9000002283F834207B681B6D002B7ED07B6889
:101FA0001B6D7868984779E07B681B681B6803F4B1
:101FB0008023002B1DD07B681B681B6803F4002363
:101FC000002B0DD17B685B6C002B31D07B685B6C88
:101FD000786898472CE000BF00000020B5814E1BB8
:101FE0007B68DB6B002B23D07B68DB6B78689847C2
:101FF0001EE07B681B681B6803F48073002B0FD105
:102000007B681B681A687B681B6822F010021A60E4
:102010007B68012283F835207B68002283F8342016
:102020007B68DB6B002B03D07B68DB6B78689847A1
:102030007B685B6D002B32D07B685B6D03F0010326
:10204000002B22D07B68052283F835207B681B6833
:102050001A687B681B6822F001021A60BB680133B2
:10206000BB607A699A4207D37B681B681B6803F0E0
:102070000103002BF2D100E000BF7B68012283F84E
:1020800035207B68002283F834207B68DB6C002BD2
:1020900005D07B68DB6C7868984700E000BF183794
:1020A000BD4680BD80B485B000AFF860B9607A608D
:1020B0003B60FB681B681A68FB681B6822F480227F
:1020C0001A60FB681B683A685A60FB689B68402B83
:1020D00008D1FB681B687A689A60FB681B68BA685D
:1020E000DA6007E0FB681B68BA689A60FB681B68E7
:1020F0007A68DA6000BF1437BD4680BC70470000C4
:1021000080B485B000AF78607B681B68DBB2103BA1
:10211000134AA2FB03231B09FB60124AFB6813440A
:102120001B781A467B68DA65FB68032B09D97B6844
:102130001B6823F47F7323F003031A1D7B689A65E1
:1021400007E07B681B6823F47F7323F003037A683E
:1021500093657B689B6D18461437BD4680BC7047FD
:10216000ABAAAAAAD0B1000880B485B000AF78604D
:102170000023FB737B689B6ABB607B689B69002BB9
:102180001FD1BB68032B56D801A252F823F000BF21
:10219000A1210008B3210008A1210008372200086E
:1021A0007B68DB6A03F08073002B46D00123FB734E
:1021B00043E07B68DB6AB3F1C07F40D10123FB734E
:1021C0003DE07B689B69B3F5005F21D1BB68032BC1
:1021D00037D801A252F823F0E9210008EF210008C6
:1021E000E9210008012200080123FB7330E07B682D
:1021F000DB6A03F08073002B25D00123FB7322E000
:102200007B68DB6AB3F1C07F1FD10123FB731CE045
:10221000BB68022B03D9BB68032B03D018E0012352
:10222000FB7315E07B68DB6A03F08073002B0ED034
:102230000123FB730BE000BF0AE000BF08E000BF12
:1022400006E000BF04E000BF02E000BF00E000BF06
:10225000FB7B18461437BD4680BC704780B489B0FC
:1022600000AF7860396000237B6100233B6100236D
:10227000BB610023FB616BE10122FB6902FA03F3FE
:102280007B613B681B687A6913403B613A697B69F3
:102290009A4240F05A813B685B6803F00303012BCC
:1022A00005D03B685B6803F00303022B30D17B68E9
:1022B0009B68BB61FB695B00032202FA03F3DB430B
:1022C000BA691340BB613B68DA68FB695B0002FADC
:1022D00003F3BA691343BB617B68BA699A607B6890
:1022E0005B68BB610122FB6902FA03F3DB43BA6955
:1022F0001340BB613B685B681B0903F00102FB698B
:1023000002FA03F3BA691343BB617B68BA695A6086
:102310003B685B6803F00303032B17D07B68DB6823
:10232000BB61FB695B00032202FA03F3DB43BA697A
:102330001340BB613B689A68FB695B0002FA03F3D8
:10234000BA691343BB617B68BA69DA603B685B6852
:1023500003F00303022B23D1FB69DA087B68083200
:1023600053F82230BB61FB6903F007039B000F2287
:1023700002FA03F3DB43BA691340BB613B681A6995
:10238000FB6903F007039B0002FA03F3BA691343E6
:10239000BB61FB69DA087B680832B96943F822102F
:1023A0007B681B68BB61FB695B00032202FA03F3D5
:1023B000DB43BA691340BB613B685B6803F003020F
:1023C000FB695B0002FA03F3BA691343BB617B68E4
:1023D000BA691A603B685B6803F44033002B00F075
:1023E000B4800023FB605F4B5B6C5E4A43F4804328
:1023F00053645C4B5B6C03F48043FB60FB685A4A9C
:10240000FB699B08023352F82330BB61FB6903F080
:1024100003039B000F2202FA03F3DB43BA69134064
:10242000BB617B68514A93422BD07B68504A9342F0
:1024300025D07B684F4A93421FD07B684E4A934217
:1024400019D07B684D4A934213D07B684C4A934223
:102450000DD07B684B4A934207D07B684A4A93422F
:1024600001D107230EE008230CE006230AE0052330
:1024700008E0042306E0032304E0022302E0012332
:1024800000E00023FA6902F0030292009340BA6967
:102490001343BB613449FB699B080233BA6941F8B5
:1024A00023203A4B9B68BB613B69DB43BA6913400D
:1024B000BB613B685B6803F48013002B03D0BA69EF
:1024C0003B691343BB61314ABB6993602F4BDB68A7
:1024D000BB613B69DB43BA691340BB613B685B6826
:1024E00003F40013002B03D0BA693B691343BB61AB
:1024F000264ABB69D360254B5B68BB613B69DB4304
:10250000BA691340BB613B685B6803F40033002B7E
:1025100003D0BA693B691343BB611C4ABB69536072
:102520001A4B1B68BB613B69DB43BA691340BB6153
:102530003B685B6803F48033002B03D0BA693B69C6
:102540001343BB61114ABB691360FB690133FB6133
:10255000FB690F2B7FF690AE00BF00BF2437BD464E
:1025600080BC704700380240003801400000024043
:102570000004024000080240000C0240001002402B
:102580000014024000180240001C0240003C0140C0
:1025900080B487B000AF7860396000233B610023CE
:1025A000FB600023BB6000237B61CDE001227B69DF
:1025B00002FA03F33B613A683B691340FB60FA6837
:1025C0003B699A4240F0BD80644A7B699B080233B4
:1025D00052F82330BB607B6903F003039B000F229A
:1025E00002FA03F3BA681340BB607B685C4A93420B
:1025F0002BD07B685B4A934225D07B685A4A934232
:102600001FD07B68594A934219D07B68584A93423D
:1026100013D07B68574A93420DD07B68564A934249
:1026200007D07B68554A934201D107230EE0082367
:102630000CE006230AE0052308E0042306E0032358
:1026400004E0022302E0012300E000237A6902F0A3
:10265000030292009340BA689A4232D1484B1A68FA
:10266000FB68DB43464913400B60454B5A68FB68E7
:10267000DB43434913404B60414BDA68FB68DB4363
:102680003F491340CB603E4B9A68FB68DB433C49B3
:1026900013408B607B6903F003039B000F2202FA57
:1026A00003F3BB602D4A7B699B08023352F8231069
:1026B000BB68DA4329487B699B080A40023340F82B
:1026C00023207B681A687B695B00032101FA03F30E
:1026D000DB431A407B681A607B69DA087B68083242
:1026E00053F822107B6903F007039B000F2202FAC4
:1026F00003F3DB437A69D20819407B68083243F858
:1027000022107B68DA687B695B00032101FA03F31E
:10271000DB431A407B68DA607B685A6801217B6979
:1027200001FA03F3DB431A407B685A607B689A68BE
:102730007B695B00032101FA03F3DB431A407B68EA
:102740009A607B6901337B617B690F2B7FF62EAF2B
:1027500000BF00BF1C37BD4680BC70470038014039
:10276000000002400004024000080240000C024049
:10277000001002400014024000180240001C0240F9
:10278000003C014080B483B000AF78600B467B8092
:1027900013467B707B78002B03D07A887B689A6124
:1027A00003E07B881A047B689A6100BF0C37BD4642
:1027B00080BC704780B485B000AF78600B467B80EA
:1027C0007B685B69FB607A88FB6813401A04FB68CE
:1027D000D9437B880B401A437B689A6100BF14374A
:1027E000BD4680BC7047F0B58FB00AAF78607B689B
:1027F000002B01D101230FE17B681B68BB607B6864
:1028000093F8BD34DBB2002B06D17B68002283F83D
:10281000BC24786807F0B8FC7B68032283F8BD24E9
:10282000BB68DB6B03F48073002B02D17B68002252
:102830001A617B681B68184603F0C8FF7B681B6839
:102840003B607E686D4606F110040FCC0FC50FCCBF
:102850000FC594E8030085E80300331D0ECB3868EC
:1028600003F0A0FE0346002B05D07B68022283F80C
:10287000BD240123D0E07B681B680021184603F0CB
:10288000B5FF0023FB734AE0FA7B79681346DB004F
:1028900013449B000B443D3301221A70FA7B796884
:1028A0001346DB0013449B000B443C33FA7B1A7045
:1028B000FA7BFB7B98B279681346DB0013449B00DC
:1028C0000B44443302461A80FA7B79681346DB00D6
:1028D00013449B000B44403300221A70FA7B796842
:1028E0001346DB0013449B000B44483300221A605C
:1028F000FA7B79681346DB0013449B000B444C338E
:1029000000221A60FA7B79681346DB0013449B00AF
:102910000B44543300221A60FB7B0133FB73FA7BB8
:102920007B685B689A42AFD30023FB7344E0FA7B79
:1029300079681346DB0013449B000B4403F27D23AC
:1029400000221A70FA7B79681346DB0013449B005F
:102950000B4403F51F73FA7B1A70FA7B79681346F0
:10296000DB0013449B000B4403F5207300221A7014
:10297000FA7B79681346DB0013449B000B4403F594
:10298000227300221A60FA7B79681346DB00134435
:102990009B000B4403F5237300221A60FA7B7968CD
:1029A0001346DB0013449B000B4403F52573002200
:1029B0001A60FB7B0133FB73FA7B7B685B689A428E
:1029C000B5D37B681B683B607E686D4606F11004DA
:1029D0000FCC0FC50FCC0FC594E8030085E80300AA
:1029E000331D0ECB386803F04DFF0346002B05D096
:1029F0007B68022283F8BD2401230DE07B6800225E
:102A000083F838207B68012283F8BD247B681B682B
:102A1000184605F090F8002318461437BD46F0BD5F
:102A200080B584B000AF78607B681B68FB607B6812
:102A300093F8BC34012B01D1022320E07B680122F2
:102A400083F8BC247B689B6A012B09D17B689B6956
:102A5000012B05D0FB689B6B43F48032FB689A63C3
:102A60007B681B68184603F0A1FE7B681B6818464C
:102A700005F041F87B68002283F8BC240023184647
:102A80001037BD4680BD90B58DB000AF78607B68D3
:102A90001B683B623B6AFB617B681B68184605F05C
:102AA000F8F80346002B40F08A847B681B681846C0
:102AB00005F061F80346002B00F08084FB6903F504
:102AC00000639B681B0AC3F30D027B68C3F8FC24F8
:102AD0007B681B68184605F04EF8034603F00203B6
:102AE000022B07D17B681B685A697B681B6802F060
:102AF00002025A617B681B68184605F03CF80346E1
:102B000003F01003102B61D17B681B689A697B6806
:102B10001B6822F010029A613B6A1B6ABB61BB69A9
:102B200003F00F021346DB0013449B0003F51E73F2
:102B30007A68134404337B61BB695B0C03F00F03B9
:102B4000022B24D1BA6947F6F0731340002B35D01D
:102B50007B691969BB691B099BB2C3F30A039BB26A
:102B60001A46386A04F079FE7B691A69BB691B0949
:102B7000C3F30A031A447B691A617B691A6ABB6949
:102B80001B09C3F30A031A447B691A6216E0BB6986
:102B90005B0C03F00F03062B10D17B6803F2C443D8
:102BA00008221946386A04F058FE7B691A6ABB6924
:102BB0001B09C3F30A031A447B691A627B681B680A
:102BC0009A697B681B6842F010029A617B681B68F7
:102BD000184604F0D0FF034603F40023B3F5002F9A
:102BE00040F0A78000237B627B681B68184604F0D6
:102BF000D4FFB86299E0BB6A03F00103002B00F038
:102C00008E807B681B687A6AD2B21146184604F03F
:102C1000F6FF38613B6903F00103002B0CD07B6A9F
:102C20005A01FB69134403F530631A46012393608C
:102C3000796A786800F0C2FE3B6903F00803002B54
:102C40000CD07B6A5A01FB69134403F530631A46C2
:102C500008239360796A786800F098FF3B6903F075
:102C60001003002B08D07B6A5A01FB69134403F55B
:102C700030631A46102393603B6903F00203002B74
:102C800030D03B6A5B6903F08003802B09D1FB697C
:102C900003F500635B68FA6902F5006243F4806340
:102CA00053607A6A1346DB0013449B0003F51E73DE
:102CB0007A68134404337B617B69DB78012B08D18C
:102CC0007B690022DA707B6ADBB21946786807F00C
:102CD00061FB7B6A5A01FB69134403F530631A46B2
:102CE000022393603B6903F02003002B08D07B6A2A
:102CF0005A01FB69134403F530631A46202393609D
:102D00003B6903F40053002B09D07B6A5A01FB692D
:102D1000134403F530631A464FF4005393607B6A03
:102D200001337B62BB6A5B08BB62BB6A002B7FF42A
:102D300062AF7B681B68184604F01DFF034603F46E
:102D40008023B3F5802F40F0DB807B681B6818463A
:102D500004F03CFFB86200237B62CDE0BB6A03F065
:102D60000103002B00F0C2807B681B687A6AD2B234
:102D70001146184604F060FF38613B6903F0010317
:102D8000002B57D07B6A03F00F03012202FA03F3F2
:102D9000FB60FB6903F500635A6BFB68DB43F96971
:102DA00001F5006113404B637B6A5A01FB691344D0
:102DB00003F510631A46012393607B681B69012B9E
:102DC00032D179687A6A1346DB0013449B000B44C6
:102DD0004C33196878687A6A1346DB0013449B0009
:102DE000034448331B68194478687A6A1346DB0049
:102DF00013449B0003444C3319607B6A002B13D1AE
:102E000079687A6A1346DB0013449B000B44543301
:102E10001B68002B08D17B6818687B6803F2C443E9
:102E20001A46012104F064FF7B6ADBB21946786818
:102E300007F02BFA3B6903F00803002B08D07B6AEC
:102E40005A01FB69134403F510631A460823936083
:102E50003B6903F01003002B08D07B6A5A01FB6921
:102E6000134403F510631A46102393603B6903F083
:102E70004003002B08D07B6A5A01FB69134403F519
:102E800010631A46402393603B6903F00203002B52
:102E900023D0796A386A03F059FE7A6A1346DB0058
:102EA00013449B0038337A68134404337B617B6995
:102EB000DB78012B08D17B690022DA707B6ADBB2F8
:102EC0001946786807F078FA7B6A5A01FB6913445F
:102ED00003F510631A46022393603B6903F08003F5
:102EE000002B03D0796A786800F0DAFC7B6A013342
:102EF0007B62BB6A5B08BB62BB6A002B7FF42EAFB0
:102F00007B681B68184604F036FE034603F0004356
:102F1000B3F1004F22D1FB6903F500635B68FA69E6
:102F200002F5006223F0010353607B6893F8F434E8
:102F3000012B08D17B68002283F8F42400217868F3
:102F400000F0C0FE02E0786807F016FA7B681B68A4
:102F50005A697B681B6802F000425A617B681B68F3
:102F6000184604F008FE034603F40063B3F5006F4F
:102F700012D1FB6903F500639B6803F00103012B89
:102F800002D1786807F0D2F97B681B685A697B68C0
:102F90001B6802F400625A617B681B68184604F0E3
:102FA000EAFD034603F48053B3F5805F40F0B78039
:102FB000FB6903F500635B68FA6902F5006223F0C0
:102FC000010353607B681B681021184603F0BEFDA7
:102FD0000023FB6246E0FB6A5A01FB69134403F5D8
:102FE00010631A464FF67F339360FB6A5A01FB6900
:102FF000134403F510631B68FA6A5101FA690A4425
:1030000002F5106223F400131360FB6A5A01FB6996
:10301000134403F530631A464FF67F339360FB6A1F
:103020005A01FB69134403F530631B68FA6A5101C6
:10303000FA690A4402F5306223F400131360FB6A54
:103040005A01FB69134403F530631B68FA6A5101A6
:10305000FA690A4402F5306243F000631360FB6AC8
:103060000133FB627B685B68FA6A9A42B3D3FB69FF
:1030700003F50063DB69FA6902F5006243F00113AE
:10308000D3617B681B6B002B16D0FB6903F50063D3
:10309000D3F88430FA6902F5006243F00B03C2F8FA
:1030A0008430FB6903F500635B6CFA6902F500622A
:1030B00043F00B03536415E0FB6903F500635B69A0
:1030C000FA6902F5006243F4005343F02B035361A5
:1030D000FB6903F500631B69FA6902F5006243F0BE
:1030E0000B031361FB6903F500631B68FA6902F5C2
:1030F000006223F4FE6313607B6818687B681B69B9
:10310000D9B27B6803F2C4431A4604F0F1FD7B6830
:103110001B685A697B681B6802F480525A617B689D
:103120001B68184604F027FD034603F40053B3F56B
:10313000005F24D17B681B68184604F0B7FD7B68EC
:103140001B68184603F07EFD03461A467B68DA606A
:103150007B681C6801F0E6F901467B68DB68DBB23E
:103160001A46204603F080FA786807F0B6F87B68C4
:103170001B685A697B681B6802F400525A617B68BD
:103180001B68184604F0F7FC034603F00803082BFD
:103190000AD1786807F093F87B681B685A697B68E6
:1031A0001B6802F008025A617B681B68184604F02D
:1031B000E2FC034603F08003802B22D13B6A9B692B
:1031C00023F080023B6A9A6101237B6214E07968F4
:1031D0007A6A1346DB0013449B000B4403F27F23FF
:1031E0001B78012B05D17B6ADBB21946786800F0A9
:1031F00026FB7B6A01337B627B685B687A6A9A4252
:10320000E5D37B681B68184604F0B5FC034603F45D
:103210008013B3F5801F3BD101237B622BE07B6AD7
:103220005A01FB69134403F510631B68BB6179689D
:103230007A6A1346DB0013449B000B4440331B782F
:10324000012B15D1BB69002B12DA79687A6A134613
:10325000DB0013449B000B443F3301221A707B6A4E
:10326000DBB263F07F03DBB21946786800F0E7FA5F
:103270007B6A01337B627B685B687A6A9A42CED351
:103280007B681B685A697B681B6802F480125A616C
:103290007B681B68184604F06EFC034603F40013B9
:1032A000B3F5001F55D101237B6245E07B6A5A01CB
:1032B000FB69134403F530631B68BB6179687A6A64
:1032C0001346DB0013449B000B4403F520731B786B
:1032D000012B2ED1BB69002B2BDABB6903F48032A2
:1032E0007B68D3F8FC3403F001039A4221D179685A
:1032F0007A6A1346DB0013449B000B4403F27F23DE
:1033000001221A703B6A9B6943F080023B6A9A6112
:103310003B6A5B6903F08003002B0AD1FB6903F56C
:1033200000635B68FA6902F5006243F4007353605E
:1033300007E07B6A01337B627B685B687A6A9A424A
:10334000B4D37B681B685A697B681B6802F400125F
:103350005A617B681B68184604F00DFC034603F0B5
:103360008043B3F1804F0AD1786807F037F87B6863
:103370001B685A697B681B6802F080425A617B684F
:103380001B68184604F0F7FB034603F00403042B04
:1033900015D17B681B685B68BB61BB6903F00403E4
:1033A000002B02D0786807F027F87B681B68596803
:1033B0007B681B68BA690A435A6000E000BF343773
:1033C000BD4690BD80B582B000AF78600B46FB7003
:1033D0007B6893F8BC34012B01D1022313E07B6896
:1033E000012283F8BC247B68FA7883F838207B6854
:1033F0001B68FA781146184604F058FB7B680022D7
:1034000083F8BC24002318460837BD4680BD80B52C
:1034100084B000AF7860084611461A460346FB7038
:103420000B463B801346BB700023FB7297F90330B9
:10343000002B0FDAFB7803F00F021346DB00134476
:103440009B0038337A6813440433FB60FB68012225
:103450005A700FE0FB7803F00F021346DB001344B1
:103460009B0003F51E737A6813440433FB60FB680A
:1034700000225A70FB7803F00F03DAB2FB681A706F
:103480003A88FB68DA60FB68BA781A71FB685B7887
:10349000002B04D0FB681B789AB2FB681A81BB78BA
:1034A000022B02D1FB6800225A717B6893F8BC346E
:1034B000012B01D102230EE07B68012283F8BC249A
:1034C0007B681B68F968184603F0E0FB7B68002204
:1034D00083F8BC24FB7A18461037BD4680BD80B502
:1034E00084B000AF78600B46FB7097F90330002B77
:1034F0000FDAFB7803F00F021346DB0013449B0046
:1035000038337A6813440433FB60FB6801225A7035
:103510000FE0FB7803F00F021346DB0013449B001F
:1035200003F51E737A6813440433FB60FB680022C2
:103530005A70FB7803F00F03DAB2FB681A707B68ED
:1035400093F8BC34012B01D102230EE07B680122E9
:1035500083F8BC247B681B68F968184603F01CFCE0
:103560007B68002283F8BC24002318461037BD4630
:1035700080BD80B586B000AFF8607A603B600B46D6
:10358000FB72FB7A03F00F021346DB0013449B002F
:1035900003F51E73FA68134404337B617B697A6810
:1035A0001A617B693A689A617B6900221A627B69B9
:1035B00000225A70FB7A03F00F03DAB27B691A70AB
:1035C000FB681B69012B02D17A687B695A61FB7A1F
:1035D00003F00F03002B09D1FB681868FB681B6917
:1035E000DBB21A46796903F0FBFE08E0FB68186855
:1035F000FB681B69DBB21A46796903F0A9FC00235A
:1036000018461837BD4680BD80B483B000AF7860DF
:103610000B46FB70FB7803F00F0279681346DB0062
:1036200013449B000B4403F527731B6818460C37A3
:10363000BD4680BC704780B586B000AFF8607A6048
:103640003B600B46FB72FB7A03F00F021346DB0074
:1036500013449B003833FA68134404337B617B695D
:103660007A681A617B693A689A617B6900221A62FA
:103670007B6901225A70FB7A03F00F03DAB27B698F
:103680001A70FB681B69012B02D17A687B695A6149
:10369000FB7A03F00F03002B09D1FB681868FB6865
:1036A0001B69DBB21A46796903F09AFE08E0FB68F1
:1036B0001868FB681B69DBB21A46796903F048FC9D
:1036C000002318461837BD4680BD80B584B000AFD2
:1036D00078600B46FB70FB7803F00F027B685B6839
:1036E0009A4201D9012350E097F90330002B0FDAF9
:1036F000FB7803F00F021346DB0013449B003833C2
:103700007A6813440433FB60FB6801225A700DE0B1
:10371000FA781346DB0013449B0003F51E737A68A6
:1037200013440433FB60FB6800225A70FB680122DB
:103730009A70FB7803F00F03DAB2FB681A707B68AB
:1037400093F8BC34012B01D102231EE07B680122D7
:1037500083F8BC247B681B68F968184604F0D4F829
:10376000FB7803F00F03002B0AD17B6818687B6895
:103770001B69D9B27B6803F2C4431A4604F0B8FA55
:103780007B68002283F8BC24002318461037BD460E
:1037900080BD80B584B000AF78600B46FB70FB78CD
:1037A00003F00F027B685B689A4201D9012342E073
:1037B00097F90330002B0FDAFB7803F00F02134662
:1037C000DB0013449B0038337A6813440433FB60F6
:1037D000FB6801225A700FE0FB7803F00F021346DA
:1037E000DB0013449B0003F51E737A681344043313
:1037F000FB60FB6800225A70FB6800229A70FB781D
:1038000003F00F03DAB2FB681A707B6893F8BC34DC
:10381000012B01D102230EE07B68012283F8BC2436
:103820007B681B68F968184604F0DBF87B680022A7
:1038300083F8BC24002318461037BD4680BD80B5F0
:1038400084B000AF78600B46FB7097F90330002B13
:103850000CDAFB7803F00F021346DB0013449B00E5
:1038600038337A6813440433FB600CE0FB7803F0D0
:103870000F021346DB0013449B0003F51E737A68A6
:1038800013440433FB607B681B68F968184603F037
:10389000FEFE0346FB72FB7A18461037BD4680BD1C
:1038A00080B58AB002AF786039607B681B687B6145
:1038B0007B693B613A681346DB0013449B00383355
:1038C0007A6813440433FB60FB681A6AFB689B69DF
:1038D0009A4201D901236CE0FB689A69FB681B6A74
:1038E000D31AFB61FB68DB68FA699A4202D9FB686C
:1038F000DB68FB61FB6903339B08BB612BE0FB6862
:103900009A69FB681B6AD31AFB61FB68DB68FA697A
:103910009A4202D9FB68DB68FB61FB6903339B08B1
:10392000BB61FB6819693B68DAB2FB6998B27B68D6
:103930001B69DBB200930346786903F051FFFB6813
:103940001A69FB691A44FB681A61FB681A6AFB6909
:103950001A44FB681A623B685A013B69134403F539
:1039600010639B699BB2BA699A4209D8FB681A6ACC
:10397000FB689B699A4203D2FB689B69002BBED10E
:10398000FB689A69FB681B6A9A4211D83B6803F08E
:103990000F03012202FA03F3BB603B6903F50063E6
:1039A0005A6BBB68DB43396901F5006113404B6317
:1039B000002318462037BD4680BD000080B588B082
:1039C00000AF786039607B681B68FB61FB69BB6195
:1039D000FB693C3304331B687B613B685A01BB695C
:1039E000134403F530639B683B617B681B69012BC3
:1039F0007BD13B6903F00803002B15D07B69614A3A
:103A0000934240F2B9803B6903F40043002B00F07D
:103A1000B3803B685A01BB69134403F530631A460F
:103A20004FF400439360A7E03B6903F02003002BB1
:103A300009D03B685A01BB69134403F530631A4649
:103A40002023936098E03B6903F02803002B40F0AB
:103A500093807B694B4A93420FD93B6903F400433F
:103A6000002B0AD03B685A01BB69134403F530634D
:103A70001A464FF4004393607EE03A681346DB0039
:103A800013449B0003F51E737A6813440433FB60F0
:103A9000FB68DA693B685901BB690B4403F5306385
:103AA0001B69C3F31203D21AFB681A623B68002B2E
:103AB00014D1FB689B69002B09D17B6818687B686F
:103AC00003F2C4431A46012104F012F906E0FB6830
:103AD0001A69FB681B6A1A44FB681A613B68DBB20F
:103AE0001946786806F0B6FB46E07B69264A9342A1
:103AF00024D13B6903F40043002B0AD03B685A01F0
:103B0000BB69134403F530631A464FF400439360D6
:103B100032E03B6903F02003002B08D03B685A01D8
:103B2000BB69134403F530631A46202393603B6856
:103B3000DBB21946786806F08DFB1DE03B68002B70
:103B400014D179683A681346DB0013449B000B4498
:103B500003F525731B68002B08D17B6818687B6808
:103B600003F2C4431A46002104F0C2F83B68DBB2FA
:103B70001946786806F06EFB002318462037BD46CC
:103B800080BD00BF0A30544F0A31544F80B586B013
:103B900000AF786039607B681B687B617B693B6143
:103BA0007B693C3304331B68FB603B685A013B690B
:103BB000134403F530639B68BB60FB68154A93426E
:103BC0000ED9BB6803F40043002B09D03B685A01AF
:103BD0003B69134403F530631A464FF40043936086
:103BE000786806F025FBFB680A4A93420CD97B688B
:103BF0001B69012B08D17B6818687B6803F2C443FA
:103C00001A46012104F074F8002318461837BD46FF
:103C100080BD00BF0A30544F80B485B000AF7860DB
:103C20000B46FB7013463B807B681B685B6ABB607E
:103C3000FB78002B07D13B8819047B681B68BA68A6
:103C40000A439A6228E07B681B689B6A1B0CBA686F
:103C50001344BB600023FB730DE07B681A68FB7B99
:103C600040339B0013445B681B0CBA681344BB6071
:103C7000FB7B0133FB73FA7BFB78013B9A42ECD36D
:103C80003B8818047B681968FB78013BBA680243DB
:103C900040339B000B445A60002318461437BD463E
:103CA00080BC704780B483B000AF78600B467B80E7
:103CB0007B681B687A885A62002318460C37BD4619
:103CC00080BC704780B483B000AF78600B46FB7057
:103CD00000BF0C37BD4680BC7047000080B586B081
:103CE00000AF78607B68002B01D1012367E27B681D
:103CF0001B6803F00103002B75D0884B9B6803F011
:103D00000C03042B0CD0854B9B6803F00C03082B91
:103D100012D1824B5B6803F48003B3F5800F0BD1A3
:103D20007E4B1B6803F40033002B5BD07B685B6821
:103D3000002B57D1012342E27B685B68B3F5803FDB
:103D400006D1764B1B68754A43F4803313601DE03F
:103D50007B685B68B3F5A02F0CD1704B1B686F4A72
:103D600043F4802313606D4B1B686C4A43F480332B
:103D700013600BE0694B1B68684A23F480331360BF
:103D8000664B1B68654A23F4802313607B685B687D
:103D9000002B13D0FDF798FC386108E0FDF794FC88
:103DA00002463B69D31A642B01D9032307E25B4B1C
:103DB0001B6803F40033002BF0D014E0FDF784FC03
:103DC000386108E0FDF780FC02463B69D31A642B9A
:103DD00001D90323F3E1514B1B6803F40033002B9B
:103DE000F0D100E000BF7B681B6803F00203002BEA
:103DF00063D04A4B9B6803F00C03002B0BD0474B5E
:103E00009B6803F00C03082B1CD1444B5B6803F444
:103E10008003002B16D1414B1B6803F00203002BDB
:103E200005D07B68DB68012B01D00123C7E13B4B48
:103E30001B6823F0F8027B681B69DB0037491343DA
:103E40000B603AE07B68DB68002B20D0344B01220A
:103E50001A60FDF739FC386108E0FDF735FC0246D1
:103E60003B69D31A022B01D90323A8E12B4B1B6812
:103E700003F00203002BF0D0284B1B6823F0F8025C
:103E80007B681B69DB00254913430B6015E0244B5D
:103E900000221A60FDF718FC386108E0FDF714FCF9
:103EA00002463B69D31A022B01D9032387E11B4B3E
:103EB0001B6803F00203002BF0D17B681B6803F042
:103EC0000803002B36D07B685B69002B16D0154B9E
:103ED00001221A60FDF7F8FB386108E0FDF7F4FBFA
:103EE00002463B69D31A022B01D9032367E10B4B2E
:103EF0005B6F03F00203002BF0D01BE0094B0022A4
:103F00001A60FDF7E1FB38610EE0FDF7DDFB0246CC
:103F10003B69D31A022B07D9032350E10038024032
:103F200000004742800E4742884B5B6F03F002035C
:103F3000002BEAD17B681B6803F00403002B00F020
:103F400097800023FB75814B1B6C03F08053002B83
:103F50000FD10023BB607D4B1B6C7C4A43F0805328
:103F600013647A4B1B6C03F08053BB60BB68012366
:103F7000FB75774B1B6803F48073002B18D1744BCF
:103F80001B68734A43F480731360FDF79DFB38612F
:103F900008E0FDF799FB02463B69D31A022B01D9D1
:103FA00003230CE16A4B1B6803F48073002BF0D0F1
:103FB0007B689B68012B06D1644B1B6F634A43F0FF
:103FC000010313671CE07B689B68052B0CD15F4BDA
:103FD0001B6F5E4A43F0040313675C4B1B6F5B4A25
:103FE00043F0010313670BE0584B1B6F574A23F054
:103FF00001031367554B1B6F544A23F004031367E7
:104000007B689B68002B15D0FDF75EFB38610AE0EA
:10401000FDF75AFB02463B69D31A41F288329342BC
:1040200001D90323CBE0494B1B6F03F00203002BA4
:10403000EED014E0FDF748FB38610AE0FDF744FBE1
:1040400002463B69D31A41F28832934201D90323D5
:10405000B5E03E4B1B6F03F00203002BEED1FB7D5E
:10406000012B05D1394B1B6C384A23F08053136464
:104070007B689B69002B00F0A180344B9B6803F0A8
:104080000C03082B5CD07B689B69022B41D1314B20
:1040900000221A60FDF718FB386108E0FDF714FBF9
:1040A00002463B69D31A022B01D9032387E0274B31
:1040B0001B6803F00073002BF0D17B68DA697B6822
:1040C0001B6A1A437B685B6A9B011A437B689B6A85
:1040D0005B08013B1B041A437B68DB6A1B061B4918
:1040E00013434B601B4B01221A60FDF7EDFA386158
:1040F00008E0FDF7E9FA02463B69D31A022B01D921
:1041000003235CE0114B1B6803F00073002BF0D01D
:1041100054E0104B00221A60FDF7D6FA386108E02F
:10412000FDF7D2FA02463B69D31A022B01D90323C9
:1041300045E0064B1B6803F00073002BF0D13DE017
:104140007B689B69012B07D1012338E000380240CE
:1041500000700040600047421B4B5B68FB607B685F
:104160009B69012B28D0FB6803F480027B68DB6924
:104170009A4221D1FB6803F03F027B681B6A9A4296
:104180001AD1FA6847F6C07313407A68526A9201EE
:10419000934211D1FB6803F440327B689B6A5B0851
:1041A000013B1B049A4207D1FB6803F070627B68F5
:1041B000DB6A1B069A4201D0012300E00023184667
:1041C0001837BD4680BD00BF0038024080B584B0BE
:1041D00000AF786039607B68002B01D10123CCE00F
:1041E000684B1B6803F007033A689A420CD9654B89
:1041F0003A68D2B21A70634B1B6803F007033A683F
:104200009A4201D00123B8E07B681B6803F00203E7
:10421000002B20D07B681B6803F00403002B05D023
:10422000594B9B68584A43F4E05393607B681B6882
:1042300003F00803002B05D0534B9B68524A43F40C
:1042400060439360504B9B6823F0F0027B689B684F
:104250004D4913438B607B681B6803F00103002BFF
:1042600044D07B685B68012B07D1474B1B6803F484
:104270000033002B19D101237FE07B685B68022BA0
:1042800003D07B685B68032B07D13F4B1B6803F0AF
:104290000073002B09D101236FE03B4B1B6803F037
:1042A0000203002B01D1012367E0374B9B6823F009
:1042B00003027B685B68344913438B60FDF704FAA3
:1042C000F8600AE0FDF700FA0246FB68D31A41F2F3
:1042D0008832934201D903234FE02B4B9B6803F0B4
:1042E0000C027B685B689B009A42EBD1254B1B68F4
:1042F00003F007033A689A420CD2224B3A68D2B2D2
:104300001A70204B1B6803F007033A689A4201D0E9
:10431000012332E07B681B6803F00403002B08D004
:10432000194B9B6823F4E0527B68DB681649134302
:104330008B607B681B6803F00803002B09D0124BCD
:104340009B6823F460427B681B69DB000E491343C2
:104350008B6000F021F802460B4B9B681B0903F0B1
:104360000F030A49CB5C22FA03F3094A1360094B95
:104370001B681846FDF766F9002318461037BD463E
:1043800080BD00BF003C024000380240B8B10008C8
:1043900000000020640000202DE9B04F90B000AF75
:1043A00000237B630023FB6300233B630023BB6389
:1043B000594B9B6803F00C03082B0DD0082B00F21F
:1043C000A280002B02D0042B03D09CE0534BBB6394
:1043D0009CE0534BBB6399E04F4B5B6803F03F039A
:1043E0007B634D4B5B6803F48003002B27D04A4B63
:1043F0005B689B0900223B627A623B6AC3F3080058
:104400000021474B03FB01F2002300FB03F313449D
:10441000434AA0FB0221F962BA62FA6A1344FB62C2
:104420007B6B0022BB61FA61D7E90623D7E90A0159
:10443000FBF71EFF02460B461346FB6355E0364B67
:104440005B689B0900223B617A613B69C3F3080A00
:104450004FF0000B52465B464FF000004FF000015A
:10446000590141EAD261500102460B46B2EB0A08FB
:1044700063EB0B094FF000024FF000034FEA891382
:1044800043EA98634FEA8812B2EB080463EB09052C
:104490004FF000024FF00003EB0043EA5473E200D8
:1044A00014461D4614EB0A033B6045EB0B037B608F
:1044B0004FF000024FF00003D7E9004529468B0278
:1044C00020462946044643EA945301468A02104690
:1044D00019467B6B0022BB60FA60D7E90223FBF729
:1044E000C7FE02460B461346FB630B4B5B681B0C77
:1044F00003F0030301335B003B63FA6B3B6BB2FBDE
:10450000F3F3BB6302E0054BBB6300BFBB6B184614
:104510004037BD46BDE8B08F003802400024F400AB
:1045200040787D0180B400AF024B1B681846BD4641
:1045300080BC70470000002080B500AFFFF7F2FF9D
:104540000246054B9B689B0A03F007030349CB5CBB
:1045500022FA03F3184680BD00380240C8B10008B3
:1045600080B500AFFFF7DEFF0246054B9B685B0B93
:1045700003F007030349CB5C22FA03F3184680BD1E
:1045800000380240C8B1000880B582B000AF786042
:104590007B68002B01D1012341E07B6893F83D301B
:1045A000DBB2002B06D17B68002283F83C207868C0
:1045B000FCF79CFD7B68022283F83D207B681A682B
:1045C0007B6804331946104600F0CCFA7B68012260
:1045D00083F846207B68012283F83E207B68012215
:1045E00083F83F207B68012283F840207B6801220A
:1045F00083F841207B68012283F842207B680122F6
:1046000083F843207B68012283F844207B680122E1
:1046100083F845207B68012283F83D20002318465B
:104620000837BD4680BD000080B584B000AF78601B
:1046300039600023FB733B68002B09D17B6893F83A
:104640003E30DBB2012B14BF01230023DBB222E09A
:104650003B68042B09D17B6893F83F30DBB2012B18
:1046600014BF01230023DBB215E03B68082B09D1FE
:104670007B6893F84030DBB2012B14BF0123002389
:10468000DBB208E07B6893F84130DBB2012B14BF4A
:1046900001230023DBB2002B01D00123C7E03B68DC
:1046A000002B04D17B68022283F83E2013E03B6894
:1046B000042B04D17B68022283F83F200BE03B6887
:1046C000082B04D17B68022283F8402003E07B683A
:1046D000022283F841203B680C2B41D801A252F8FA
:1046E00023F000BF19470008614700086147000830
:1046F000614700082B470008614700086147000830
:10470000614700083D47000861470008614700080D
:10471000614700084F4700087B681B68DA687B68C0
:104720001B6842F00202DA601DE07B681B68DA68F1
:104730007B681B6842F00402DA6014E07B681B6847
:10474000DA687B681B6842F00802DA600BE07B687D
:104750001B68DA687B681B6842F01002DA6002E0CE
:104760000123FB7300BFFB7B002B5FD17B681B68C1
:1047700001223968184600F03FFC7B681B682E4A0E
:10478000934204D07B681B682C4A934201D10123D9
:1047900000E00023002B07D07B681B685A6C7B6805
:1047A0001B6842F400425A647B681B68224A9342A9
:1047B00022D07B681B68B3F1804F1DD07B681B68DB
:1047C0001F4A934218D07B681B681E4A934213D03D
:1047D0007B681B681C4A93420ED07B681B68174A93
:1047E000934209D07B681B68184A934204D07B68C7
:1047F0001B68174A934211D17B681B689B6803F0C2
:104800000703BB60BB68062B10D07B681B681A6867
:104810007B681B6842F001021A6007E07B681B6836
:104820001A687B681B6842F001021A60FB7B18461D
:104830001037BD4680BD00BF0000014000040140AC
:104840000004004000080040000C0040004001400F
:104850000018004080B582B000AF78607B681B68AC
:104860001B6903F00203022B22D17B681B68DB6803
:1048700003F00203022B1BD17B681B686FF002025E
:104880001A617B6801221A777B681B689B6903F0B9
:104890000303002B03D0786800F049F905E078683D
:1048A000FCF716FC786800F04BF97B6800221A7759
:1048B0007B681B681B6903F00403042B22D17B680F
:1048C0001B68DB6803F00403042B1BD17B681B68A7
:1048D0006FF004021A617B6802221A777B681B68FA
:1048E0009B6903F44073002B03D0786800F01FF934
:1048F00005E07868FCF7ECFB786800F021F97B684C
:1049000000221A777B681B681B6903F00803082BD9
:1049100022D17B681B68DB6803F00803082B1BD1DE
:104920007B681B686FF008021A617B6804221A77A3
:104930007B681B68DB6903F00303002B03D07868F6
:1049400000F0F5F805E07868FCF7C2FB786800F045
:10495000F7F87B6800221A777B681B681B6903F0F5
:104960001003102B22D17B681B68DB6803F0100357
:10497000102B1BD17B681B686FF010021A617B68DB
:1049800008221A777B681B68DB6903F44073002BED
:1049900003D0786800F0CBF805E07868FCF798FB66
:1049A000786800F0CDF87B6800221A777B681B6876
:1049B0001B6903F00103012B0ED17B681B68DB68C8
:1049C00003F00103012B07D17B681B686FF0010224
:1049D0001A61786800F0A2F87B681B681B6903F015
:1049E0008003802B0ED17B681B68DB6803F080039B
:1049F000802B07D17B681B686FF080021A61786892
:104A000000F027FB7B681B681B6903F04003402B09
:104A10000ED17B681B68DB6803F04003402B07D195
:104A20007B681B686FF040021A61786800F091F8AB
:104A30007B681B681B6903F02003202B0ED17B6869
:104A40001B68DB6803F02003202B07D17B681B6801
:104A50006FF020021A61786800F0F2FA00BF0837A0
:104A6000BD4680BD80B586B000AFF860B9607A60A1
:104A70000023FB75FB6893F83C30012B01D1022326
:104A800048E0FB68012283F83C207B680C2B39D876
:104A900001A252F823F000BFCD4A0008054B0008E0
:104AA000054B0008054B0008DB4A0008054B0008D1
:104AB000054B0008054B0008E94A0008054B0008B3
:104AC000054B0008054B0008F74A0008FB681B6807
:104AD000B968184600F0E4F817E0FB681B68B9688D
:104AE000184600F04DF910E0FB681B68B9681846DD
:104AF00000F0BAF909E0FB681B68B968184600F0D5
:104B000027FA02E00123FB7500BFFB68002283F84F
:104B10003C20FB7D18461837BD4680BD80B483B06D
:104B200000AF786000BF0C37BD4680BC704780B4D2
:104B300083B000AF786000BF0C37BD4680BC7047C3
:104B400080B483B000AF786000BF0C37BD4680BC36
:104B5000704780B483B000AF786000BF0C37BD46AB
:104B600080BC704780B485B000AF786039607B68E6
:104B70001B68FB607B683F4A934213D07B68B3F1AC
:104B8000804F0FD07B683C4A93420BD07B683B4AF6
:104B9000934207D07B683A4A934203D07B68394AF4
:104BA000934208D1FB6823F07003FB603B685B68AD
:104BB000FA681343FB607B682E4A93422BD07B68D4
:104BC000B3F1804F27D07B682B4A934223D07B6878
:104BD0002A4A93421FD07B68294A93421BD07B68A4
:104BE000284A934217D07B68274A934213D07B68A8
:104BF000264A93420FD07B68254A93420BD07B68AC
:104C0000244A934207D07B68234A934203D07B68AF
:104C1000224A934208D1FB6823F44073FB603B684F
:104C2000DB68FA681343FB60FB6823F080023B6893
:104C30005B691343FB607B68FA681A603B689A689B
:104C40007B68DA623B681A687B689A627B68094A0B
:104C5000934203D07B680B4A934203D13B681A69A5
:104C60007B681A637B6801225A6100BF1437BD4616
:104C700080BC704700000140000400400008004074
:104C8000000C00400004014000400140004401408D
:104C90000048014000180040001C00400020004077
:104CA00080B487B000AF786039607B681B6A23F0FE
:104CB00001027B681A627B681B6A7B617B685B68A8
:104CC0003B617B689B69FB60FB6823F07003FB60C2
:104CD000FB6823F00303FB603B681B68FA6813431F
:104CE000FB607B6923F002037B613B689B687A6908
:104CF00013437B617B68204A934203D07B681F4A41
:104D000093420CD17B6923F008037B613B68DB682D
:104D10007A6913437B617B6923F004037B617B68C1
:104D2000154A934203D07B68144A934211D13B69E0
:104D300023F480733B613B6923F400733B613B6860
:104D40005B693A6913433B613B689B693A6913436A
:104D50003B617B683A695A607B68FA689A613B6894
:104D60005A687B685A637B687A691A6200BF1C378D
:104D7000BD4680BC704700BF0000014000040140F8
:104D800080B487B000AF786039607B681B6A23F01D
:104D900010027B681A627B681B6A7B617B685B68B8
:104DA0003B617B689B69FB60FB6823F4E043FB602D
:104DB000FB6823F44073FB603B681B681B02FA68C6
:104DC0001343FB607B6923F020037B613B689B6896
:104DD0001B017A6913437B617B68214A934203D0AC
:104DE0007B68204A93420DD17B6923F080037B616D
:104DF0003B68DB681B017A6913437B617B6923F0A5
:104E000040037B617B68164A934203D07B68154A56
:104E1000934213D13B6923F480633B613B6923F4E4
:104E200000633B613B685B699B003A6913433B61EC
:104E30003B689B699B003A6913433B617B683A6915
:104E40005A607B68FA689A613B685A687B689A6323
:104E50007B687A691A6200BF1C37BD4680BC704708
:104E6000000001400004014080B487B000AF7860CA
:104E700039607B681B6A23F480727B681A627B68E6
:104E80001B6A7B617B685B683B617B68DB69FB60FD
:104E9000FB6823F07003FB60FB6823F00303FB60F7
:104EA0003B681B68FA681343FB607B6923F400735B
:104EB0007B613B689B681B027A6913437B617B685B
:104EC000214A934203D07B68204A93420DD17B69EB
:104ED00023F400637B613B68DB681B027A69134340
:104EE0007B617B6923F480637B617B68164A934214
:104EF00003D07B68154A934213D13B6923F4805356
:104F00003B613B6923F400533B613B685B691B01D8
:104F10003A6913433B613B689B691B013A69134340
:104F20003B617B683A695A607B68FA68DA613B6882
:104F30005A687B68DA637B687A691A6200BF1C373B
:104F4000BD4680BC704700BF000001400004014026
:104F500080B487B000AF786039607B681B6A23F447
:104F600080527B681A627B681B6A3B617B685B6866
:104F70007B617B68DB69FB60FB6823F4E043FB60DB
:104F8000FB6823F44073FB603B681B681B02FA68F4
:104F90001343FB603B6923F400533B613B689B6810
:104FA0001B033A6913433B617B68114A934203D068
:104FB0007B68104A934209D17B6923F480437B616B
:104FC0003B685B699B017A6913437B617B687A6903
:104FD0005A607B68FA68DA613B685A687B681A64D1
:104FE0007B683A691A6200BF1C37BD4680BC7047B7
:104FF000000001400004014080B487B000AFF860B9
:10500000B9607A60BB6803F01F03012202FA03F360
:105010007B61FB681A6A7B69DB431A40FB681A6292
:10502000FB681A6ABB6803F01F03796801FA03F38F
:105030001A43FB681A6200BF1C37BD4680BC70472C
:1050400080B483B000AF786000BF0C37BD4680BC31
:10505000704780B483B000AF786000BF0C37BD46A6
:1050600080BC704780B582B000AF78607B68002B51
:1050700001D101233FE07B6893F83D30DBB2002B88
:1050800006D17B68002283F83C207868FCF7F8F9A9
:105090007B68242283F83D207B681B68DA687B6884
:1050A0001B6822F40052DA60786800F0FFFF7B682A
:1050B0001B681A697B681B6822F490421A617B683E
:1050C0001B685A697B681B6822F02A025A617B6858
:1050D0001B68DA687B681B6842F40052DA607B6800
:1050E00000221A647B68202283F83D207B682022FE
:1050F00083F83E20002318460837BD4680BD80B5A2
:1051000082B000AF78607B68002B01D1012321E0E1
:105110007B68242283F83D207B681B68DA687B6803
:105120001B6822F40052DA607868FCF72DFA7B687D
:1051300000221A647B68002283F83D207B680022ED
:1051400083F83E207B6800221A637B68002283F884
:105150003C20002318460837BD4680BD80B58AB084
:1051600002AFF860B9603B601346FB8000237B61AF
:10517000FB6893F83D30DBB2202B7CD1BB68002B61
:1051800002D0FB88002B01D1012375E0FB6893F866
:105190003C30012B01D102236EE0FB68012283F831
:1051A0003C20FB6800221A64FB68212283F83D2022
:1051B000FCF78AFA7861FB68FA889A84FB68FA88B7
:1051C000DA84FB689B68B3F5805F08D1FB681B69D4
:1051D000002B04D10023FB61BB68BB6103E0BB680B
:1051E000FB610023BB61FB68002283F83C202AE0BE
:1051F0003B6800937B6900228021F86800F04CFC3A
:105200000346002B01D0032336E0FB69002B0BD1B2
:10521000BB691B881A46FB681B68C2F308025A6008
:10522000BB690233BB6107E0FB691A78FB681B6846
:105230005A60FB690133FB61FB68DB8C9BB2013B6D
:105240009AB2FB68DA84FB68DB8C9BB2002BCFD16F
:105250003B6800937B6900224021F86800F01CFC49
:105260000346002B01D0032306E0FB68202283F8CD
:105270003D20002300E0022318462037BD4680BDB4
:1052800080B584B000AFF860B9601346FB80FB685E
:1052900093F83E30DBB2202B1DD1BB68002B02D02F
:1052A000FB88002B01D1012316E0FB6893F83C300A
:1052B000012B01D102230FE0FB68012283F83C207F
:1052C000FB6800221A63FB881A46B968F86800F088
:1052D00051FC034600E0022318461037BD4680BD4E
:1052E00080B584B000AFF860B9601346FB80FB68FE
:1052F00093F83E30DBB2202B1DD1BB68002B02D0CF
:10530000FB88002B01D1012316E0FB6893F83C30A9
:10531000012B01D102230FE0FB68012283F83C201E
:10532000FB6800221A63FB881A46B968F86800F027
:105330005FFC034600E0022318461037BD4680BDDF
:1053400080B5BAB000AF78607B681B681B68C7F88F
:10535000E4307B681B68DB68C7F8E0307B681B685B
:105360005B69C7F8DC300023C7F8D8300023C7F8E2
:10537000D430D7F8E43003F00F03C7F8D830D7F8AB
:10538000D830002B0FD1D7F8E43003F02003002BE6
:1053900009D0D7F8E03003F02003002B03D0786861
:1053A00000F0C8FD56E2D7F8D830002B00F0DE80C0
:1053B000D7F8DC3003F00103002B06D1D7F8E0303A
:1053C00003F49073002B00F0D180D7F8E43003F0A1
:1053D0000103002B0BD0D7F8E03003F48073002BCF
:1053E00005D07B681B6C43F001027B681A64D7F818
:1053F000E43003F00403002B0BD0D7F8DC3003F0CB
:105400000103002B05D07B681B6C43F002027B6814
:105410001A64D7F8E43003F00203002B0BD0D7F85E
:10542000DC3003F00103002B05D07B681B6C43F0DC
:1054300004027B681A64D7F8E43003F00803002BF9
:1054400011D0D7F8E03003F02003002B05D1D7F8B6
:10545000DC3003F00103002B05D07B681B6C43F0AC
:1054600008027B681A647B681B6C002B00F0ED81DE
:10547000D7F8E43003F02003002B08D0D7F8E03051
:1054800003F02003002B02D0786800F053FD7B6806
:105490001B685B6903F04003402B0CBF0123002312
:1054A000DBB2C7F8D4307B681B6C03F00803002B19
:1054B00003D1D7F8D430002B4FD0786800F05DFCD2
:1054C0007B681B685B6903F04003402B41D17B681C
:1054D0001B681433C7F89C30D7F89C3053E8003F62
:1054E000C7F89830D7F8983023F04003C7F8D03089
:1054F0007B681B681433D7F8D020C7F8A820C7F8FA
:10550000A430D7F8A410D7F8A82041E80023C7F8A2
:10551000A030D7F8A030002BD9D17B689B6B002B33
:1055200013D07B689B6B7D4A1A657B689B6B184622
:10553000FCF70CFC0346002B16D07B689B6B1B6DA5
:105540007A68926B104698470EE0786800F098F9F8
:105550000AE0786800F094F906E0786800F090F9C5
:105560007B6800221A6470E100BF6EE17B681B6BF0
:10557000012B40F04A81D7F8E43003F01003002BF0
:1055800000F04381D7F8E03003F01003002B00F067
:105590003C810023BB607B681B681B68BB607B6829
:1055A0001B685B68BB60BB687B681B685B6903F05A
:1055B0004003402B40F0B4807B689B6B1B685B68AA
:1055C000A7F8BE30B7F8BE30002B00F040817B68F2
:1055D0009B8DB7F8BE209A4280F039817B68B7F87E
:1055E000BE20DA857B689B6BDB69B3F5807F00F0BA
:1055F00088807B681B680C33C7F88830D7F8883000
:1056000053E8003FC7F88430D7F8843023F4807320
:10561000C7F8B8307B681B680C33D7F8B820C7F8D8
:105620009420C7F89030D7F89010D7F8942041E82C
:105630000023C7F88C30D7F88C30002BD9D17B6889
:105640001B6814337B677B6F53E8003F3B673B6FFE
:1056500023F00103C7F8B4307B681B681433D7F814
:10566000B420C7F88020FB67F96FD7F8802041E8A5
:105670000023BB67BB6F002BE1D17B681B68143331
:105680003B663B6E53E8003FFB65FB6D23F0400338
:10569000C7F8B0307B681B681433D7F8B020FA66BF
:1056A000BB66B96EFA6E41E800237B667B6E002B09
:1056B000E3D17B68202283F83E207B6800221A63B6
:1056C0007B681B680C33FB64FB6C53E8003FBB64D6
:1056D000BB6C23F01003C7F8AC307B681B680C333D
:1056E000D7F8AC20BA657B65796DBA6D41E80023C7
:1056F0003B653B6D002BE3D17B689B6B1846FCF749
:10570000B5FA7B689A8D7B68DB8D9BB2D31A9BB20E
:105710001946786800F0BDF899E000BF3F5E0008C8
:105720007B689A8D7B68DB8D9BB2D31AA7F8CE304D
:105730007B68DB8D9BB2002B00F08B80B7F8CE30FE
:10574000002B00F086807B681B680C33BB63BB6B4F
:1057500053E8003F7B637B6B23F49073C7F8C8303A
:105760007B681B680C33D7F8C8207A643B64396CBB
:105770007A6C41E80023FB63FB6B002BE3D17B6871
:105780001B6814337B627B6A53E8003F3B623B6AD1
:1057900023F00103C7F8C4307B681B681433D7F8C3
:1057A000C4203A63FB62F96A3A6B41E80023BB62AA
:1057B000BB6A002BE3D17B68202283F83E207B6804
:1057C00000221A637B681B680C333B613B6953E81A
:1057D000003FFB60FB6823F01003C7F8C0307B6814
:1057E0001B680C33D7F8C020FA61BB61B969FA694C
:1057F00041E800237B617B69002BE3D1B7F8CE3011
:105800001946786800F045F823E0D7F8E43003F053
:105810008003002B09D0D7F8E03003F08003002B81
:1058200003D0786800F01FFB14E0D7F8E43003F0F1
:105830004003002B0ED0D7F8E03003F04003002BDC
:1058400008D0786800F05EFB04E000BF02E000BF13
:1058500000E000BFE837BD4680BD00BF80B483B024
:1058600000AF786000BF0C37BD4680BC704780B485
:1058700083B000AF786000BF0C37BD4680BC704776
:1058800080B483B000AF786000BF0C37BD4680BCE9
:10589000704780B483B000AF78600B467B8000BF58
:1058A0000C37BD4680BC704780B59CB000AF7860B7
:1058B0007B689B6BFB667B681B681B6803F48073CB
:1058C000002B72D1FB6E0022DA85FB6E1B680C3355
:1058D000FB64FB6C53E8003FBB64BB6C23F4807338
:1058E000BB66FB6E1B680C33BA6EBA657B65796D5F
:1058F000BA6D41E800233B653B6D002BE5D1FB6EA3
:105900001B681433BB63BB6B53E8003F7B637B6B4B
:1059100023F001037B66FB6E1B6814337A6E7A6496
:105920003B64396C7A6C41E80023FB63FB6B002B12
:10593000E5D1FB6E1B6814337B627B6A53E8003F42
:105940003B623B6A23F040033B66FB6E1B681433EB
:105950003A6E3A63FB62F96A3A6B41E80023BB6234
:10596000BB6A002BE5D1FB6E202283F83E20FB6E44
:105970001B6B012B19D1FB6E1B680C333B613B6920
:1059800053E8003FFB60FB6823F01003FB65FB6EF0
:105990001B680C33FA6DFA61BB61B969FA6941E8B9
:1059A00000237B617B69002BE5D1FB6E1B6B012B18
:1059B00006D1FB6E9B8D1946F86EFFF76AFF02E079
:1059C000F86EFBF73BFD00BF7037BD4680BD80B56C
:1059D00084B000AF78607B689B6BFB60FB681B6BDF
:1059E000012B08D1FB689B8D5B089BB21946F868B8
:1059F000FFF74FFF02E0F868FFF739FF00BF1037ED
:105A0000BD4680BD80B584B000AF78600023FB60E8
:105A10007B689B6BBB60BB681B685B6903F08003A2
:105A2000802B0CBF01230023DBB2FB60BB6893F823
:105A30003D30DBB2212B08D1FB68002B05D0BB68C1
:105A40000022DA84B86800F071F9BB681B685B69F2
:105A500003F04003402B0CBF01230023DBB2FB60AB
:105A6000BB6893F83E30DBB2222B08D1FB68002BD9
:105A700005D0BB680022DA85B86800F07EF9BB6803
:105A80001B6C43F01002BB681A64B868FFF7F8FE9D
:105A900000BF1037BD4680BD80B590B000AFF86044
:105AA000B9603B601346FB7150E0BB6CB3F1FF3F44
:105AB0004CD0BB6C002B07D0FBF706FE02463B68C0
:105AC000D31ABA6C9A4241D2FB681B680C33BB6292
:105AD000BB6A53E8003F7B627B6A23F4D073FB63AD
