:020000040800F2
:1000000000000220890700082707000833070008BE
:10001000390700083F0700084507000800000000F6
:100020000000000000000000000000004B07000876
:100030005707000800000000630700086F0700086A
:10004000D9070008D9070008D9070008D907000810
:10005000D9070008D9070008D9070008D907000800
:10006000D9070008D9070008D9070008D9070008F0
:10007000D9070008D9070008D9070008D9070008E0
:10008000D9070008D9070008D9070008D9070008D0
:10009000D9070008D9070008D9070008D9070008C0
:1000A000D9070008D9070008D9070008D9070008B0
:1000B000D9070008190F0008D9070008D907000858
:1000C000D9070008D9070008D9070008D907000890
:1000D000D9070008D9070008D9070008D907000880
:1000E000D9070008D9070008D9070008D907000870
:1000F000D9070008D9070008D9070008D907000860
:10010000D9070008D9070008D9070008D90700084F
:10011000D9070008D9070008D9070008D90700083F
:10012000D9070008D9070008D9070008D90700082F
:10013000D9070008D9070008D9070008D90700081F
:10014000D9070008D9070008D9070008D90700080F
:10015000D9070008D9070008D9070008D9070008FF
:10016000D9070008D9070008D9070008D9070008EF
:10017000D9070008D9070008D907000800000000C7
:08018000D9070008D9070008A7
:1001900010B5054C237833B9044B13B10448AFF3C1
:1001A00000800123237010BDD0000020000000005B
:1001B000D448000808B5034B1BB103490348AFF30B
:1001C000008008BD00000000D4000020D4480008D2
:1001D00001F0FF01102A2BDB10F0070F08D010F8F8
:1001E000013B013A8B422DD010F0070F42B3F6D1FC
:1001F000F0B441EA012141EA014122F007047FF015
:1002000000070023F0E80256083C85EA010586EA6B
:10021000010685FA47F5A3FA87F586FA47F6A5FAA7
:1002200087F68EB9EED1F0BC01F0FF0102F00702B3
:1002300032B110F8013B013A83EA010313B1F8D15E
:100240000020704701387047002D06BF354603383F
:10025000073815F0010F07D1013015F4807F02BF78
:10026000013015F4C03F0130F0BC0138704700BFC9
:1002700053B94AB9002908BF00281CBF4FF0FF310D
:100280004FF0FF3000F074B9ADF1080C6DE904CE09
:1002900000F006F8DDF804E0DDE9022304B0704761
:1002A0002DE9F047089E0D4604468846002B4DD1A7
:1002B0008A42944668D9B2FA82F252B101FA02F344
:1002C000C2F1200120FA01F10CFA02FC41EA030814
:1002D00094404FEA1C45210CB8FBF5FE1FFA8CF741
:1002E00005FB1E8341EA03430EFB07F199420BD93C
:1002F0001CEB03030EF1FF3080F01E81994240F2A7
:100300001B81AEF1020E63445B1AA4B2B3FBF5F09D
:1003100005FB103344EA034400FB07F7A7420AD960
:100320001CEB040400F1FF3380F00881A74240F287
:10033000058164440238E41B40EA0E4000211EB1EE
:10034000D4400023C6E90043BDE8F0878B4208D9BA
:10035000002E00F0EE800021C6E900050846BDE849
:10036000F087B3FA83F100294AD1AB4202D382422B
:1003700000F2F980841A65EB030301209846002EF1
:10038000E2D0C6E90048DFE702B9FFDEB2FA82F246
:10039000002A40F09180A1EB0C054FEA1C471FFAA0
:1003A0008CFE0121B5FBF7F307FB1350250C45EA42
:1003B00000450EFB03F0A84208D91CEB050503F12C
:1003C000FF3802D2A84200F2CB8043462D1AA4B2D5
:1003D000B5FBF7F007FB105544EA05440EFB00FEA1
:1003E000A64508D91CEB040400F1FF3502D2A6454E
:1003F00000F2BB802846A4EB0E0440EA03409EE7CF
:10040000C1F120078B4022FA07FC4CEA030C20FACA
:1004100007F405FA01F31C43FD404FEA1C4900FABA
:1004200001F3B5FBF9F8200C1FFA8CFE09FB1855F7
:1004300040EA054508FB0EF0A84202FA01F20BD98A
:100440001CEB050508F1FF3A80F08880A84240F2D5
:100450008580A8F1020865442D1AA4B2B5FBF9F015
:1004600009FB105544EA054500FB0EFEAE4508D9D0
:100470001CEB050500F1FF346CD2AE456AD9023899
:10048000654440EA0840A0FB0294A5EB0E05A54296
:10049000C846A64656D353D05EB1B3EB080265EB0F
:1004A0000E0505FA07F722FA01F3CD401F43C6E90E
:1004B00000750021BDE8F087C2F1200320FA03F1A6
:1004C0000CFA02FC25FA03F395400D434FEA1C4752
:1004D0001FFA8CFEB3FBF7F107FB11302B0C43EA3C
:1004E000004301FB0EF0984204FA02F408D91CEB19
:1004F000030301F1FF382FD298422DD9023963440A
:100500001B1AADB2B3FBF7F007FB103345EA034506
:1005100000FB0EF3AB4208D91CEB050500F1FF38D8
:1005200016D2AB4214D902386544ED1A40EA0141B3
:1005300038E73146304607E78646E5E61846FAE6EC
:100540004B45A9D2B9EB020864EB0C0E0138A3E7C6
:100550004046EAE7204694E74146D1E7D0467BE7AC
:10056000023B654432E7084609E76444023842E743
:10057000704700BF80B582B000AF7860022000F005
:1005800057FA00BF0837BD4680BD000080B584B073
:1005900002AF4FF47A71002000F0F0FB002000F071
:1005A00023FC00F097FB0346FB80FB88D8B20023B6
:1005B00000930C4B02224FF4FA7100F01FFBFB88F2
:1005C000DBB2184600F05CFB4FF4E131002000F094
:1005D00029FD0549002000F04DFE00BF0837BD464B
:1005E00080BD00BF75050008EC48000880B582B0EA
:1005F00000AF00F023F8786000F020F802467B6836
:10060000D31AB3F5FA7F02D300F018F8786000200F
:1006100000F0B0FD0346002BEED0002000F008FEF5
:1006200003461946002000F025FEE5E780B500AF3F
:1006300000F0DCFE00F00AF800BF80BD80B500AF1E
:1006400000F03EFF0346184680BD000080B594B020
:1006500000AF0023BB602F4B1B6C2E4A43F080532E
:1006600013642C4B1B6C03F08053BB60BB680023EE
:100670007B60294B1B68284A43F480431360264B58
:100680001B6803F480437B607B680123FB604FF4AD
:1006900080333B6102237B624FF48003BB621923EA
:1006A000FB624FF4A8733B6302237B630723BB63A6
:1006B00007F10C03184601F0D5FB0346002B01D0CF
:1006C00000F02EF80F23FB6302233B6400237B64BE
:1006D0004FF4A053BB644FF48053FB6407F13C0319
:1006E0000521184601F036FE0346002B01D000F02C
:1006F00017F800F0EFFE034641F20102934205D1E4
:10070000064B1B68054A43F48073136000BF5037E3
:10071000BD4680BD0038024000700040003C0240F1
:1007200080B400AFFEE780B400AF00BFBD4680BC20
:10073000704780B400AFFEE780B400AFFEE780B43E
:1007400000AFFEE780B400AFFEE780B400AF00BFAB
:10075000BD4680BC704780B400AF00BFBD4680BCC2
:10076000704780B400AF00BFBD4680BC704780B505
:1007700000AF00F093FE00BF80BD80B400AF00BFAB
:10078000BD4680BC70470000DFF834D00D480E49EC
:100790000E4A002302E0D458C4500433C4188C42DB
:1007A000F9D30B4A0B4C002301E013600432A24240
:1007B000FBD3FFF7E2FF03F0D5FB03F0C3FB704769
:1007C0000000022000000020D00000206049000846
:1007D000D0000020D4040020FEE780B487B000AF32
:1007E000F860B9607A600123FB75FB6800221A602B
:1007F000FB6800225A60FB68BA68DA60FB687A68B6
:100800009A60FB68DB68002B04D1FB6800229A60C9
:100810000023FB75FB7D18461C37BD4680BC704726
:1008200080B489B000AFF860B9607A600123FB77CB
:10083000FB68DB68002B01D100232DE00023BB61A6
:1008400025E0FB685B683B61FB685B6801337B61AB
:10085000FB689B687A699A4201D100237B61FB683F
:100860001B687A699A420CD0FB68DA683B691A44C3
:10087000B968BB690B4412781A70FB687A695A60D0
:1008800002E00023FB7706E0BB690133BB61BA6974
:100890007B689A42D5D3FB7F18462437BD4680BC7F
:1008A000704780B485B000AF78600023FB607B6840
:1008B0009A687B681B681A447B685B68D31A7A68FD
:1008C0009268B3FBF2F101FB02F29B1AFB60FB683A
:1008D00018461437BD4680BC7047000080B582B012
:1008E00000AF0023FB7100233B60154B1B6B144AC8
:1008F00043F004031363124B1B6B03F004033B60D0
:100900003B68104B00225A600023FB7110E0FB791A
:100910000D4ADB0013449B881A460A4B1A600A4BA7
:100920009B690849184601F0D1F8FB790133FB7146
:10093000FB79022BEBD900BF00BF0837BD4680BD55
:1009400000380240EC0000200400002080B584B094
:1009500000AF0023FB730023BB60224B1B6B214ABB
:1009600043F0020313631F4B1B6B03F00203BB60D6
:10097000BB6800237B601B4B1B6B1A4A43F01003C0
:100980001363184B1B6B03F010037B607B68164BE3
:1009900001225A60144B00229A60134B0222DA6043
:1009A0000023FB7316E0FB7B104ADB0013449B889B
:1009B0001A460D4B1A60FB7B0C4A52F833300A4939
:1009C000184601F083F8FB7B184600F011F8FB7B1A
:1009D0000133FB73FB7B042BE5D900BF00BF10374D
:1009E000BD4680BD00380240000100201C000020F0
:1009F00080B582B000AF0346FB71FB79052B11D89F
:100A0000FB790A4A52F83300FB79084ADB001344A9
:100A10009988FB79054ADB001344DB791A4601F01B
:100A2000EFF900E000BF0837BD4680BD1C00002084
:100A300080B582B000AF0346FB71FB79052B0DD862
:100A4000FB79084A52F83320FB790649DB000B4456
:100A50009B881946104601F0EBF900E000BF08370B
:100A6000BD4680BD1C00002080B483B000AF1F4B8A
:100A70001B78012B01D1002333E00023FB7129E017
:100A8000FA791B4913469B0013449B000B44043323
:100A900000221A60FA79164913469B0013449B0002
:100AA0000B4400221A70FA79114913469B00134433
:100AB0009B000B44083300221A60FA790C49134654
:100AC0009B0013449B000B440C3300221A60FB79FB
:100AD0000133FB71FB79072BD2D9044B01221A7029
:100AE000012318460C37BD4680BC7047BC0100206E
:100AF0001C01002080B582B000AF3D4B1B68013364
:100B00003B4A13600023FB7163E0FA7939491346CD
:100B10009B0013449B000B441B78012B56D1FA79A0
:100B2000344913469B0013449B000B4404331B6859
:100B3000591E304813469B0013449B000344043362
:100B40001960FA792B4913469B0013449B000B4410
:100B500004331B68002B39D1FA79264913469B00D0
:100B600013449B000B4401331B78012B08D1FA7905
:100B7000204913469B0013449B000B4400221A702B
:100B8000F979FA791B480B469B000B449B00034400
:100B900008331968174813469B0013449B0003440D
:100BA00004331960FA79134913469B0013449B00E0
:100BB0000B440C331968FA790E4813469B00134412
:100BC0009B00034410331B6818468847FB790133A8
:100BD000FB71FB79072B06D8FB799AB2064B1B8871
:100BE0009BB29A4291D300BF0837BD4680BD00BF7B
:100BF000140100201C0100201801002080B485B0E1
:100C000000AFB9607B600346FB731346BB73FA7B8E
:100C10001A4913469B0013449B000B440133BA7BD3
:100C20001A70FA7B154913469B0013449B000B4432
:100C30000C337A681A60FA7B104913469B00134400
:100C40009B000B441033BA691A60FA7B0B491346B8
:100C50009B0013449B000B440433BA681A60FA7B70
:100C6000064913469B0013449B000B440833BA68A3
:100C70001A6000BF1437BD4680BC70471C010020BD
:100C800080B483B000AF0346FB71FB79072B1AD801
:100C9000F979FA790E480B469B000B449B000344FC
:100CA000083319680A4813469B0013449B00034409
:100CB00004331960FA79064913469B0013449B00DC
:100CC0000B4401221A7000BF0C37BD4680BC704730
:100CD0001C01002080B483B000AF094B1B889BB27D
:100CE000FB80074B1B889BB201339AB2044B1A80DE
:100CF000B7F9063018460C37BD4680BC704700BFB8
:100D00001801002080B400AF184B194AC3F8B8206E
:100D1000164B184A1A60184B1B685A08134BD3F825
:100D2000B830B2FBF3F3013B104A53600F4B002283
:100D30001A610E4B00229A600C4B00229A610B4BF9
:100D400000225A61094B0022C3F8BC20074B002245
:100D5000C3F8C020054B0022C3F8C420034B002277
:100D6000C3F8C82000BFBD4680BC7047C00100204A
:100D700040420F00000400400000002080B487B013
:100D800000AF03463960FB71FB79042B20D8FB7957
:100D9000124A12F833301A46CC2302FB03F3104AEE
:100DA00013443B613B69D3F8B8300E4AB2FBF3F30E
:100DB000FB603A68FB68B2FBF3F37B617B69002B55
:100DC00001D101237B617B695A1E3B69DA6000E037
:100DD00000BF1C37BD4680BC704700BF44000020E8
:100DE000C001002040420F0080B584B000AF034630
:100DF000FB710023FB60FB79042B45D8FB79244A67
:100E000012F833301A46CC2302FB03F3214A134471
:100E1000BB60FB791E4ADB0013445B78032B17D8B9
:100E200001A252F823F000BF390E00083F0E00085F
:100E3000450E00084B0E00080023FB6008E0042369
:100E4000FB6005E00823FB6002E00C23FB6000BFB1
:100E5000BB68184601F05CFCB868FB790C4ADB0003
:100E600013445B781A461346DB009B1A9B004833F9
:100E7000BA681344FA68194601F0B8FEBB68F9680D
:100E8000184601F095FC00E000BF1037BD4680BD5C
:100E900044000020C001002080B586B000AF78601B
:100EA0000023FB752CE0FB7D194A12F833301A46FB
:100EB000CC2302FB03F3174A13443B61FB7D144A26
:100EC000DB0013445B78FB607B681B7F1946FB7D6E
:100ED0000F4ADB0013445B6899420ED13A69FB6804
:100EE0002E339B0013445B68002B06D03A69FB68E5
:100EF0002E339B0013445B689847FB7D0133FB75E1
:100F0000FB7D032BCFD900BF00BF1837BD4680BD86
:100F100044000020C001002080B500AF024801F06D
:100F20005DFD00BF80BD00BFC001002080B582B064
:100F300000AF78607868FFF7AFFFFFF7DBFD00BF19
:100F40000837BD4680BD000080B584B000AF786032
:100F50007B681A680E4B1B689A4215D10023FB6010
:100F60000C4B1B6C0B4A43F002031364094B1B6CC4
:100F700003F00203FB60FB6801220F211D2000F03B
:100F80008CFB1D2000F0A5FB00BF1037BD4680BDC7
:100F9000C00100200038024080B483B000AF0023BD
:100FA000FB7125E0FB791D4AD02101FB03F31344BB
:100FB00000221A70FB79194AD02101FB03F3134474
:100FC000083300221A70FB79144AD02101FB03F385
:100FD00013440A3300221A70FB79104AD02101FB16
:100FE00003F31344093300221A70FB790133FB71B8
:100FF000FB79002BD6D000233B60094B5B6C084A81
:1010000043F010035364064B5B6C03F010033B602A
:101010003B6800BF0C37BD4680BC7047EC02002027
:101020000038024080B584B000AF03463960FB71E0
:101030000123FB73FB79012B01D9002350E0FB79DD
:10104000002B4CD1FB79D02202FB03F3264A134438
:10105000BB60BB683A685A60BB6801221A70BB6803
:1010600000221A72BB6802229A72BB6802225A726C
:10107000BB681E4AC3F88C20BB683A68C3F890204E
:10108000BB680022C3F89420BB680022C3F89820F4
:10109000BB680022C3F89C20BB680C22C3F8A020C8
:1010A000BB680022C3F8A420BB680022C3F8A820B4
:1010B000BB681C33FF220E491846FFF78EFBBB6846
:1010C0008C33184602F092F80346002B02D000231E
:1010D000FB7303E0FB79184600F00CF800BFFB7BC4
:1010E00018461037BD4680BDEC02002000100140BC
:1010F000BC03002080B584B000AF0346FB71FB79D0
:10110000D02202FB03F3194A1344FB60FB79002B46
:1011100029D1FB689B7A012B08D1FB6803F18C0075
:10112000FB680B330122194602F03FF9FB689B7AFA
:10113000022B15D1FB688C33FF220D49184602F0B3
:1011400064F90346002B0DD1FB685A6AFB68DB6A21
:101150005B68D21AFB68DA61FB68DA69FB681A62BD
:1011600000BF00E000BF1037BD4680BDEC0200208C
:10117000BC03002080B584B000AF0346FB71FB794F
:10118000D02202FB03F3124A1344BB60BB689B7A74
:10119000022B0DD1BB685A6ABB68DB6A5B68D21A46
:1011A000BB68DA61BB681C331846FFF77AFBF8604E
:1011B000BB689B7A012B05D1BB681C331846FFF72F
:1011C00070FBF860FB6818461037BD4680BD00BF55
:1011D000EC02002080B586B000AF0346B9607A60AB
:1011E000FB7300237B61FB7BD02202FB03F30F4ADE
:1011F00013443B61FB7B002B12D13B699B7A022B92
:101200000DD13B6903F18C007B689AB26423B96805
:1012100002F039F80346002B01D17B687B6100BFE7
:101220007B6918461837BD4680BD00BFEC02002020
:1012300080B584B000AF0346FB710023FB72FB79DD
:10124000D02202FB03F30A4A1344FB60FB79002B14
:1012500008D1FB681C3307F10B0101221846FFF788
:10126000DFFA00BFFB7A18461037BD4680BD00BFCD
:10127000EC0200200EB480B5C7B000AF024607F5FF
:101280008C73A3F211131A700023C7F8143107F5F9
:101290009473C7F80C3107F10C00D7F80C31D7F86C
:1012A0002421FF2102F0AEFEC7F81001D7F810216B
:1012B00007F10C0107F58C73A3F211131B78184684
:1012C000FFF788FFC7F81401D7F81431184607F55F
:1012D0008E77BD46BDE8804003B0704780B588B0CA
:1012E00000AF78600023BB60314B1B6B304A43F08A
:1012F000010313632E4B1B6B03F00103BB60BB6840
:101300004FF40073FB6002233B6101237B610223E6
:10131000BB610723FB6107F10C031946254800F068
:10132000D5FB4FF48063FB600723FB6107F10C03DF
:101330001946204800F0CAFB1F4B204A1A601E4B7A
:101340004FF000625A601C4B00229A601A4B002238
:10135000DA60194B4FF480621A61174B00225A6110
:10136000154B00229A61144B4FF48072DA61124BD4
:1013700000221A62104B00225A620F4800F0C4F992
:101380000346002B01D000F01BF87B680A4A9A63E1
:10139000094A7B68936300220021252000F07DF933
:1013A000252000F096F900BF2037BD4680BD00BF64
:1013B00000380240000002408C02002040640240DD
:1013C00080B400AF72B600BFFEE780B500AFFFF794
:1013D0002DF9FFF7BBFAFFF781FAFFF793FCFFF750
:1013E00043FBFFF7D9FD00BF80BD000080B500AF13
:1013F0000E4B1B680D4A43F4007313600B4B1B68C4
:101400000A4A43F480631360084B1B68074A43F49D
:1014100080731360032000F035F90F2000F00EF800
:1014200000F006F80023184680BD00BF003C0240D3
:1014300080B400AF00BFBD4680BC704780B582B0AD
:1014400000AF7860124B1A68124B1B7819464FF4A4
:101450007A73B3FBF1F3B2FBF3F3184600F047F9EC
:101460000346002B01D001230EE07B680F2B0AD826
:10147000002279684FF0FF3000F00FF9064A7B68D0
:101480001360002300E0012318460837BD4680BDE5
:1014900000000020680000206400002080B400AF3D
:1014A000054B1B781A46054B1B681344034A13600F
:1014B00000BFBD4680BC704768000020BC0400200F
:1014C00080B400AF024B1B681846BD4680BC704715
:1014D000BC04002080B400AF034B1B681B0C1846F3
:1014E000BD4680BC704700BF002004E080B485B0DA
:1014F00000AF78607B6803F00703FB600C4BDB6890
:10150000BB60BA684FF6FF031340BB60FB681A026A
:10151000BB68134343F0BF6343F40033BB60044A2A
:10152000BB68D36000BF1437BD4680BC704700BFA6
:1015300000ED00E080B400AF044BDB681B0A03F051
:1015400007031846BD4680BC704700BF00ED00E0B1
:1015500080B483B000AF0346FB7197F90730002BCE
:101560000BDBFB7903F01F02064997F907305B0993
:10157000012000FA02F241F8232000BF0C37BD46DB
:1015800080BC704700E100E080B483B000AF034648
:101590003960FB7197F90730002B0ADB3B68DAB240
:1015A0000C4997F907301201D2B20B4483F800239B
:1015B0000AE03B68DAB20849FB7903F00F03043B09
:1015C0001201D2B20B441A7600BF0C37BD4680BC64
:1015D000704700BF00E100E000ED00E080B489B09A
:1015E00000AFF860B9607A60FB6803F00703FB6145
:1015F000FB69C3F10703042B28BF0423BB61FB690C
:101600000433062B02D9FB69033B00E000237B6116
:101610004FF0FF32BB6902FA03F3DA43BB681A40AA
:101620007B699A404FF0FF317B6901FA03F3D9439C
:101630007B680B40134318462437BD4680BC704777
:1016400080B582B000AF78607B68013BB3F1807FEA
:1016500001D301230FE00A4A7B68013B53600F214D
:101660004FF0FF30FFF790FF054B00229A60044BCC
:1016700007221A60002318460837BD4680BD00BF08
:1016800010E000E080B582B000AF78607868FFF7C6
:101690002DFF00BF0837BD4680BD80B586B000AFC6
:1016A0000346B9607A60FB7300237B61FFF742FF5A
:1016B00078617A68B9687869FFF790FF024697F910
:1016C0000F3011461846FFF75FFF00BF1837BD46C1
:1016D00080BD80B582B000AF0346FB7197F907303B
:1016E0001846FFF735FF00BF0837BD4680BD80B5FF
:1016F00082B000AF78607868FFF7A2FF0346184613
:101700000837BD4680BD000080B586B000AF786068
:1017100000237B61FFF7D4FE38617B68002B01D189
:10172000012399E07B68022283F835207B68002240
:1017300083F834207B681B681A687B681B6822F07A
:1017400001021A600FE0FFF7BBFE02463B69D31AA5
:10175000052B08D97B6820225A657B68032283F811
:101760003520032378E07B681B681B6803F00103C6
:10177000002BE8D17B681B681B687B617A69384B5A
:1017800013407B617B685A687B689B681A437B685F
:10179000DB681A437B681B691A437B685B691A43E1
:1017A0007B689B691A437B68DB691A437B681B6A09
:1017B00013437A6913437B617B685B6A042B07D10F
:1017C0007B68DA6A7B681B6B13437A6913437B611E
:1017D0007B681B687A691A607B681B685B697B6140
:1017E0007B6923F007037B617B685B6A7A6913433B
:1017F0007B617B685B6A042B17D17B689B6A7A6983
:1018000013437B617B68DB6A002B0ED0786800F0A5
:10181000E3F80346002B08D07B6840225A657B68BA
:10182000012283F83520012316E07B681B687A6962
:101830005A61786800F09CF80346FB607B68DB6DBA
:101840003F229A40FB689A607B6800225A657B6859
:10185000012283F83520002318461837BD4680BD85
:101860003F8010F080B586B000AFF860B9607A6054
:101870003B600023FB75FB689B6D3B61FB6893F845
:101880003430012B01D1022340E0FB68012283F8B0
:101890003420FB6893F83530DBB2012B2FD1FB6885
:1018A000022283F83520FB6800225A653B687A687B
:1018B000B968F86800F02EF8FB68DB6D3F229A40AB
:1018C0003B699A60FB681B681A68FB681B6842F0FA
:1018D00016021A60FB681B6C002B07D0FB681B68A4
:1018E0001A68FB681B6842F008021A60FB681B68F4
:1018F0001A68FB681B6842F001021A6005E0FB6889
:10190000002283F834200223FB75FB7D184618372C
:10191000BD4680BD80B485B000AFF860B9607A6024
:101920003B60FB681B681A68FB681B6822F4802216
:101930001A60FB681B683A685A60FB689B68402B1A
:1019400008D1FB681B687A689A60FB681B68BA68F4
:10195000DA6007E0FB681B68BA689A60FB681B687E
:101960007A68DA6000BF1437BD4680BC704700005B
:1019700080B485B000AF78607B681B68DBB2103B39
:10198000134AA2FB03231B09FB60124AFB681344A2
:101990001B781A467B68DA65FB68032B09D97B68DC
:1019A0001B6823F47F7323F003031A1D7B689A6579
:1019B00007E07B681B6823F47F7323F003037A68D6
:1019C00093657B689B6D18461437BD4680BC704795
:1019D000ABAAAAAA1449000880B485B000AF786009
:1019E0000023FB737B689B6ABB607B689B69002B51
:1019F0001FD1BB68032B56D801A252F823F000BFB9
:101A0000111A0008231A0008111A0008A71A000862
:101A10007B68DB6A03F08073002B46D00123FB73E5
:101A200043E07B68DB6AB3F1C07F40D10123FB73E5
:101A30003DE07B689B69B3F5005F21D1BB68032B58
:101A400037D801A252F823F0591A00085F1A00088B
:101A5000591A0008711A00080123FB7330E07B68F3
:101A6000DB6A03F08073002B25D00123FB7322E097
:101A70007B68DB6AB3F1C07F1FD10123FB731CE0DD
:101A8000BB68022B03D9BB68032B03D018E00123EA
:101A9000FB7315E07B68DB6A03F08073002B0ED0CC
:101AA0000123FB730BE000BF0AE000BF08E000BFAA
:101AB00006E000BF04E000BF02E000BF00E000BF9E
:101AC000FB7B18461437BD4680BC704780B489B094
:101AD00000AF7860396000237B6100233B61002305
:101AE000BB610023FB616BE10122FB6902FA03F396
:101AF0007B613B681B687A6913403B613A697B698B
:101B00009A4240F05A813B685B6803F00303012B63
:101B100005D03B685B6803F00303022B30D17B6880
:101B20009B68BB61FB695B00032202FA03F3DB43A2
:101B3000BA691340BB613B68DA68FB695B0002FA73
:101B400003F3BA691343BB617B68BA699A607B6827
:101B50005B68BB610122FB6902FA03F3DB43BA69EC
:101B60001340BB613B685B681B0903F00102FB6922
:101B700002FA03F3BA691343BB617B68BA695A601E
:101B80003B685B6803F00303032B17D07B68DB68BB
:101B9000BB61FB695B00032202FA03F3DB43BA6912
:101BA0001340BB613B689A68FB695B0002FA03F370
:101BB000BA691343BB617B68BA69DA603B685B68EA
:101BC00003F00303022B23D1FB69DA087B68083298
:101BD00053F82230BB61FB6903F007039B000F221F
:101BE00002FA03F3DB43BA691340BB613B681A692D
:101BF000FB6903F007039B0002FA03F3BA6913437E
:101C0000BB61FB69DA087B680832B96943F82210C6
:101C10007B681B68BB61FB695B00032202FA03F36C
:101C2000DB43BA691340BB613B685B6803F00302A6
:101C3000FB695B0002FA03F3BA691343BB617B687B
:101C4000BA691A603B685B6803F44033002B00F00C
:101C5000B4800023FB605F4B5B6C5E4A43F48043BF
:101C600053645C4B5B6C03F48043FB60FB685A4A33
:101C7000FB699B08023352F82330BB61FB6903F018
:101C800003039B000F2202FA03F3DB43BA691340FC
:101C9000BB617B68514A93422BD07B68504A934288
:101CA00025D07B684F4A93421FD07B684E4A9342AF
:101CB00019D07B684D4A934213D07B684C4A9342BB
:101CC0000DD07B684B4A934207D07B684A4A9342C7
:101CD00001D107230EE008230CE006230AE00523C8
:101CE00008E0042306E0032304E0022302E00123CA
:101CF00000E00023FA6902F0030292009340BA69FF
:101D00001343BB613449FB699B080233BA6941F84C
:101D100023203A4B9B68BB613B69DB43BA691340A4
:101D2000BB613B685B6803F48013002B03D0BA6986
:101D30003B691343BB61314ABB6993602F4BDB683E
:101D4000BB613B69DB43BA691340BB613B685B68BD
:101D500003F40013002B03D0BA693B691343BB6142
:101D6000264ABB69D360254B5B68BB613B69DB439B
:101D7000BA691340BB613B685B6803F40033002B16
:101D800003D0BA693B691343BB611C4ABB6953600A
:101D90001A4B1B68BB613B69DB43BA691340BB61EB
:101DA0003B685B6803F48033002B03D0BA693B695E
:101DB0001343BB61114ABB691360FB690133FB61CB
:101DC000FB690F2B7FF690AE00BF00BF2437BD46E6
:101DD00080BC7047003802400038014000000240DB
:101DE0000004024000080240000C024000100240C3
:101DF0000014024000180240001C0240003C014058
:101E000080B483B000AF78600B467B8013467B7054
:101E10007B78002B03D07A887B689A6103E07B880B
:101E20001A047B689A6100BF0C37BD4680BC7047BE
:101E300080B485B000AF78600B467B807B685B69BF
:101E4000FB607A88FB6813401A04FB68D9437B88DF
:101E50000B401A437B689A6100BF1437BD4680BCB3
:101E60007047000080B586B000AF78607B68002BBB
:101E700001D1012367E27B681B6803F00103002B9B
:101E800075D0884B9B6803F00C03042B0CD0854B5A
:101E90009B6803F00C03082B12D1824B5B6803F4A0
:101EA0008003B3F5800F0BD17E4B1B6803F4003326
:101EB000002B5BD07B685B68002B57D1012342E28B
:101EC0007B685B68B3F5803F06D1764B1B68754A2B
:101ED00043F4803313601DE07B685B68B3F5A02F8B
:101EE0000CD1704B1B686F4A43F4802313606D4B19
:101EF0001B686C4A43F4803313600BE0694B1B682A
:101F0000684A23F480331360664B1B68654A23F4E8
:101F1000802313607B685B68002B13D0FFF7D0FA37
:101F2000386108E0FFF7CCFA02463B69D31A642B0C
:101F300001D9032307E25B4B1B6803F40033002B3A
:101F4000F0D014E0FFF7BCFA386108E0FFF7B8FA08
:101F500002463B69D31A642B01D90323F3E1514BA9
:101F60001B6803F40033002BF0D100E000BF7B6856
:101F70001B6803F00203002B63D04A4B9B6803F0FD
:101F80000C03002B0BD0474B9B6803F00C03082B72
:101F90001CD1444B5B6803F48003002B16D1414BEA
:101FA0001B6803F00203002B05D07B68DB68012B64
:101FB00001D00123C7E13B4B1B6823F0F8027B688B
:101FC0001B69DB00374913430B603AE07B68DB6831
:101FD000002B20D0344B01221A60FFF771FA3861D0
:101FE00008E0FFF76DFA02463B69D31A022B01D9CC
:101FF0000323A8E12B4B1B6803F00203002BF0D056
:10200000284B1B6823F0F8027B681B69DB0025491D
:1020100013430B6015E0244B00221A60FFF750FABF
:10202000386108E0FFF74CFA02463B69D31A022BED
:1020300001D9032387E11B4B1B6803F00203002B2C
:10204000F0D17B681B6803F00803002B36D07B6857
:102050005B69002B16D0154B01221A60FFF730FA8E
:10206000386108E0FFF72CFA02463B69D31A022BCD
:1020700001D9032367E10B4B5B6F03F00203002BD5
:10208000F0D01BE0094B00221A60FFF719FA386103
:102090000EE0FFF715FA02463B69D31A022B07D967
:1020A000032350E10038024000004742800E4742BF
:1020B000884B5B6F03F00203002BEAD17B681B683F
:1020C00003F00403002B00F097800023FB75814B85
:1020D0001B6C03F08053002B0FD10023BB607D4BA2
:1020E0001B6C7C4A43F0805313647A4B1B6C03F0E7
:1020F0008053BB60BB680123FB75774B1B6803F4FF
:102100008073002B18D1744B1B68734A43F480739F
:102110001360FFF7D5F9386108E0FFF7D1F90246FF
:102120003B69D31A022B01D903230CE16A4B1B68CC
:1021300003F48073002BF0D07B689B68012B06D1E1
:10214000644B1B6F634A43F0010313671CE07B6819
:102150009B68052B0CD15F4B1B6F5E4A43F0040359
:1021600013675C4B1B6F5B4A43F0010313670BE083
:10217000584B1B6F574A23F001031367554B1B6FD6
:10218000544A23F0040313677B689B68002B15D027
:10219000FFF796F938610AE0FFF792F902463B69CA
:1021A000D31A41F28832934201D90323CBE0494B41
:1021B0001B6F03F00203002BEED014E0FFF780F951
:1021C00038610AE0FFF77CF902463B69D31A41F215
:1021D0008832934201D90323B5E03E4B1B6F03F0D5
:1021E0000203002BEED1FB7D012B05D1394B1B6C7B
:1021F000384A23F0805313647B689B69002B00F0FE
:10220000A180344B9B6803F00C03082B5CD07B68E7
:102210009B69022B41D1314B00221A60FFF750F924
:10222000386108E0FFF74CF902463B69D31A022BEC
:1022300001D9032387E0274B1B6803F00073002BB1
:10224000F0D17B68DA697B681B6A1A437B685B6A3A
:102250009B011A437B689B6A5B08013B1B041A4382
:102260007B68DB6A1B061B4913434B601B4B012237
:102270001A60FFF725F9386108E0FFF721F90246F7
:102280003B69D31A022B01D903235CE0114B1B6875
:1022900003F00073002BF0D054E0104B00221A60C2
:1022A000FFF70EF9386108E0FFF70AF902463B69CB
:1022B000D31A022B01D9032345E0064B1B6803F018
:1022C0000073002BF0D13DE07B689B69012B07D1A7
:1022D000012338E0003802400070004060004742AF
:1022E0001B4B5B68FB607B689B69012B28D0FB68FC
:1022F00003F480027B68DB699A4221D1FB6803F01A
:102300003F027B681B6A9A421AD1FA6847F6C0738B
:1023100013407A68526A9201934211D1FB6803F428
:1023200040327B689B6A5B08013B1B049A4207D1E1
:10233000FB6803F070627B68DB6A1B069A4201D07F
:10234000012300E0002318461837BD4680BD00BFBA
:102350000038024080B584B000AF786039607B6897
:10236000002B01D10123CCE0684B1B6803F007036D
:102370003A689A420CD9654B3A68D2B21A70634BEC
:102380001B6803F007033A689A4201D00123B8E0C2
:102390007B681B6803F00203002B20D07B681B685E
:1023A00003F00403002B05D0594B9B68584A43F4B3
:1023B000E05393607B681B6803F00803002B05D093
:1023C000534B9B68524A43F460439360504B9B6865
:1023D00023F0F0027B689B684D4913438B607B6858
:1023E0001B6803F00103002B44D07B685B68012B62
:1023F00007D1474B1B6803F40033002B19D101238D
:102400007FE07B685B68022B03D07B685B68032BF3
:1024100007D13F4B1B6803F00073002B09D1012348
:102420006FE03B4B1B6803F00203002B01D101233B
:1024300067E0374B9B6823F003027B685B68344995
:1024400013438B60FFF73CF8F8600AE0FFF738F8B9
:102450000246FB68D31A41F28832934201D9032322
:102460004FE02B4B9B6803F00C027B685B689B0082
:102470009A42EBD1254B1B6803F007033A689A4256
:102480000CD2224B3A68D2B21A70204B1B6803F070
:1024900007033A689A4201D0012332E07B681B6847
:1024A00003F00403002B08D0194B9B6823F4E0527F
:1024B0007B68DB68164913438B607B681B6803F0FD
:1024C0000803002B09D0124B9B6823F460427B6801
:1024D0001B69DB000E4913438B6000F021F80246B4
:1024E0000B4B9B681B0903F00F030A49CB5C22FAD4
:1024F00003F3094A1360094B1B681846FEF79EFF59
:10250000002318461037BD4680BD00BF003C024086
:1025100000380240FC480008000000206400002051
:102520002DE9B04F90B000AF00237B630023FB6325
:1025300000233B630023BB63594B9B6803F00C03F0
:10254000082B0DD0082B00F2A280002B02D0042B08
:1025500003D09CE0534BBB639CE0534BBB6399E0BF
:102560004F4B5B6803F03F037B634D4B5B6803F4A9
:102570008003002B27D04A4B5B689B0900223B62FB
:102580007A623B6AC3F308000021474B03FB01F268
:10259000002300FB03F31344434AA0FB0221F9622A
:1025A000BA62FA6A1344FB627B6B0022BB61FA6178
:1025B000D7E90623D7E90A01FDF75AFE02460B4682
:1025C0001346FB6355E0364B5B689B0900223B6179
:1025D0007A613B69C3F3080A4FF0000B52465B4631
:1025E0004FF000004FF00001590141EAD261500163
:1025F00002460B46B2EB0A0863EB0B094FF00002F0
:102600004FF000034FEA891343EA98634FEA8812B8
:10261000B2EB080463EB09054FF000024FF0000332
:10262000EB0043EA5473E20014461D4614EB0A0320
:102630003B6045EB0B037B604FF000024FF0000363
:10264000D7E9004529468B0220462946044643EA3D
:10265000945301468A02104619467B6B0022BB60E8
:10266000FA60D7E90223FDF703FE02460B46134644
:10267000FB630B4B5B681B0C03F0030301335B0034
:102680003B63FA6B3B6BB2FBF3F3BB6302E0054BBE
:10269000BB6300BFBB6B18464037BD46BDE8B08F7B
:1026A000003802400024F40040787D0180B400AF7F
:1026B000024B1B681846BD4680BC704700000020D6
:1026C00080B500AFFFF7F2FF0246054B9B689B0AFF
:1026D00003F007030349CB5C22FA03F3184680BDDD
:1026E000003802400C49000880B500AFFFF7DEFF5C
:1026F0000246054B9B685B0B03F007030349CB5C69
:1027000022FA03F3184680BD003802400C49000845
:1027100080B582B000AF78607B68002B01D10123C7
:1027200041E07B6893F83D30DBB2002B06D17B683B
:10273000002283F83C207868FEF706FC7B680222C2
:1027400083F83D207B681A687B680433194610467D
:1027500000F0CCFA7B68012283F846207B680122D6
:1027600083F83E207B68012283F83F207B680122AA
:1027700083F840207B68012283F841207B68012296
:1027800083F842207B68012283F843207B68012282
:1027900083F844207B68012283F845207B6801226E
:1027A00083F83D20002318460837BD4680BD000051
:1027B00080B584B000AF786039600023FB733B685C
:1027C000002B09D17B6893F83E30DBB2012B14BF9C
:1027D00001230023DBB222E03B68042B09D17B6894
:1027E00093F83F30DBB2012B14BF01230023DBB28F
:1027F00015E03B68082B09D17B6893F84030DBB2C9
:10280000012B14BF01230023DBB208E07B6893F89F
:102810004130DBB2012B14BF01230023DBB2002BBC
:1028200001D00123C7E03B68002B04D17B68022262
:1028300083F83E2013E03B68042B04D17B6802221E
:1028400083F83F200BE03B68082B04D17B68022211
:1028500083F8402003E07B68022283F841203B6834
:102860000C2B41D801A252F823F000BFA128000888
:10287000E9280008E9280008E9280008B32800082A
:10288000E9280008E9280008E9280008C528000808
:10289000E9280008E9280008E9280008D7280008E6
:1028A0007B681B68DA687B681B6842F00202DA60AA
:1028B0001DE07B681B68DA687B681B6842F00402D5
:1028C000DA6014E07B681B68DA687B681B6842F09A
:1028D0000802DA600BE07B681B68DA687B681B68BB
:1028E00042F01002DA6002E00123FB7300BFFB7BC1
:1028F000002B5FD17B681B6801223968184600F005
:102900003FFC7B681B682E4A934204D07B681B689F
:102910002C4A934201D1012300E00023002B07D071
:102920007B681B685A6C7B681B6842F400425A64DF
:102930007B681B68224A934222D07B681B68B3F1F4
:10294000804F1DD07B681B681F4A934218D07B685C
:102950001B681E4A934213D07B681B681C4A934233
:102960000ED07B681B68174A934209D07B681B68AE
:10297000184A934204D07B681B68174A934211D1CE
:102980007B681B689B6803F00703BB60BB68062B72
:1029900010D07B681B681A687B681B6842F00102D4
:1029A0001A6007E07B681B681A687B681B6842F046
:1029B00001021A60FB7B18461037BD4680BD00BF80
:1029C00000000140000401400004004000080040F5
:1029D000000C0040004001400018004080B582B06B
:1029E00000AF78607B681B681B6903F00203022B51
:1029F00022D17B681B68DB6803F00203022B1BD12A
:102A00007B681B686FF002021A617B6801221A77EB
:102A10007B681B689B6903F00303002B03D0786875
:102A200000F049F905E07868FEF780FA786800F070
:102A30004BF97B6800221A777B681B681B6903F0DF
:102A40000403042B22D17B681B68DB6803F00403BA
:102A5000042B1BD17B681B686FF004021A617B6832
:102A600002221A777B681B689B6903F44073002B72
:102A700003D0786800F01FF905E07868FEF756FA91
:102A8000786800F021F97B6800221A777B681B6860
:102A90001B6903F00803082B22D17B681B68DB68E5
:102AA00003F00803082B1BD17B681B686FF008023A
:102AB0001A617B6804221A777B681B68DB6903F064
:102AC0000303002B03D0786800F0F5F805E0786880
:102AD000FEF72CFA786800F0F7F87B6800221A7786
:102AE0007B681B681B6903F01003102B22D17B68E5
:102AF0001B68DB6803F01003102B1BD17B681B687D
:102B00006FF010021A617B6808221A777B681B68D5
:102B1000DB6903F44073002B03D0786800F0CBF836
:102B200005E07868FEF702FA786800F0CDF87B6877
:102B300000221A777B681B681B6903F00103012BD5
:102B40000ED17B681B68DB6803F00103012B07D102
:102B50007B681B686FF001021A61786800F0A2F8C8
:102B60007B681B681B6903F08003802B0ED17B6898
:102B70001B68DB6803F08003802B07D17B681B6830
:102B80006FF080021A61786800F027FB7B681B6891
:102B90001B6903F04003402B0ED17B681B68DB6888
:102BA00003F04003402B07D17B681B686FF04002A5
:102BB0001A61786800F091F87B681B681B6903F064
:102BC0002003202B0ED17B681B68DB6803F02003F9
:102BD000202B07D17B681B686FF020021A61786890
:102BE00000F0F2FA00BF0837BD4680BD80B586B060
:102BF00000AFF860B9607A600023FB75FB6893F85A
:102C00003C30012B01D1022348E0FB68012283F80C
:102C10003C207B680C2B39D801A252F823F000BF6E
:102C2000552C00088D2C00088D2C00088D2C0008D8
:102C3000632C00088D2C00088D2C00088D2C0008BA
:102C4000712C00088D2C00088D2C00088D2C00089C
:102C50007F2C0008FB681B68B968184600F0E4F890
:102C600017E0FB681B68B968184600F04DF910E0E2
:102C7000FB681B68B968184600F0BAF909E0FB6800
:102C80001B68B968184600F027FA02E00123FB75BB
:102C900000BFFB68002283F83C20FB7D18461837F4
:102CA000BD4680BD80B483B000AF786000BF0C37F4
:102CB000BD4680BC704780B483B000AF786000BF71
:102CC0000C37BD4680BC704780B483B000AF7860DD
:102CD00000BF0C37BD4680BC704780B483B000AFE6
:102CE000786000BF0C37BD4680BC704780B485B0AB
:102CF00000AF786039607B681B68FB607B683F4A87
:102D0000934213D07B68B3F1804F0FD07B683C4A6D
:102D100093420BD07B683B4A934207D07B683A4A88
:102D2000934203D07B68394A934208D1FB6823F071
:102D30007003FB603B685B68FA681343FB607B6869
:102D40002E4A93422BD07B68B3F1804F27D07B680B
:102D50002B4A934223D07B682A4A93421FD07B6838
:102D6000294A93421BD07B68284A934217D07B683C
:102D7000274A934213D07B68264A93420FD07B6840
:102D8000254A93420BD07B68244A934207D07B6844
:102D9000234A934203D07B68224A934208D1FB68BE
:102DA00023F44073FB603B68DB68FA681343FB6005
:102DB000FB6823F080023B685B691343FB607B6820
:102DC000FA681A603B689A687B68DA623B681A683E
:102DD0007B689A627B68094A934203D07B680B4AFE
:102DE000934203D13B681A697B681A637B680122AE
:102DF0005A6100BF1437BD4680BC704700000140D7
:102E00000004004000080040000C004000040140A5
:102E100000400140004401400048014000180040CB
:102E2000001C00400020004080B487B000AF7860F4
:102E300039607B681B6A23F001027B681A627B6839
:102E40001B6A7B617B685B683B617B689B69FB609D
:102E5000FB6823F07003FB60FB6823F00303FB6057
:102E60003B681B68FA681343FB607B6923F002032D
:102E70007B613B689B687A6913437B617B68204A6E
:102E8000934203D07B681F4A93420CD17B6923F0A5
:102E900008037B613B68DB687A6913437B617B696C
:102EA00023F004037B617B68154A934203D07B685F
:102EB000144A934211D13B6923F480733B613B690F
:102EC00023F400733B613B685B693A6913433B61E0
:102ED0003B689B693A6913433B617B683A695A6076
:102EE0007B68FA689A613B685A687B685A637B68BA
:102EF0007A691A6200BF1C37BD4680BC704700BFAC
:102F0000000001400004014080B487B000AF786049
:102F100039607B681B6A23F010027B681A627B6849
:102F20001B6A7B617B685B683B617B689B69FB60BC
:102F3000FB6823F4E043FB60FB6823F44073FB6011
:102F40003B681B681B02FA681343FB607B6923F034
:102F500020037B613B689B681B017A6913437B619B
:102F60007B68214A934203D07B68204A93420DD16B
:102F70007B6923F080037B613B68DB681B017A6916
:102F800013437B617B6923F040037B617B68164AB6
:102F9000934203D07B68154A934213D13B6923F4D3
:102FA00080633B613B6923F400633B613B685B6981
:102FB0009B003A6913433B613B689B699B003A69FC
:102FC00013433B617B683A695A607B68FA689A618F
:102FD0003B685A687B689A637B687A691A6200BFAB
:102FE0001C37BD4680BC7047000001400004014012
:102FF00080B487B000AF786039607B681B6A23F4C7
:1030000080727B681A627B681B6A7B617B685B6885
:103010003B617B68DB69FB60FB6823F07003FB604E
:10302000FB6823F00303FB603B681B68FA681343EB
:10303000FB607B6923F400737B613B689B681B0228
:103040007A6913437B617B68214A934203D07B6892
:10305000204A93420DD17B6923F400637B613B6876
:10306000DB681B027A6913437B617B6923F480630D
:103070007B617B68164A934203D07B68154A934272
:1030800013D13B6923F480533B613B6923F4005324
:103090003B613B685B691B013A6913433B613B68D9
:1030A0009B691B013A6913433B617B683A695A602B
:1030B0007B68FA68DA613B685A687B68DA637B6828
:1030C0007A691A6200BF1C37BD4680BC704700BFDA
:1030D000000001400004014080B487B000AF786078
:1030E00039607B681B6A23F480527B681A627B68B4
:1030F0001B6A3B617B685B687B617B68DB69FB60AB
:10310000FB6823F4E043FB60FB6823F44073FB603F
:103110003B681B681B02FA681343FB603B6923F49E
:1031200000533B613B689B681B033A6913433B6157
:103130007B68114A934203D07B68104A934209D1BD
:103140007B6923F480437B613B685B699B017A69FF
:1031500013437B617B687A695A607B68FA68DA613D
:103160003B685A687B681A647B683A691A6200BFD8
:103170001C37BD4680BC7047000001400004014080
:1031800080B487B000AFF860B9607A60BB6803F0C4
:103190001F03012202FA03F37B61FB681A6A7B6951
:1031A000DB431A40FB681A62FB681A6ABB6803F0CB
:1031B0001F03796801FA03F31A43FB681A6200BF20
:1031C0001C37BD4680BC704780B483B000AF7860C8
:1031D00000BF0C37BD4680BC704780B483B000AFE1
:1031E000786000BF0C37BD4680BC704780B582B0A8
:1031F00000AF78607B68002B01D101233FE07B6842
:1032000093F83D30DBB2002B06D17B68002283F8B7
:103210003C207868FEF762F87B68242283F83D2022
:103220007B681B68DA687B681B6822F40052DA60EE
:10323000786800F00BFC7B681B681A697B681B6868
:1032400022F490421A617B681B685A697B681B688C
:1032500022F02A025A617B681B68DA687B681B6867
:1032600042F40052DA607B6800221A647B682022F4
:1032700083F83D207B68202283F83E2000231846F7
:103280000837BD4680BD80B58AB002AFF860B9602E
:103290003B601346FB8000237B61FB6893F83D3065
:1032A000DBB2202B7CD1BB68002B02D0FB88002B2B
:1032B00001D1012375E0FB6893F83C30012B01D16B
:1032C00002236EE0FB68012283F83C20FB680022A9
:1032D0001A64FB68212283F83D20FEF7F1F878613B
:1032E000FB68FA889A84FB68FA88DA84FB689B6832
:1032F000B3F5805F08D1FB681B69002B04D1002364
:10330000FB61BB68BB6103E0BB68FB610023BB6181
:10331000FB68002283F83C202AE03B6800937B692D
:1033200000228021F86800F0BEF90346002B01D08E
:10333000032336E0FB69002B0BD1BB691B881A46BF
:10334000FB681B68C2F308025A60BB690233BB61A9
:1033500007E0FB691A78FB681B685A60FB69013358
:10336000FB61FB68DB8C9BB2013B9AB2FB68DA84A1
:10337000FB68DB8C9BB2002BCFD13B6800937B6951
:1033800000224021F86800F08EF90346002B01D09E
:10339000032306E0FB68202283F83D20002300E0A1
:1033A000022318462037BD4680BD80B584B000AFEB
:1033B000F860B9601346FB80FB6893F83E30DBB2DF
:1033C000202B1DD1BB68002B02D0FB88002B01D124
:1033D000012316E0FB6893F83C30012B01D1022356
:1033E0000FE0FB68012283F83C20FB6800221A638F
:1033F000FB881A46B968F86800F0C3F9034600E094
:10340000022318461037BD4680BD80B584B000AF9A
:10341000F860B9601346FB80FB6893F83E30DBB27E
:10342000202B1DD1BB68002B02D0FB88002B01D1C3
:10343000012316E0FB6893F83C30012B01D10223F5
:103440000FE0FB68012283F83C20FB6800221A632E
:10345000FB881A46B968F86800F0D0F9034600E026
:10346000022318461037BD4680BD80B483B000AF3C
:10347000786000BF0C37BD4680BC704780B483B015
:1034800000AF786000BF0C37BD4680BC704780B489
:1034900083B000AF786000BF0C37BD4680BC70477A
:1034A00080B483B000AF78600B467B8000BF0C37E0
:1034B000BD4680BC704780B59CB000AF78607B682B
:1034C0009B6BFB667B681B681B6803F48073002B97
:1034D00072D1FB6E0022DA85FB6E1B680C33FB6435
:1034E000FB6C53E8003FBB64BB6C23F48073BB668A
:1034F000FB6E1B680C33BA6EBA657B65796DBA6D6D
:1035000041E800233B653B6D002BE5D1FB6E1B685A
:103510001433BB63BB6B53E8003F7B637B6B23F0CF
:1035200001037B66FB6E1B6814337A6E7A643B641E
:10353000396C7A6C41E80023FB63FB6B002BE5D10F
:10354000FB6E1B6814337B627B6A53E8003F3B626F
:103550003B6A23F040033B66FB6E1B6814333A6EF4
:103560003A63FB62F96A3A6B41E80023BB62BB6ACB
:10357000002BE5D1FB6E202283F83E20FB6E1B6BF7
:10358000012B19D1FB6E1B680C333B613B6953E87F
:10359000003FFB60FB6823F01003FB65FB6E1B68BC
:1035A0000C33FA6DFA61BB61B969FA6941E800232D
:1035B0007B617B69002BE5D1FB6E1B6B012B06D178
:1035C000FB6E9B8D1946F86EFFF76AFF02E0F86EFE
:1035D000FFF74BFF00BF7037BD4680BD80B584B09C
:1035E00000AF78607B689B6BFB60FB681B6B012BFB
:1035F00008D1FB689B8D5B089BB21946F868FFF702
:103600004FFF02E0F868FFF739FF00BF1037BD46F3
:1036100080BD80B584B000AF78600023FB607B681C
:103620009B6BBB60BB681B685B6903F08003802BEE
:103630000CBF01230023DBB2FB60BB6893F83D3075
:10364000DBB2212B08D1FB68002B05D0BB68002220
:10365000DA84B86800F070F9BB681B685B6903F036
:103660004003402B0CBF01230023DBB2FB60BB688F
:1036700093F83E30DBB2222B08D1FB68002B05D03B
:10368000BB680022DA85B86800F07DF9BB681B6C66
:1036900043F01002BB681A64B868FFF7F8FE00BF79
:1036A0001037BD4680BD80B590B000AFF860B960FE
:1036B0003B601346FB7150E0BB6CB3F1FF3F4CD055
:1036C000BB6C002B07D0FDF7FBFE02463B68D31A0C
:1036D000BA6C9A4241D2FB681B680C33BB62BB6A6E
:1036E00053E8003F7B627B6A23F4D073FB63FB6883
:1036F0001B680C33FA6B7A633B63396B7A6B41E876
:103700000023FB62FB6A002BE5D1FB681B681433C6
:103710007B617B6953E8003F3B613B6923F0010318
:10372000BB63FB681B681433BA6B3A62FB61F969CF
:103730003A6A41E80023BB61BB69002BE5D1FB6815
:10374000202283F83D20FB68202283F83E20FB687E
:10375000002283F83C2003230FE0FB681B681A68F3
:10376000BB681340BA689A420CBF01230023DBB246
:103770001A46FB799A429FD0002318464037BD462F
:1037800080BD80B485B000AFF860B9601346FB809F
:10379000FB68BA689A62FB68FA889A85FB68FA88BF
:1037A000DA85FB6800221A64FB68222283F83E2037
:1037B000FB68002283F83C20FB681B69002B07D0C4
:1037C000FB681B68DA68FB681B6842F48072DA6089
:1037D000FB681B685A69FB681B6842F001025A616A
:1037E000FB681B68DA68FB681B6842F02002DA603D
:1037F000002318461437BD4680BC704780B598B08A
:1038000000AFF860B9601346FB80BA68FB689A6243
:10381000FB68FA889A85FB6800221A64FB682222FA
:1038200083F83E20FB689B6B404ADA63FB689B6B26
:103830003F4A1A64FB689B6B3E4ADA64FB689B6BE9
:1038400000221A6507F10803FB65FB68986BFB68AB
:103850001B6804331946FB6D1A68FB88FEF702F8F3
:1038600000233B61FB681B681B683B61FB681B68AE
:103870005B683B613B69FB68002283F83C20FB6886
:103880001B69002B19D0FB681B680C333B643B6C35
:1038900053E8003FFB63FB6B43F48073BB65FB683D
:1038A0001B680C33BA6DFA64BB64B96CFA6C41E8FE
:1038B00000237B647B6C002BE5D1FB681B68143311
:1038C000FB62FB6A53E8003FBB62BB6A43F0010343
:1038D0007B65FB681B6814337A6DBA637B63796B15
:1038E000BA6B41E800233B633B6B002BE5D1FB68DF
:1038F0001B681433BB61BB6953E8003F7B617B6984
:1039000043F040033B65FB681B6814333A6D7A62F1
:103910003B62396A7A6A41E80023FB61FB69002B4C
:10392000E5D1002318466037BD4680BDB734000896
:10393000DD3500081336000880B489B000AF786028
:103940007B681B680C33FB60FB6853E8003FBB607F
:10395000BB6823F0C003FB617B681B680C33FA690A
:10396000BA617B617969BA6941E800233B613B69CF
:10397000002BE5D17B68202283F83D2000BF24374F
:10398000BD4680BC704780B495B000AF78607B685E
:103990001B680C337B637B6B53E8003F3B633B6BE3
:1039A00023F49073FB647B681B680C33FA6C3A64F5
:1039B000FB63F96B3A6C41E80023BB63BB6B002BE4
:1039C000E5D17B681B6814333B623B6A53E8003FD8
:1039D000FB61FB6923F00103BB647B681B68143344
:1039E000BA6CFA62BB62B96AFA6A41E800237B6288
:1039F0007B6A002BE5D17B681B6B012B19D17B689F
:103A00001B680C33FB60FB6853E8003FBB60BB687E
:103A100023F010037B647B681B680C337A6CBA61FB
:103A20007B617969BA6941E800233B613B69002BFE
:103A3000E5D17B68202283F83E207B6800221A6350
:103A400000BF5437BD4680BC704700002DE9B04F21
:103A5000C0B000AFC7F8F400D7F8F4301B681B699A
:103A600023F44050D7F8F430D968D7F8F4301A6806
:103A700040EA01031361D7F8F4309A68D7F8F430BC
:103A80001B691A43D7F8F4305B691A43D7F8F4304E
:103A9000DB691343C7F8F830D7F8F4301B68DB68EC
:103AA00023F4164121F00C01D7F8F4301A68D7F846
:103AB000F8300B43D360D7F8F4301B685B6923F40C
:103AC0004070D7F8F4309969D7F8F4301A6840EAB2
:103AD00001035361D7F8F4301A68914B9A4205D02C
:103AE000D7F8F4301A688F4B9A4204D1FEF7FCFDE8
:103AF000C7F8FC0003E0FEF7E3FDC7F8FC00D7F8C9
:103B0000F430DB69B3F5004F40F01081D7F8FC309A
:103B10000022C7F8E830C7F8EC20D7E93A4522463A
:103B20002B469118B9655B41FB65D7E91623204602
:103B30002946044612EB04080C4643EB04094FF0F7
:103B400000024FF000034FEAC90343EA58734FEAFB
:103B5000C80290469946034618EB0303C7F8E030C5
:103B60000B4649EB0303C7F8E430D7F8F4305B6841
:103B70000022C7F8D830C7F8DC20D7E936120B4648
:103B8000DB183B65134642EB03037B65D7E914233F
:103B9000D7E93801FCF76CFB02460B46624BA3FBEE
:103BA00002235B091C01D7F8FC300022C7F8D03093
:103BB000C7F8D420D7E9348942464B469118B964F6
:103BC0005B41FB64D7E91223454612EB050A4046E8
:103BD00049460D4643EB050B4FF000024FF0000342
:103BE0004FEACB0343EA5A734FEACA0292469B4616
:103BF00003461AEB0303C7F8C8300B464BEB03032D
:103C0000C7F8CC30D7F8F4305B680022C7F8C03072
:103C1000C7F8C420D7E930120B46DB183B641346C3
:103C200042EB03037B64D7E91023D7E93201FCF7A9
:103C30001FFB02460B4611463B4BA3FB01235B09CE
:103C4000642202FB03F3CB1ADB0003F13202364B92
:103C5000A3FB02235B095B0003F4F8731C44D7F851
:103C6000FC300022C7F8B830C7F8BC20D7E92E894D
:103C700042464B469118B9635B41FB63D7E90E237B
:103C800041465118396349464B417B634FF000026E
:103C90004FF00003D7E90CAB5946CB00554643EA39
:103CA00055735146CA0010461946034642469B18B2
:103CB000C7F8B0304B460A4642EB0303C7F8B430AE
:103CC000D7F8F4305B680022C7F8A830C7F8AC20FA
:103CD000D7E92A120B46DB18BB62134642EB0303FB
:103CE000FB62D7E90A23D7E92C01FCF7C1FA0246A7
:103CF0000B460D4BA3FB02135B09642101FB03F38D
:103D0000D31ADB003233084AA2FB03235B0903F01A
:103D10000702D7F8F4301B6822449A6009E100BF1B
:103D200000100140001401401F85EB51D7F8FC3012
:103D30000022C7F8A030C7F8A420D7E92889424656
:103D40004B46911839625B417B62D7E908234146B3
:103D50005418CC4643EB0C054FF000024FF0000323
:103D6000EB0043EA5473E20014461D4640464946C0
:103D70000346E318C7F898300B4645EB0303C7F832
:103D80009C30D7F8F4305B680022C7F89030C7F851
:103D900094204FF000024FF00003D7E92445294654
:103DA0008B0020462946044643EA947301468A0064
:103DB000D7E92601FCF75CFA02460B46604BA3FBF1
:103DC00002235B091C01D7F8FC300022C7F88830B9
:103DD000C7F88C20D7E9228942464B469118B96131
:103DE0005B41FB61D7E906234146511839614946D9
:103DF0004B417B614FF000024FF00003D7E904AB69
:103E00005946CB00554643EA55735146CA00104601
:103E10001946034642469B18C7F880304B460A466F
:103E200042EB0303C7F88430D7F8F4305B68002214
:103E3000BB67FA674FF000024FF00003D7E91E8915
:103E400049468B00454643EA957341468A00D7E9C7
:103E50002001FCF70DFA02460B46394BA3FB021377
:103E60005B09642101FB03F3D31A1B013233344A8B
:103E7000A2FB03235B0903F0F0031C44D7F8FC30DA
:103E800000223B677A67D7E91C8942464B46911866
:103E9000B9605B41FB60D7E90223414651183960A4
:103EA00049464B417B604FF000024FF00003D7E9D9
:103EB00000AB5946CB00554643EA55735146CA00FC
:103EC00010461946034642469B18BB664B460A46B7
:103ED00042EB0303FB66D7F8F4305B6800223B66D5
:103EE0007A664FF000024FF00003D7E9188949467F
:103EF0008B00454643EA957341468A00D7E91A018B
:103F0000FCF7B6F902460B460D4BA3FB02135B0907
:103F1000642101FB03F3D31A1B013233084AA2FBCD
:103F200003235B0903F00F02D7F8F4301B68224427
:103F30009A6000BF07F58077BD46BDE8B08F00BF2F
:103F40001F85EB5180B582B000AF00237B60FDF789
:103F50003CFAFCF71BFBFCF749FB7B68184608376B
:103F6000BD4680BD70B50D4D0D4C641BA4100026E0
:103F7000A64209D10B4D0C4C00F0ACFC641BA41004
:103F80000026A64205D170BD55F8043B984701367E
:103F9000EEE755F8043B98470136F2E75849000828
:103FA00058490008584900085C49000830B51446D3
:103FB000002C9BB005461A4605DA8B2303604FF0B0
:103FC000FF301BB030BD4FF40273ADF80C3014BF9E
:103FD00004F1FF332346029305934FF6FF730091DC
:103FE0000491ADF80E3069461E9B00F075F8431C35
:103FF000BCBF8B232B60002CE3D0009B00221A70E7
:10400000DFE7000007B5009313460A460146034860
:104010000068FFF7CBFF03B05DF804FB6C000020E5
:104020002DE9F0478E689E4282460C4690461F4618
:1040300038D88A8912F4906F32D025680969A5EBC7
:104040000109656905EB450505EBD57501334B4461
:104050006D109D4238BF1D46530531D5294600F0ED
:1040600061FB064650B90C23CAF80030A38943F01F
:104070004003A3814FF0FF30BDE8F08721694A4635
:1040800000F0BEFAA38923F4906343F08003A38178
:10409000266165614E44A5EB09052660A5603E4694
:1040A000BE4200D93E4620683246414600F0B6FA8C
:1040B000A3689B1BA3602368334423600020DBE7D5
:1040C0002A4600F0A3FB06460028E1D121695046AC
:1040D00000F0BEFAC7E700002DE9F04F98468B8943
:1040E0001B069DB007460D4614460ED50B6963B9F5
:1040F000402100F017FB2860286120B90C233B60A9
:104100004FF0FF30D1E040236B610023099320235F
:104110008DF82930CDF80C803023DFF8A8818DF898
:104120002A304FF0010923469A4613F8012B0AB1B1
:10413000252AF9D1BAEB040B0BD05B46224629465F
:104140003846FFF76DFF013000F0AA80099A5A4403
:1041500009929AF80030002B00F0A28000234FF063
:10416000FF32CDE905230AF1010A049307938DF884
:1041700053301A935446052214F8011B5148FCF79A
:1041800027F8049AD8B9D00644BF20238DF85330BD
:10419000110744BF2B238DF853309AF800302A2B97
:1041A00015D0079A544600204FF00A0C214611F80A
:1041B000013B303B092B4ED9B0B1079214E0A0EB84
:1041C000080309FA03F313430493A246D2E7039BBF
:1041D000191D1B680391002BBBBF5B4242F002021A
:1041E00007930793B8BF049223782E2B0CD16378E2
:1041F0002A2B35D1039B1A1D1B680392002BB8BFD5
:104200004FF0FF3302340593DFF8BCA0217803227E
:104210005046FBF7DDFF40B14023A0EB0A0003FA54
:1042200000F0049B03430134049314F8011B274856
:104230008DF828100622FBF7CBFF002838D0244B3E
:104240001BBB039B073323F0070308330393099B2E
:104250003344099367E70CFB02320C460120A5E7C3
:1042600000230134059319464FF00A0C204610F83C
:10427000012B303A092A03D9002BC5D00591C3E799
:104280000CFB012104460123F0E703AB00932A460F
:10429000104B04A93846AFF30080421C0646D6D125
:1042A000AB895B063FF52CAF09981DB0BDE8F08FD8
:1042B00003AB00932A46074B04A9384600F07AF86E
:1042C000EBE700BF1C490008224900082649000806
:1042D00000000000214000082DE9F04716469946ED
:1042E0008A680B69DDF820809342B8BF13463360BB
:1042F00091F8432007460C460AB101333360236826
:10430000990642BF336802333360256815F006050D
:1043100006D104F1190AE36832689B1AAB4226DC25
:1043200094F84320131E226818BF012392062BD451
:1043300004F1430249463846C04701301ED0236885
:10434000E568326803F00603042B08BFAD1AA368C2
:1043500022690CBF25EAE57500259342C4BF9B1A6C
:10436000ED1800261A34B5421AD1002008E00123C6
:10437000524649463846C047013003D14FF0FF301E
:10438000BDE8F0870135C6E7E1185A1C302081F8F6
:104390004300224494F8451082F843100233C7E7E3
:1043A0000123224649463846C0470130E6D001364F
:1043B000D9E700002DE9FF470F7E0C9D782F91462D
:1043C00080460C469A4601F1430207D8622F0AD86C
:1043D000002F00F0D880582F00F0A38004F1420590
:1043E00084F842703AE0A7F16303152BF6D801A1D7
:1043F00051F823F04D44000861440008DD430008F3
:10440000DD430008DD430008DD4300086144000887
:10441000DD430008DD430008DD430008DD430008FC
:104420006D450008914400084F450008DD43000831
:10443000DD4300088F450008DD4300089144000873
:10444000DD430008DD430008574500082B681A1DAE
:104450001B682A6004F1420584F842300123A3E07E
:1044600020682968060601F104030AD50E682B604E
:10447000002E03DA2D23764284F843305E480A2367
:1044800019E00E682B6010F0400F18BF36B2EFE74E
:104490002B682068191D2960010601D51E6802E0FD
:1044A0004606FBD51E8854486F2F0CBF08230A23ED
:1044B000002184F843106568A560002DA2BF216823
:1044C00021F0040121600EB9002D4DD01546B6FB38
:1044D000F3F103FB1167C75D05F8017D3746BB4269
:1044E0000E46F4D9082B0BD12368DE0708D52369C3
:1044F00061689942DEBF302305F8013C05F1FF35C4
:10450000521B2261CDF800A04B4603AA214640462B
:10451000FFF7E2FE01304CD14FF0FF3004B0BDE8B0
:10452000F087354881F845702968236851F8046B95
:1045300029601D0614D5DF0744BF43F02003236024
:104540001EB9236823F0200323601023B0E72368FB
:1045500043F0200323607823284884F84530E3E7BC
:10456000590648BFB6B2E6E71546BBE72B68266892
:104570006169181D286035061B6801D5196002E0C5
:104580007006FBD51980002323611546BAE72B6816
:104590001A1D2A601D68626800212846FBF718FE74
:1045A00008B1401B606063682361002384F84330D6
:1045B000A8E723692A4649464046D0470130ABD098
:1045C00023689B0713D4E068039B9842B8BF184642
:1045D000A4E70123324649464046D04701309BD0EC
:1045E0000135E36803995B1AAB42F2DCEBE7002587
:1045F00004F11906F5E700BF2D4900083E490008FF
:104600000A44914200F1FF3300D1704710B511F810
:10461000014B03F8014F9142F9D110BD884210B50A
:1046200001EB020402D98442234607D8431EA1426B
:1046300008D011F8012B03F8012FF8E702440146D6
:104640008A4200D110BD13F8014D02F8014DF7E781
:1046500038B50546002941D051F8043C0C1F002B09
:10466000B8BFE41800F012F91D4A136833B963604B
:1046700014602846BDE8384000F00EB9A34208D9BE
:10468000206821188B4201BF19685B6809182160F6
:10469000EDE71A465B680BB1A342FAD911685018CE
:1046A000A0420BD120680144501883421160E0D130
:1046B00018685B68536001441160DAE702D90C2383
:1046C0002B60D6E7206821188B4204BF19685B680D
:1046D000636004BF091821605460CAE738BD00BF99
:1046E000C004002070B50E4E0C463168054611B965
:1046F00000F0BCF830602146284600F0B7F8431CB3
:104700000AD0C41C24F00304A04207D0211A284672
:1047100000F0ACF8013001D14FF0FF34204670BDFD
:10472000C40400202DE9F041CD1C25F00305083517
:104730000C2D38BF0C25002D074601DBA94205D9F9
:104740000C233B6000263046BDE8F0812E4E00F081
:104750009DF833681C4634BB29463846FFF7C2FF34
:10476000431C04464DD134682646002E40D12368B0
:104770003146384604EB030800F078F880453AD11A
:10478000216803356D1A25F0030508350C2D38BF57
:104790000C2529463846FFF7A5FF01302BD02368AA
:1047A0002B4423600EE02268521B1ED40B2A16D91C
:1047B0006119A342256018BF5960636808BF316062
:1047C00062514B60384604F10B0600F065F826F0A4
:1047D0000706231DF21AB6D09B1BA350B3E76268ED
:1047E000A3420CBF32605A60ECE723466468B2E72C
:1047F00034467668B9E70C233B60384600F04CF845
:10480000A1E72560DEE700BFC00400202DE9F041EC
:10481000804614460E4621B9BDE8F0411146FFF727
:1048200081BF2AB9FFF714FF25462846BDE8F0816D
:1048300000F038F88442074602D8B4EB500F12D883
:1048400021464046FFF76EFF05460028EDD0BC42EA
:104850002246314628BF3A46FFF7D2FE314640464F
:10486000FFF7F6FEE1E73546DFE7000038B5064D15
:104870000023044608462B6000F01EF8431C02D1BA
:104880002B6803B1236038BDC8040020014800F044
:1048900011B800BFCC040020014800F00CB800BFE4
:1048A000CC04002051F8043C181F002BBCBF0B584F
:1048B000C018704770477047044A1168034609B929
:1048C000034911601068034413607047D00400204E
:1048D000D4040020F8B500BFF8BC08BC9E46704761
:0C48E000F8B500BFF8BC08BC9E4670474D
:1048EC00554152542031204F50454E200D0A0000A6
:1048FC000000000000000000010203040607080984
:10490C000000000001020304000610160006101639
:10491C00232D302B2000686C4C006566674546479C
:10492C00003031323334353637383941424344451F
:10493C00460030313233343536373839616263648E
:04494C00656600009C
:0849500050B9FF7F01000000D7
:04495800B50100089D
:04495C0091010008BD
:104960000024F4000008024000200001000802407A
:104970000100000100080240020000010010024096
:104980000400000100100240080000010010024075
:10499000100000010010024020000001000402404D
:1049A0000002010000000000010000000001000002
:1049B00002000000000200000400000000030000EC
:1049C000080000001000000001000000700000203E
:1049D00000000000000000000000000000000000D7
:1049E00000000000000000000000000000000000C7
:1049F00000000000000000000000000000000000B7
:104A000000000000000000000000000000000000A6
:104A10000000000000000000000000000000000096
:104A20000000000000000000000000000000000086
:04000005080007895F
:00000001FF
