:020000040800F2
:100000000000022005070008A3060008AF0600084C
:10001000B5060008BB060008C10600080000000085
:10002000000000000000000000000000C7060008FB
:10003000D306000800000000DF060008EB060008F9
:100040005507000855070008550700085507000820
:100050005507000855070008550700085507000810
:100060005507000855070008550700085507000800
:1000700055070008550700085507000855070008F0
:1000800055070008550700085507000855070008E0
:1000900055070008550700085507000855070008D0
:1000A00055070008550700085507000855070008C0
:1000B00055070008910B0008550700085507000870
:1000C00055070008550700085507000855070008A0
:1000D0005507000855070008550700085507000890
:1000E0005507000855070008550700085507000880
:1000F0005507000855070008550700085507000870
:10010000550700085507000855070008550700085F
:10011000550700085507000855070008550700084F
:10012000550700085507000855070008550700083F
:10013000550700085507000855070008550700082F
:10014000550700085507000855070008550700081F
:10015000550700085507000855070008550700080F
:1001600055070008550700085507000855070008FF
:100170005507000855070008550700080000000053
:080180005507000855070008AF
:1001880010B5054C237833B9044B13B10448AFF3C9
:1001980000800123237010BD6C00002000000000C7
:1001A8009827000808B5034B1BB103490348AFF370
:1001B800008008BD0000000070000020982700089B
:1001C80053B94AB9002908BF00281CBF4FF0FF31B6
:1001D8004FF0FF3000F074B9ADF1080C6DE904CEB2
:1001E80000F006F8DDF804E0DDE9022304B070470A
:1001F8002DE9F047089E0D4604468846002B4DD150
:100208008A42944668D9B2FA82F252B101FA02F3EC
:10021800C2F1200120FA01F10CFA02FC41EA0308BC
:1002280094404FEA1C45210CB8FBF5FE1FFA8CF7E9
:1002380005FB1E8341EA03430EFB07F199420BD9E4
:100248001CEB03030EF1FF3080F01E81994240F24F
:100258001B81AEF1020E63445B1AA4B2B3FBF5F046
:1002680005FB103344EA034400FB07F7A7420AD909
:100278001CEB040400F1FF3380F00881A74240F230
:10028800058164440238E41B40EA0E4000211EB197
:10029800D4400023C6E90043BDE8F0878B4208D963
:1002A800002E00F0EE800021C6E900050846BDE8F2
:1002B800F087B3FA83F100294AD1AB4202D38242D4
:1002C80000F2F980841A65EB030301209846002E9A
:1002D800E2D0C6E90048DFE702B9FFDEB2FA82F2EF
:1002E800002A40F09180A1EB0C054FEA1C471FFA49
:1002F8008CFE0121B5FBF7F307FB1350250C45EAEB
:1003080000450EFB03F0A84208D91CEB050503F1D4
:10031800FF3802D2A84200F2CB8043462D1AA4B27D
:10032800B5FBF7F007FB105544EA05440EFB00FE49
:10033800A64508D91CEB040400F1FF3502D2A645F6
:1003480000F2BB802846A4EB0E0440EA03409EE777
:10035800C1F120078B4022FA07FC4CEA030C20FA73
:1003680007F405FA01F31C43FD404FEA1C4900FA63
:1003780001F3B5FBF9F8200C1FFA8CFE09FB1855A0
:1003880040EA054508FB0EF0A84202FA01F20BD933
:100398001CEB050508F1FF3A80F08880A84240F27E
:1003A8008580A8F1020865442D1AA4B2B5FBF9F0BE
:1003B80009FB105544EA054500FB0EFEAE4508D979
:1003C8001CEB050500F1FF346CD2AE456AD9023842
:1003D800654440EA0840A0FB0294A5EB0E05A5423F
:1003E800C846A64656D353D05EB1B3EB080265EBB8
:1003F8000E0505FA07F722FA01F3CD401F43C6E9B7
:1004080000750021BDE8F087C2F1200320FA03F14E
:100418000CFA02FC25FA03F395400D434FEA1C47FA
:100428001FFA8CFEB3FBF7F107FB11302B0C43EAE4
:10043800004301FB0EF0984204FA02F408D91CEBC1
:10044800030301F1FF382FD298422DD902396344B2
:100458001B1AADB2B3FBF7F007FB103345EA0345AF
:1004680000FB0EF3AB4208D91CEB050500F1FF3881
:1004780016D2AB4214D902386544ED1A40EA01415C
:1004880038E73146304607E78646E5E61846FAE695
:100498004B45A9D2B9EB020864EB0C0E0138A3E76F
:1004A8004046EAE7204694E74146D1E7D0467BE755
:1004B800023B654432E7084609E76444023842E7EC
:1004C800704700BF80B500AF002000F0EBF900BF17
:1004D80080BD80B500AF012000F0E4F900BF80BD09
:1004E80080B500AF022000F0DDF900BF80BD80B507
:1004F80000AF032000F0D6F900BF80BD80B500AF83
:100508001649002000F046FA1549012000F042FA89
:100518001449022000F03EFA1349032000F03AFA89
:100528001249002000F06CFA1149012000F068FA25
:100538001049022000F064FA0F49032000F060FA25
:10054800002000F089FA012000F086FA022000F06D
:1005580083FA032000F080FA00BF80BD90D003002A
:1005680020A10700B0710B0040420F00CD04000825
:10057800DB040008E9040008F704000880B582B02D
:1005880000AF00F015F8786000F012F802467B68BA
:10059800D31AB3F5FA7FF7D300F00AF87860F3E7D7
:1005A80080B500AF00F04EFB00F00AF800BF80BD38
:1005B80080B500AF00F0B0FB0346184680BD0000D0
:1005C80080B594B000AF0023BB602F4B1B6C2E4A44
:1005D80043F0805313642C4B1B6C03F08053BB60B7
:1005E800BB6800237B60294B1B68284A43F480437F
:1005F8001360264B1B6803F480437B607B680123F0
:10060800FB604FF480333B6102237B624FF480032D
:10061800BB621923FB624FF4A8733B6302237B631D
:100628000723BB6307F10C03184600F097FE034647
:10063800002B01D000F02EF80F23FB6302233B644C
:1006480000237B644FF4A053BB644FF48053FB64D6
:1006580007F13C030521184601F0F8F80346002B82
:1006680001D000F017F800F061FB034641F20102E7
:10067800934205D1064B1B68054A43F48073136007
:1006880000BF5037BD4680BD0038024000700040B2
:10069800003C024080B400AFFEE780B400AF00BF6A
:1006A800BD4680BC704780B400AFFEE780B400AFA1
:1006B800FEE780B400AFFEE780B400AFFEE780B489
:1006C80000AF00BFBD4680BC704780B400AF00BF1C
:1006D800BD4680BC704780B400AF00BFBD4680BC3B
:1006E800704780B500AF00F005FB00BF80BD80B447
:1006F80000AF00BFBD4680BC70470000DFF834D0B3
:100708000D480E490E4A002302E0D458C450043361
:10071800C4188C42F9D30B4A0B4C002301E0136038
:100728000432A242FBD3FFF7E2FF02F00DF801F01A
:10073800FBFF704700000220000000206C00002032
:10074800D02700086C00002080010020FEE7000090
:1007580080B582B000AF0023FB7100233B60154BCE
:100768001B6B144A43F004031363124B1B6B03F017
:1007780004033B603B68104B00225A600023FB7166
:1007880010E0FB790D4ADB0013449B881A460A4B9C
:100798001A600A4B9B690849184600F013FCFB795C
:1007A8000133FB71FB79022BEBD900BF00BF08377F
:1007B800BD4680BD003802408800002004000020AB
:1007C80080B584B000AF0023FB730023BB60224BCD
:1007D8001B6B214A43F0020313631F4B1B6B03F08F
:1007E8000203BB60BB6800237B601B4B1B6B1A4A70
:1007F80043F010031363184B1B6B03F010037B606B
:100808007B68164B01225A60144B00229A60134BE6
:100818000222DA600023FB7316E0FB7B104ADB0040
:1008280013449B881A460D4B1A60FB7B0C4A52F8FE
:1008380033300A49184600F0C5FBFB7B184600F028
:1008480011F8FB7B0133FB73FB7B042BE5D900BF5D
:1008580000BF1037BD4680BD003802409C00002014
:100868001C00002080B582B000AF0346FB71FB7905
:10087800052B11D8FB790A4A52F83300FB79084A4C
:10088800DB0013449988FB79054ADB001344DB79C4
:100898001A4600F031FD00E000BF0837BD4680BDB4
:1008A8001C00002080B582B000AF0346FB71FB79C5
:1008B800052B0DD8FB79084A52F83320FB790649F5
:1008C800DB000B449B881946104600F02DFD00E024
:1008D80000BF0837BD4680BD1C00002080B400AFB3
:1008E800194B4FF47A62C3F8B820174B174A1A60AD
:1008F800174B1B685A08144BD3F8B830B2FBF3F304
:10090800013B114A5360104B00221A610E4B002222
:100918009A600D4B00229A610B4B00225A610A4BD8
:100928000022C3F8BC20084B0022C3F8C020064BA5
:100938000022C3F8C420044B0022C3F8C82000BF1B
:10094800BD4680BC704700BFB000002000040040D6
:100958000000002080B584B000AF0346FB71FB792E
:10096800042B0FD8FB79094A12F833301A46CC23E6
:1009780002FB03F3064A1344FB60FB68184601F0C8
:1009880011F900E000BF1037BD4680BD44000020CB
:10099800B000002080B487B000AF03463960FB7117
:1009A800FB79042B20D8FB79124A12F833301A4607
:1009B800CC2302FB03F3104A13443B613B69D3F891
:1009C800B8300E4AB2FBF3F3FB603A68FB68B2FB3F
:1009D800F3F37B617B69002B01D101237B617B6988
:1009E8005A1E3B69DA6000E000BF1C37BD4680BC78
:1009F800704700BF44000020B000002040420F00B4
:100A080080B584B000AF03463960FB71FB79042BD5
:100A18001AD8FB790E4A12F833301A46CC2302FB57
:100A280003F30C4A1344FB60FB791846FFF792FF67
:100A3800FB79074ADB0013445B78FA682E339B0086
:100A480013443A685A6000E000BF1037BD4680BDC5
:100A580044000020B000002080B584B000AF0346F9
:100A6800FB710023FB60FB79042B45D8FB79244AF2
:100A780012F833301A46CC2302FB03F3214A1344FD
:100A8800BB60FB791E4ADB0013445B78032B17D845
:100A980001A252F823F000BFB10A0008B70A000803
:100AA800BD0A0008C30A00080023FB6008E004230D
:100AB800FB6005E00823FB6002E00C23FB6000BF3D
:100AC800BB68184601F0C2F8B868FB790C4ADB002D
:100AD80013445B781A461346DB009B1A9B00483385
:100AE800BA681344FA68194601F01EFBBB68F96836
:100AF800184601F0FBF800E000BF1037BD4680BD86
:100B080044000020B000002080B586B000AF7860B7
:100B18000023FB752CE0FB7D194A12F833301A4686
:100B2800CC2302FB03F3174A13443B61FB7D144AB1
:100B3800DB0013445B78FB607B681B7F1946FB7DF9
:100B48000F4ADB0013445B6899420ED13A69FB688F
:100B58002E339B0013445B68002B06D03A69FB6870
:100B68002E339B0013445B689847FB7D0133FB756C
:100B7800FB7D032BCFD900BF00BF1837BD4680BD12
:100B880044000020B000002080B500AF024801F00A
:100B9800C3F900BF80BD00BFB000002080B582B09F
:100BA80000AF78607868FFF7AFFF00BF0837BD4631
:100BB80080BD000080B582B000AF78607B681A689D
:100BC800054B1B689A4202D11D2000F0E0F900BFD6
:100BD8000837BD4680BD00BFB000002080B584B096
:100BE80000AF78607B681A680E4B1B689A4215D173
:100BF8000023FB600C4B1B6C0B4A43F0020313648D
:100C0800094B1B6C03F00203FB60FB6801220F21F8
:100C18001D2000F092F91D2000F0ABF900BF10373D
:100C2800BD4680BDB00000200038024080B500AF4E
:100C3800FFF7B6FCFFF7C4FDFFF78AFDFFF74EFE8E
:100C480000BF80BD80B500AF0E4B1B680D4A43F452
:100C5800007313600B4B1B680A4A43F480631360EC
:100C6800084B1B68074A43F480731360032000F0A5
:100C780059F90F2000F00EF800F006F80023184686
:100C880080BD00BF003C024080B400AF00BFBD463D
:100C980080BC704780B582B000AF7860124B1A688C
:100CA800124B1B7819464FF47A73B3FBF1F3B2FB7E
:100CB800F3F3184600F079F90346002B01D001231D
:100CC8000EE07B680F2B0AD8002279684FF0FF30BE
:100CD80000F033F9064A7B681360002300E0012323
:100CE80018460837BD4680BD000000206800002077
:100CF8006400002080B400AF054B1B781A46054BF2
:100D08001B681344034A136000BFBD4680BC70478C
:100D1800680000207C01002080B400AF024B1B68F3
:100D28001846BD4680BC70477C01002080B400AFE7
:100D3800034B1B681B0C1846BD4680BC704700BFA0
:100D4800002004E080B485B000AF78607B6803F0D1
:100D58000703FB600C4BDB68BB60BA684FF6FF0308
:100D68001340BB60FB681A02BB68134343F0BF63C0
:100D780043F40033BB60044ABB68D36000BF143738
:100D8800BD4680BC704700BF00ED00E080B400AFF6
:100D9800044BDB681B0A03F007031846BD4680BCFA
:100DA800704700BF00ED00E080B483B000AF034699
:100DB800FB7197F90730002B0BDBFB7903F01F025F
:100DC800064997F907305B09012000FA02F241F859
:100DD800232000BF0C37BD4680BC704700E100E00F
:100DE80080B483B000AF0346FB7197F90730002B3E
:100DF80012DBFB7903F01F020A4997F907305B09F8
:100E0800012000FA02F2203341F82320BFF34F8F6C
:100E180000BFBFF36F8F00BF00BF0C37BD4680BC5B
:100E2800704700BF00E100E080B483B000AF034624
:100E38003960FB7197F90730002B0ADB3B68DAB29F
:100E48000C4997F907301201D2B20B4483F80023FA
:100E58000AE03B68DAB20849FB7903F00F03043B68
:100E68001201D2B20B441A7600BF0C37BD4680BCC3
:100E7800704700BF00E100E000ED00E080B489B0F9
:100E880000AFF860B9607A60FB6803F00703FB61A4
:100E9800FB69C3F10703042B28BF0423BB61FB696B
:100EA8000433062B02D9FB69033B00E000237B6176
:100EB8004FF0FF32BB6902FA03F3DA43BB681A400A
:100EC8007B699A404FF0FF317B6901FA03F3D943FC
:100ED8007B680B40134318462437BD4680BC7047D7
:100EE80080B582B000AF78607B68013BB3F1807F4A
:100EF80001D301230FE00A4A7B68013B53600F21AD
:100F08004FF0FF30FFF790FF054B00229A60044B2B
:100F180007221A60002318460837BD4680BD00BF67
:100F280010E000E080B582B000AF78607868FFF725
:100F380009FF00BF0837BD4680BD80B586B000AF49
:100F48000346B9607A60FB7300237B61FFF71EFFDD
:100F580078617A68B9687869FFF790FF024697F96F
:100F68000F3011461846FFF75FFF00BF1837BD4620
:100F780080BD80B582B000AF0346FB7197F907309A
:100F88001846FFF711FF00BF0837BD4680BD80B582
:100F980082B000AF0346FB7197F907301846FFF798
:100FA8001FFF00BF0837BD4680BD80B582B000AFC7
:100FB80078607868FFF794FF034618460837BD46FF
:100FC80080BD000080B489B000AF7860396000232C
:100FD8007B6100233B610023BB610023FB616BE164
:100FE8000122FB6902FA03F37B613B681B687A699B
:100FF80013403B613A697B699A4240F05A813B68E9
:101008005B6803F00303012B05D03B685B6803F0C2
:101018000303022B30D17B689B68BB61FB695B00D3
:10102800032202FA03F3DB43BA691340BB613B684E
:10103800DA68FB695B0002FA03F3BA691343BB6120
:101048007B68BA699A607B685B68BB610122FB694F
:1010580002FA03F3DB43BA691340BB613B685B6880
:101068001B0903F00102FB6902FA03F3BA6913438F
:10107800BB617B68BA695A603B685B6803F003032D
:10108800032B17D07B68DB68BB61FB695B0003221D
:1010980002FA03F3DB43BA691340BB613B689A6801
:1010A800FB695B0002FA03F3BA691343BB617B680F
:1010B800BA69DA603B685B6803F00303022B23D14B
:1010C800FB69DA087B68083253F82230BB61FB6998
:1010D80003F007039B000F2202FA03F3DB43BA690C
:1010E8001340BB613B681A69FB6903F007039B0067
:1010F80002FA03F3BA691343BB61FB69DA087B6838
:101108000832B96943F822107B681B68BB61FB6928
:101118005B00032202FA03F3DB43BA691340BB61A5
:101128003B685B6803F00302FB695B0002FA03F3A8
:10113800BA691343BB617B68BA691A603B685B682C
:1011480003F44033002B00F0B4800023FB605F4BB6
:101158005B6C5E4A43F4804353645C4B5B6C03F402
:101168008043FB60FB685A4AFB699B08023352F8CC
:101178002330BB61FB6903F003039B000F2202FAD3
:1011880003F3DB43BA691340BB617B68514A93425E
:101198002BD07B68504A934225D07B684F4A9342B4
:1011A8001FD07B684E4A934219D07B684D4A9342C0
:1011B80013D07B684C4A93420DD07B684B4A9342CC
:1011C80007D07B684A4A934201D107230EE00823DF
:1011D8000CE006230AE0052308E0042306E00323C5
:1011E80004E0022302E0012300E00023FA6902F090
:1011F800030292009340BA691343BB613449FB6907
:101208009B080233BA6941F823203A4B9B68BB61BB
:101218003B69DB43BA691340BB613B685B6803F415
:101228008013002B03D0BA693B691343BB61314A71
:10123800BB6993602F4BDB68BB613B69DB43BA69D1
:101248001340BB613B685B6803F40013002B03D0B9
:10125800BA693B691343BB61264ABB69D360254B16
:101268005B68BB613B69DB43BA691340BB613B68A0
:101278005B6803F40033002B03D0BA693B6913435E
:10128800BB611C4ABB6953601A4B1B68BB613B6955
:10129800DB43BA691340BB613B685B6803F4803386
:1012A800002B03D0BA693B691343BB61114ABB6980
:1012B8001360FB690133FB61FB690F2B7FF690AE6E
:1012C80000BF00BF2437BD4680BC704700380240CD
:1012D80000380140000002400004024000080240BB
:1012E800000C0240001002400014024000180240A6
:1012F800001C0240003C014080B483B000AF78601D
:101308000B467B8013467B707B78002B03D07A8852
:101318007B689A6103E07B881A047B689A6100BF46
:101328000C37BD4680BC704780B485B000AF78608C
:101338000B467B807B685B69FB607A88FB6813409F
:101348001A04FB68D9437B880B401A437B689A616F
:1013580000BF1437BD4680BC7047000080B586B01A
:1013680000AF78607B68002B01D1012367E27B68BE
:101378001B6803F00103002B75D0884B9B6803F0B2
:101388000C03042B0CD0854B9B6803F00C03082B33
:1013980012D1824B5B6803F48003B3F5800F0BD145
:1013A8007E4B1B6803F40033002B5BD07B685B68C3
:1013B800002B57D1012342E27B685B68B3F5803F7D
:1013C80006D1764B1B68754A43F4803313601DE0E1
:1013D8007B685B68B3F5A02F0CD1704B1B686F4A14
:1013E80043F4802313606D4B1B686C4A43F48033CD
:1013F80013600BE0694B1B68684A23F48033136061
:10140800664B1B68654A23F4802313607B685B681E
:10141800002B13D0FFF780FC386108E0FFF77CFC55
:1014280002463B69D31A642B01D9032307E25B4BBD
:101438001B6803F40033002BF0D014E0FFF76CFCBA
:10144800386108E0FFF768FC02463B69D31A642B51
:1014580001D90323F3E1514B1B6803F40033002B3C
:10146800F0D100E000BF7B681B6803F00203002B8B
:1014780063D04A4B9B6803F00C03002B0BD0474BFF
:101488009B6803F00C03082B1CD1444B5B6803F4E6
:101498008003002B16D1414B1B6803F00203002B7D
:1014A80005D07B68DB68012B01D00123C7E13B4BEA
:1014B8001B6823F0F8027B681B69DB00374913437C
:1014C8000B603AE07B68DB68002B20D0344B0122AC
:1014D8001A60FFF721FC386108E0FFF71DFC02469F
:1014E8003B69D31A022B01D90323A8E12B4B1B68B4
:1014F80003F00203002BF0D0284B1B6823F0F802FE
:101508007B681B69DB00254913430B6015E0244BFE
:1015180000221A60FFF700FC386108E0FFF7FCFBC7
:1015280002463B69D31A022B01D9032387E11B4BDF
:101538001B6803F00203002BF0D17B681B6803F0E3
:101548000803002B36D07B685B69002B16D0154B3F
:1015580001221A60FFF7E0FB386108E0FFF7DCFBC7
:1015680002463B69D31A022B01D9032367E10B4BCF
:101578005B6F03F00203002BF0D01BE0094B002245
:101588001A60FFF7C9FB38610EE0FFF7C5FB02469A
:101598003B69D31A022B07D9032350E100380240D4
:1015A80000004742800E4742884B5B6F03F00203FE
:1015B800002BEAD17B681B6803F00403002B00F0C2
:1015C80097800023FB75814B1B6C03F08053002B25
:1015D8000FD10023BB607D4B1B6C7C4A43F08053CA
:1015E80013647A4B1B6C03F08053BB60BB68012308
:1015F800FB75774B1B6803F48073002B18D1744B71
:101608001B68734A43F480731360FFF785FB3861E6
:1016180008E0FFF781FB02463B69D31A022B01D988
:1016280003230CE16A4B1B6803F48073002BF0D092
:101638007B689B68012B06D1644B1B6F634A43F0A0
:10164800010313671CE07B689B68052B0CD15F4B7B
:101658001B6F5E4A43F0040313675C4B1B6F5B4AC6
:1016680043F0010313670BE0584B1B6F574A23F0F5
:1016780001031367554B1B6F544A23F00403136788
:101688007B689B68002B15D0FFF746FB38610AE0A2
:10169800FFF742FB02463B69D31A41F28832934274
:1016A80001D90323CBE0494B1B6F03F00203002B46
:1016B800EED014E0FFF730FB38610AE0FFF72CFBAF
:1016C80002463B69D31A41F28832934201D9032377
:1016D800B5E03E4B1B6F03F00203002BEED1FB7D00
:1016E800012B05D1394B1B6C384A23F08053136406
:1016F8007B689B69002B00F0A180344B9B6803F04A
:101708000C03082B5CD07B689B69022B41D1314BC1
:1017180000221A60FFF700FB386108E0FFF7FCFAC7
:1017280002463B69D31A022B01D9032387E0274BD2
:101738001B6803F00073002BF0D17B68DA697B68C3
:101748001B6A1A437B685B6A9B011A437B689B6A26
:101758005B08013B1B041A437B68DB6A1B061B49B9
:1017680013434B601B4B01221A60FFF7D5FA38610F
:1017780008E0FFF7D1FA02463B69D31A022B01D9D8
:1017880003235CE0114B1B6803F00073002BF0D0BF
:1017980054E0104B00221A60FFF7BEFA386108E0E7
:1017A800FFF7BAFA02463B69D31A022B01D9032381
:1017B80045E0064B1B6803F00073002BF0D13DE0B9
:1017C8007B689B69012B07D1012338E00038024070
:1017D80000700040600047421B4B5B68FB607B6801
:1017E8009B69012B28D0FB6803F480027B68DB69C6
:1017F8009A4221D1FB6803F03F027B681B6A9A4238
:101808001AD1FA6847F6C07313407A68526A92018F
:10181800934211D1FB6803F440327B689B6A5B08F2
:10182800013B1B049A4207D1FB6803F070627B6896
:10183800DB6A1B069A4201D0012300E00023184608
:101848001837BD4680BD00BF0038024080B584B05F
:1018580000AF786039607B68002B01D10123CCE0B0
:10186800684B1B6803F007033A689A420CD9654B2A
:101878003A68D2B21A70634B1B6803F007033A68E0
:101888009A4201D00123B8E07B681B6803F0020389
:10189800002B20D07B681B6803F00403002B05D0C5
:1018A800594B9B68584A43F4E05393607B681B6824
:1018B80003F00803002B05D0534B9B68524A43F4AE
:1018C80060439360504B9B6823F0F0027B689B68F1
:1018D8004D4913438B607B681B6803F00103002BA1
:1018E80044D07B685B68012B07D1474B1B6803F426
:1018F8000033002B19D101237FE07B685B68022B42
:1019080003D07B685B68032B07D13F4B1B6803F050
:101918000073002B09D101236FE03B4B1B6803F0D8
:101928000203002B01D1012367E0374B9B6823F0AA
:1019380003027B685B68344913438B60FFF7ECF95B
:10194800F8600AE0FFF7E8F90246FB68D31A41F2AB
:101958008832934201D903234FE02B4B9B6803F055
:101968000C027B685B689B009A42EBD1254B1B6895
:1019780003F007033A689A420CD2224B3A68D2B273
:101988001A70204B1B6803F007033A689A4201D08B
:10199800012332E07B681B6803F00403002B08D0A6
:1019A800194B9B6823F4E0527B68DB6816491343A4
:1019B8008B607B681B6803F00803002B09D0124B6F
:1019C8009B6823F460427B681B69DB000E49134364
:1019D8008B6000F021F802460B4B9B681B0903F053
:1019E8000F030A49CB5C22FA03F3094A1360094B37
:1019F8001B681846FFF74EF9002318461037BD46F6
:101A080080BD00BF003C024000380240B0270008FB
:101A180000000020640000202DE9B04F90B000AF16
:101A280000237B630023FB6300233B630023BB632A
:101A3800594B9B6803F00C03082B0DD0082B00F2C0
:101A4800A280002B02D0042B03D09CE0534BBB6335
:101A58009CE0534BBB6399E04F4B5B6803F03F033B
:101A68007B634D4B5B6803F48003002B27D04A4B04
:101A78005B689B0900223B627A623B6AC3F30800F9
:101A88000021474B03FB01F2002300FB03F313443F
:101A9800434AA0FB0221F962BA62FA6A1344FB6264
:101AA8007B6B0022BB61FA61D7E90623D7E90A01FB
:101AB800FEF786FB02460B461346FB6355E0364BA2
:101AC8005B689B0900223B617A613B69C3F3080AA2
:101AD8004FF0000B52465B464FF000004FF00001FC
:101AE800590141EAD261500102460B46B2EB0A089D
:101AF80063EB0B094FF000024FF000034FEA891324
:101B080043EA98634FEA8812B2EB080463EB0905CD
:101B18004FF000024FF00003EB0043EA5473E20079
:101B280014461D4614EB0A033B6045EB0B037B6030
:101B38004FF000024FF00003D7E9004529468B0219
:101B480020462946044643EA945301468A02104631
:101B580019467B6B0022BB60FA60D7E90223FEF7C7
:101B68002FFB02460B461346FB630B4B5B681B0CB3
:101B780003F0030301335B003B63FA6B3B6BB2FB7F
:101B8800F3F3BB6302E0054BBB6300BFBB6B1846B6
:101B98004037BD46BDE8B08F003802400024F4004D
:101BA80040787D0180B582B000AF78607B68022202
:101BB80083F83D207B681B681A6A41F211131340B1
:101BC800002B0FD17B681B681A6A40F2444313400C
:101BD800002B07D17B681B681A687B681B6822F09A
:101BE80001021A607868FEF7E5FF7B68002283F837
:101BF80046207B68002283F83E207B68002283F819
:101C08003F207B68002283F840207B68002283F80D
:101C180041207B68002283F842207B68002283F8F9
:101C280043207B68002283F844207B68002283F8E5
:101C380045207B68002283F83D207B68002283F8DA
:101C48003C20002318460837BD4680BD80B582B0C9
:101C580000AF78607B68002B01D1012341E07B68ED
:101C680093F83D30DBB2002B06D17B68002283F865
:101C78003C207868FEF7B2FF7B68022283F83D209B
:101C88007B681A687B6804331946104600F0CCFA62
:101C98007B68012283F846207B68012283F83E2076
:101CA8007B68012283F83F207B68012283F840206B
:101CB8007B68012283F841207B68012283F8422057
:101CC8007B68012283F843207B68012283F8442043
:101CD8007B68012283F845207B68012283F83D2038
:101CE800002318460837BD4680BD000080B584B083
:101CF80000AF786039600023FB733B68002B09D183
:101D08007B6893F83E30DBB2012B14BF012300231C
:101D1800DBB222E03B68042B09D17B6893F83F30A3
:101D2800DBB2012B14BF01230023DBB215E03B68B3
:101D3800082B09D17B6893F84030DBB2012B14BF24
:101D480001230023DBB208E07B6893F84130DBB263
:101D5800012B14BF01230023DBB2002B01D0012388
:101D6800C7E03B68002B04D17B68022283F83E2041
:101D780013E03B68042B04D17B68022283F83F20E0
:101D88000BE03B68082B04D17B68022283F84020D3
:101D980003E07B68022283F841203B680C2B41D882
:101DA80001A252F823F000BFE51D00082D1E00080F
:101DB8002D1E00082D1E0008F71D00082D1E000806
:101DC8002D1E00082D1E0008091E00082D1E0008E3
:101DD8002D1E00082D1E00081B1E00087B681B68AE
:101DE800DA687B681B6842F00202DA601DE07B68F3
:101DF8001B68DA687B681B6842F00402DA6014E04A
:101E08007B681B68DA687B681B6842F00802DA6046
:101E18000BE07B681B68DA687B681B6842F010027D
:101E2800DA6002E00123FB7300BFFB7B002B5FD16C
:101E38007B681B6801223968184600F03FFC7B6804
:101E48001B682E4A934204D07B681B682C4A934235
:101E580001D1012300E00023002B07D07B681B6819
:101E68005A6C7B681B6842F400425A647B681B68A2
:101E7800224A934222D07B681B68B3F1804F1DD061
:101E88007B681B681F4A934218D07B681B681E4AF0
:101E9800934213D07B681B681C4A93420ED07B6820
:101EA8001B68174A934209D07B681B68184A9342FB
:101EB80004D07B681B68174A934211D17B681B6862
:101EC8009B6803F00703BB60BB68062B10D07B68D8
:101ED8001B681A687B681B6842F001021A6007E0F9
:101EE8007B681B681A687B681B6842F001021A60ED
:101EF800FB7B18461037BD4680BD00BF000001407F
:101F0800000401400004004000080040000C0040AC
:101F1800004001400018004080B582B000AF7860F2
:101F28007B681B681B6903F00203022B22D17B68C4
:101F38001B68DB6803F00203022B1BD17B681B685C
:101F48006FF002021A617B6801221A777B681B68AE
:101F58009B6903F00303002B03D0786800F049F96C
:101F680005E07868FEF71AFE786800F04BF97B68A0
:101F780000221A777B681B681B6903F00403042B93
:101F880022D17B681B68DB6803F00403042B1BD198
:101F98007B681B686FF004021A617B6802221A775B
:101FA8007B681B689B6903F44073002B03D0786837
:101FB80000F01FF905E07868FEF7F0FD786800F09A
:101FC80021F97B6800221A777B681B681B6903F07C
:101FD8000803082B22D17B681B68DB6803F0080321
:101FE800082B1BD17B681B686FF008021A617B689D
:101FF80004221A777B681B68DB6903F00303002B54
:1020080003D0786800F0F5F805E07868FEF7C6FDBB
:10201800786800F0F7F87B6800221A777B681B68FD
:102028001B6903F01003102B22D17B681B68DB6847
:1020380003F01003102B1BD17B681B686FF0100294
:102048001A617B6808221A777B681B68DB6903F4CE
:102058004073002B03D0786800F0CBF805E078686F
:10206800FEF79CFD786800F0CDF87B6800221A77AF
:102078007B681B681B6903F00103012B0ED17B6889
:102088001B68DB6803F00103012B07D17B681B6821
:102098006FF001021A61786800F0A2F87B681B688B
:1020A8001B6903F08003802B0ED17B681B68DB68FB
:1020B80003F08003802B07D17B681B686FF08002D8
:1020C8001A61786800F027FB7B681B681B6903F0BE
:1020D8004003402B0ED17B681B68DB6803F040038C
:1020E800402B07D17B681B686FF040021A61786843
:1020F80000F091F87B681B681B6903F02003202B14
:102108000ED17B681B68DB6803F02003202B07D106
:102118007B681B686FF020021A61786800F0F2FA99
:1021280000BF0837BD4680BD80B586B000AFF860F7
:10213800B9607A600023FB75FB6893F83C30012B8B
:1021480001D1022348E0FB68012283F83C207B6828
:102158000C2B39D801A252F823F000BF99210008AE
:10216800D1210008D1210008D1210008A7210008A9
:10217800D1210008D1210008D1210008B52100088B
:10218800D1210008D1210008D1210008C32100086D
:10219800FB681B68B968184600F0E4F817E0FB68AC
:1021A8001B68B968184600F04DF910E0FB681B6819
:1021B800B968184600F0BAF909E0FB681B68B96805
:1021C800184600F027FA02E00123FB7500BFFB6800
:1021D800002283F83C20FB7D18461837BD4680BD99
:1021E80080B483B000AF786000BF0C37BD4680BCB8
:1021F800704780B483B000AF786000BF0C37BD462D
:1022080080BC704780B483B000AF786000BF0C37E3
:10221800BD4680BC704780B483B000AF786000BF13
:102228000C37BD4680BC704780B485B000AF78607D
:1022380039607B681B68FB607B683F4A934213D018
:102248007B68B3F1804F0FD07B683C4A93420BD038
:102258007B683B4A934207D07B683A4A934203D053
:102268007B68394A934208D1FB6823F07003FB600E
:102278003B685B68FA681343FB607B682E4A9342AD
:102288002BD07B68B3F1804F27D07B682B4A9342D1
:1022980023D07B682A4A93421FD07B68294A9342FD
:1022A8001BD07B68284A934217D07B68274A934201
:1022B80013D07B68264A93420FD07B68254A934205
:1022C8000BD07B68244A934207D07B68234A934209
:1022D80003D07B68224A934208D1FB6823F44073F9
:1022E800FB603B68DB68FA681343FB60FB6823F01C
:1022F80080023B685B691343FB607B68FA681A607D
:102308003B689A687B68DA623B681A687B689A62FD
:102318007B68094A934203D07B680B4A934203D1F6
:102328003B681A697B681A637B6801225A6100BF9F
:102338001437BD4680BC70470000014000040040CF
:1023480000080040000C004000040140004001402B
:10235800004401400048014000180040001C0040B3
:102368000020004080B487B000AF786039607B6897
:102378001B6A23F001027B681A627B681B6A7B6117
:102388007B685B683B617B689B69FB60FB6823F04B
:102398007003FB60FB6823F00303FB603B681B686A
:1023A800FA681343FB607B6923F002037B613B6897
:1023B8009B687A6913437B617B68204A934203D008
:1023C8007B681F4A93420CD17B6923F008037B6129
:1023D8003B68DB687A6913437B617B6923F00403FC
:1023E8007B617B68154A934203D07B68144A934209
:1023F80011D13B6923F480733B613B6923F400737B
:102408003B613B685B693A6913433B613B689B6985
:102418003A6913433B617B683A695A607B68FA689A
:102428009A613B685A687B685A637B687A691A6262
:1024380000BF1C37BD4680BC704700BF000001408C
:102448000004014080B487B000AF786039607B68D1
:102458001B6A23F010027B681A627B681B6A7B6127
:102468007B685B683B617B689B69FB60FB6823F466
:10247800E043FB60FB6823F44073FB603B681B6828
:102488001B02FA681343FB607B6923F020037B611E
:102498003B689B681B017A6913437B617B68214A0F
:1024A800934203D07B68204A93420DD17B6923F085
:1024B80080037B613B68DB681B017A6913437B619E
:1024C8007B6923F040037B617B68164A934203D003
:1024D8007B68154A934213D13B6923F480633B61BF
:1024E8003B6923F400633B613B685B699B003A6985
:1024F80013433B613B689B699B003A6913433B610B
:102508007B683A695A607B68FA689A613B685A68DE
:102518007B689A637B687A691A6200BF1C37BD467C
:1025280080BC7047000001400004014080B487B0BF
:1025380000AF786039607B681B6A23F480727B681F
:102548001A627B681B6A7B617B685B683B617B689E
:10255800DB69FB60FB6823F07003FB60FB6823F01A
:102568000303FB603B681B68FA681343FB607B69E5
:1025780023F400737B613B689B681B027A691343F1
:102588007B617B68214A934203D07B68204A93424F
:102598000DD17B6923F400637B613B68DB681B0218
:1025A8007A6913437B617B6923F480637B617B6871
:1025B800164A934203D07B68154A934213D13B696C
:1025C80023F480533B613B6923F400533B613B6830
:1025D8005B691B013A6913433B613B689B691B01BB
:1025E8003A6913433B617B683A695A607B68FA68C9
:1025F800DA613B685A687B68DA637B687A691A62D1
:1026080000BF1C37BD4680BC704700BF00000140BA
:102618000004014080B487B000AF786039607B68FF
:102628001B6A23F480527B681A627B681B6A3B61D1
:102638007B685B687B617B68DB69FB60FB6823F414
:10264800E043FB60FB6823F44073FB603B681B6856
:102658001B02FA681343FB603B6923F400533B6198
:102668003B689B681B033A6913433B617B68114ACB
:10267800934203D07B68104A934209D17B6923F4C3
:1026880080437B613B685B699B017A6913437B618B
:102698007B687A695A607B68FA68DA613B685A68CD
:1026A8007B681A647B683A691A6200BF1C37BD46AA
:1026B80080BC7047000001400004014080B487B02E
:1026C80000AFF860B9607A60BB6803F01F030122AD
:1026D80002FA03F37B61FB681A6A7B69DB431A40E1
:1026E800FB681A62FB681A6ABB6803F01F03796803
:1026F80001FA03F31A43FB681A6200BF1C37BD4690
:1027080080BC704780B483B000AF786000BF0C37DE
:10271800BD4680BC704780B483B000AF786000BF0E
:102728000C37BD4680BC704780B582B000AF00232F
:102738007B60FEF77BFAFDF7E1FEFDF71FFF7B6884
:1027480018460837BD4680BD70B50D4D0D4C641B4D
:10275800A4100026A64209D10B4D0C4C00F018F825
:10276800641BA4100026A64205D170BD55F8043B91
:1027780098470136EEE755F8043B98470136F2E7EB
:10278800C8270008C8270008C8270008CC27000861
:10279800F8B500BFF8BC08BC9E467047F8B500BF46
:0827A800F8BC08BC9E46704716
:1027B00000000000000000000102030406070809F1
:0827C00038DAFF7F0100000080
:0427C800AD01000857
:0427CC008901000877
:1027D0000024F4000008024000200001000802402C
:1027E0000100000100080240020000010010024048
:1027F0000400000100100240080000010010024027
:1028000010000001001002402000000100040240FE
:1028100000020100000000000100000000010000B3
:10282000020000000002000004000000000300009D
:0C28300008000000100000000100000083
:0400000508000705E3
:00000001FF
